:100000000C9423060C945B060C945B060C94E03273
:100010000C945B060C945B060C945B060C945B06DC
:100020000C945B060C945B060C942E150C945F19D3
:100030000C94792A0C945B060C945B060C945B067A
:100040000C945B060C945B060C945B060C945B06AC
:100050000C945B060C9406160C945B060C945B06E1
:100060000C945B060C945B060C945B060C945B068C
:100070000C945B060C945B060C945B060C945B067C
:100080000C945B060C945B060C945B060C945B066C
:100090000C945B060C945B060C945B060C945B065C
:1000A0000C945B060C945B060C945B060500110037
:1000B00000000A000B00000017001C0000001A00DE
:1000C000140000000D000E0000000D000B000000E9
:1000D0000E000F000000202020206162636465662E
:1000E0006768696A6B6C6D6E6F7071727374757628
:1000F0007778797A3132333435363738393052457A
:1001000042545F2D3D5B5D5C233B27602C2E2F20EE
:1001100020202B0014001A00005715001700292179
:1001200001571600070009000A00E1001D001B002E
:10013000035719000500000000000000E3002152F1
:100140002C002A00130012000C0002571C0034007F
:1001500033000F000E000D000B00E20038003700E6
:10016000360010001100000000000000E3002252E1
:10017000280001001E021F022002210222020100AB
:100180000100010001000100010001001D011B012F
:1001900006011901E3000000000000000100010059
:1001A00001004C0027022602250224022302350208
:1001B00030022F022E022D023102350030002F00B6
:1001C0002E002D00310000000000000001000100A1
:1001D00001002B001E001F00200021002200E10072
:1001E000A900AA00AC00AE00AB00E0001B701870C4
:1001F0003C003E003E000000000000000100010045
:1002000001002A00270026002500240023004C00BE
:1002100044004F0052005100500001004500010011
:1002200001000100010000000000000001000100C9
:10023000010000DA028178D9F1DB20A4A62EAF00FC
:10024000A0C0D30000A1C8D30000AED580A81F4035
:100250008D14200000000000E0100808C8B0808065
:10026000808080808040403C14040890180408B0CE
:1002700040800000000000000102C4A4FC00000057
:10028000008000000000000000000080C858282AFC
:10029000100F000000000000000E09040404040216
:1002A000030201010202040810262B320405060095
:1002B00000000000000000E01010F000000000004E
:1002C000000000808080782808102030081020402E
:1002D000800000000000000304081011F901010172
:1002E00001010100000000000000000110B05055A5
:1002F000201F000000000000000000000001020CB0
:1003000010202837021E2020180C141E01000000A7
:1003100000000000000000000000000000000000DD
:100320000000E01C02050224040402A91EE00000F3
:1003300000000000000000000000E0100868100845
:100340000403000000000000000206827C0300009D
:10035000000000000000000000000102040C10106A
:10036000202020283E1C20203E0F111F00000000EE
:10037000000000000000000000000000000000007D
:100380000000E01C02050224040402A91EE0000093
:10039000000000000000000000E090081860100855
:1003A000040300000000000000020E827C03000035
:1003B000000000000000000000000102040C10100A
:1003C000202020283E1C20203E0F111F000000008E
:1003D0000000000000010101010101010101020210
:1003E00002020202020202030303030303030304E3
:1003F00004040404040405050505050606060606AE
:10040000070707070708080808090909090A0A0A67
:100410000B0B0B0C0C0C0D0D0D0E0E0E0F0F0F1009
:100420001011111112121313141415151616171793
:10043000181819191A1A1B1B1C1D1D1E1E1F2020FF
:10044000212222232424252626272829292A2B2C49
:100450002D2D2E2F30313232333435363738393A6C
:100460003B3C3D3E3F404142434445464748494A64
:100470004C4D4E4F50515354555658595A5B5D5E32
:100480005F616264656668696B6C6D6F70727375CD
:1004900077787A7B7D7E8082838587888A8C8E8F31
:1004A00091939596989A9C9EA0A2A3A5A7A9ABAD5F
:1004B000AFB1B3B5B7BABCBEC0C2C4C6C9CBCDCF4D
:1004C000D1D4D6D8DBDDDFE2E4E7E9EBEEF0F3F5FB
:1004D000F8FAFDFF00AF00AE5B5D007B7D002829D0
:1004E000003D3E003D3C003E3D0005010902A101EA
:1004F00085020901A1000509190129081500250136
:100500009508750181020501093009311581257FA2
:1005100095027508810609381581257F95017508B2
:100520008106050C0A38021581257F950175088121
:1005300006C0C005010980A101850319012AB70081
:10054000150126B700950175108100C0050C090141
:10055000A101850419012AA002150126A002950116
:1005600075108100C005010906A10185060507195E
:10057000E029E71500250195087501810205071995
:100580000029EF1500250195F07501810205081974
:10059000012905950575019102950175039101C029
:1005A00005010906A101050719E029E71500250144
:1005B00095087501810295017508810105071900EB
:1005C00029FF150026FF009506750881000508190A
:1005D0000129051500250195057501910295017503
:1005E000039101C009023B00020100A0FA090400C6
:1005F000000103010100092111010001224400074B
:10060000058103080001090401000103000000093D
:10061000211101000122B60007058203200001120A
:100620000100020000000853460100010001020021
:10063000010C0343006F0072006E006500000010A3
:100640000366006F006F007300740061006E0000AD
:100650000004030904000000000000000000000086
:10066000000000000000000000000000000000008A
:100670000000000000000000007E0F00D4FFFFFF1C
:10068000C70000007800000000000000002A2B28AE
:10069000000000000000000000000000000000005A
:1006A00029000000002C1E34202122243426272576
:1006B0002E362D3738271E1F2021222324252633AE
:1006C00033362E37381F0405060708090A0B0C0DB0
:1006D0000E0F101112131415161718191A1B1C1DC2
:1006E0002F3130232D350405060708090A0B0C0DA0
:1006F0000E0F101112131415161718191A1B1C1DA2
:100700002F3130354C0000000000003E5B4F5B3E57
:10071000003E6B4F6B3E001C3E7C3E1C00183C7E36
:100720003C18001C577D571C001C5E7F5E1C00009F
:10073000183C180000FFE7C3E7FF0000182418006A
:1007400000FFE7DBE7FF0030483A060E0026297974
:10075000292600407F05050700407F05253F005AF8
:100760003CE73C5A007F3E1C1C0800081C1C3E7FD6
:100770000014227F2214005F5F005F5F0006097F84
:10078000017F00006689956A006060606060009487
:10079000A2FFA2940008047E04080010207E20100E
:1007A0000008082A1C0800081C2A0808001E10104F
:1007B0001010000C1E0C1E0C0030383E38300006A5
:1007C0000E3E0E060000000000000000005F00006A
:1007D00000000700070000147F147F1400242A7F04
:1007E0002A12002313086462003649562050000084
:1007F0000807030000001C224100000041221C00E9
:10080000002A1C7F1C2A0008083E0808000080708F
:1008100030000008080808080000006060000020A0
:1008200010080402003E5149453E0000427F40004E
:10083000007249494946002141494D3300181412BC
:100840007F10002745454539003C4A494931004160
:100850002111090700364949493600464949291EF0
:1008600000000014000000004034000000000814E4
:100870002241001414141414000041221408000230
:1008800001590906003E415D594E007C1211127C4F
:10089000007F49494936003E41414122007F4141A4
:1008A000413E007F49494941007F09090901003E55
:1008B00041415173007F0808087F0000417F4100DB
:1008C000002040413F01007F08142241007F40404A
:1008D0004040007F021C027F007F0408107F003E22
:1008E0004141413E007F09090906003E4151215E18
:1008F000007F091929460026494949320003017F32
:100900000103003F4040403F001F2040201F003FA8
:100910004038403F00631408146300030478040364
:10092000006159494D4300007F41414100020408E4
:10093000102000004141417F0004020102040040F8
:100940004040404000000307080000205454784015
:10095000007F284444380038444444280038444444
:10096000287F0038545454180000087E09020018EB
:1009700024241C78007F080404780000447D400093
:10098000002040403D00007F102844000000417FCF
:100990004000007C04780478007C08040478003867
:1009A00044444438007C1824241800182424187C5B
:1009B000007C080404080048545454240004043FF4
:1009C0004424003C4040207C001C2040201C003C73
:1009D0004030403C004428102844004C9090907CCB
:1009E000004464544C440000083641000000007785
:1009F0000000000041360800000201020402003C31
:100A00002623263C0000000000000000000000003B
:100A10000000000000C0E0F0F8F81800C0F0FCFE94
:100A2000FFFFFFFFFFFFFF7E00000000000000004F
:100A30000080C0E0E0E0E0E0E0E0E0C08000000036
:100A40000080C0E0E0E0E0E0E0E0E0C08000000026
:100A5000E0E0C0C0E0E0E0E00000E0E0C0C0E0E0D6
:100A6000E0E0E0C0800000000080C0E0E0E0E0E006
:100A7000E0E0E0C080000000000000000000000096
:100A8000000000E0F0F0F0E0ECEEF7F37020007C06
:100A90007C7C7E007E7E7E7F7F7F000080C0E07E4B
:100AA0005B4F5BFEC00000C000DCD7DEDEDED7DCC3
:100AB00000C0000000000000000000000000000076
:100AC0000000000000000000000000000000F8FC32
:100AD000FEFFE000FFFFFFFFFFFF80FFFFFFFFFFC4
:100AE000FFFFFFFF1F0701000000000000000000E3
:100AF000FFFFFF8100000000000081C3C3C30000AE
:100B0000FFFFFF8100000000000081FFFFFF0000E9
:100B1000FFFFFF01000000000000FFFFFF010000D9
:100B2000000001FFFFFF0000FFFFFF9D1C1C1C1CBD
:100B30001C1C9DDFDFDF0000000000000000000043
:100B40000000000F1F3F7F7F7F7F7F3F1E0C001F35
:100B50001F1F3F003F3F3F7F7F7F00307B7F78300C
:100B6000202030787F3B0003000F7F0F0F0F7F0F97
:100B70000003000000000000000000000000000072
:100B80000000000000000000000000000000030F53
:100B90001F3F3F3F3F1F1F3F3F7F7F7F3F3F1F3F25
:100BA0007F7F7F7F7C7878381C0F0000000000007A
:100BB00000010307070707070707070301000000F5
:100BC00000010307070707070707070301000000E5
:100BD00007070700000000000000070707000000EB
:100BE00000000007070700000001030707070707C9
:100BF00007070703010000000000000000000000DC
:100C000000000000000000000000000000000000E4
:100C100000000000000000000000000000000000D4
:100C200000000000000000000000000000000000C4
:100C300000000000000000000000000000000000B4
:100C400000000000000011241FBECFEFDAE0DEBF7D
:100C5000CDBF04B603FE18C08091260790912707E8
:100C6000A0912807B09129078730904BA740B04B3F
:100C700059F4109226071092270710922807109215
:100C80002907E0E0F8E3099512E0A0E0B1E0E6EB27
:100C9000FBE602C005900D92A631B107D9F727E017
:100CA000A6E1B2E001C01D92A632B207E1F70E94B0
:100CB000A02A0C947E350C940000CF93DF932091F2
:100CC000240730912507A9014E5155402E5B344031
:100CD00021303240C0F020E032E0241B350B60911F
:100CE0001C0570911D05FC01CA01240F351FC1E0D0
:100CF000D0E08217930750F070931D0560931C0598
:100D0000DF91CF91089520E630E0E9CF4491DC01F6
:100D1000A25EBA4F5C91451781F04C93AC01A5E0FF
:100D200056954795AA95E1F7DE0102C0AA0FBB1FB1
:100D30004A95E2F7AD016A2B752B01963196D9CF12
:100D4000982FE09117054091CE0459E0E41302C0BA
:100D500080E008952E2F30E05E9FF0011124E153D2
:100D6000FB4F8181681306C08081981303C0858181
:100D70008111EFCFF9013196E770E8CFFC01AC01AA
:100D80004C5F5F4F8FEF91E32191822728E030E0A5
:100D900087FF09C0880F892721503109C9F7E41757
:100DA000F50791F70895880FF7CFE8EDF0E080811F
:100DB0008E7F80831092E2001092DA001092E100A0
:100DC000A0EEB0E08C9181608C9380818F778083DE
:100DD00019BCA7EDB0E08C918E7F8C9380818F7EC3
:100DE000808310929F0408952091E4003091E500E3
:100DF00095E6A9012091EC00822F817020FF06C0AA
:100E00008091E80080FF06C080E008952091E8000E
:100E100022FD1AC08091C404882389F0853089F0AE
:100E20008091EB0085FD0FC02091E4003091E5003A
:100E300042175307F9F29150E1F684E0089582E0F9
:100E4000089583E0089581E008958091C60487FFA6
:100E500013C08091E80082FF06C08091E8008B7784
:100E60008093E80004C08091C4048111F2CF0895FA
:100E70008091C4048823D9F38091E80080FFF8CFE3
:100E80008091E8008E77ECCF982F9093E900242F83
:100E9000762F50E0891731F07091EC002091ED0031
:100EA0005091F00021FD07C09F5F973071F780934C
:100EB000E90081E008953091EB003E7F3093EB0034
:100EC0003091ED003D7F3093ED003091EB003160CB
:100ED0003093EB007093EC002093ED005093F00002
:100EE0002091EE0027FDE0CF80E00895B0E0A0E083
:100EF000ECE7F7E00C941B34C8EDD0E088818F7EDE
:100F00008883E7EDF0E080818160808384E082BFA8
:100F100081E080939F0488818E7F888302EE10E0B9
:100F2000F80110821092DA0081EEC82ED12CF60161
:100F3000108288818F778883888180688883888100
:100F40008F7D888319BC1092C4041092C50410923E
:100F5000C3041092C20490EEE92EF12CF7018081B7
:100F60008B7F808388818160888342E060E080E0BD
:100F70000E944407F60180818E7F8083F801808182
:100F800081608083808188608083F70180818E7F8B
:100F90008083888180618883CDB7DEB7E8E00C94D8
:100FA0003734FC01CB012091CC043091CD042617BD
:100FB000370790F0009729F42091E8002E772093CE
:100FC000E80040E0009751F4411108C08091E8002A
:100FD00082FF31C080E00895C901F3CF2091C4049D
:100FE0002223A9F12530A9F12091E80023FD2DC08D
:100FF0002091E80022FDEACF2091E80020FFE2CF17
:101000003091F3002091F200009719F0283031055B
:1010100058F041E02830310509F040E02091E80027
:101020002E772093E800CECF41914093F1000197B5
:101030002F5F3F4FE9CF8091C404882341F0853072
:1010400041F08091E80083FFC1CF81E0089582E004
:10105000089583E008958091A1040895A4E0B0E08C
:10106000E4E3F8E00C941F34462F572FBC012FB750
:10107000F8948091990490919A04A0919B04B09166
:101080009C042FBF8C019D01041B150B260B370BF5
:10109000C901B8012496E4E00C943B34A4E0B0E02C
:1010A000E4E5F8E00C9421348FB7F894209199048A
:1010B00030919A0440919B0450919C0429833A8377
:1010C0004B835C838FBF69817A818B819C8124965D
:1010D000E2E00C943D349C018091BD018823C9F06D
:1010E00080919D0487FF15C0E62FE695E695E6956D
:1010F000603FE0F4E20FF32FF11D677081E090E0B4
:1011000001C0880F6A95EAF78095928189238283CE
:101110000895F9013296285F3F4F8191681303C00B
:10112000DF0111971C92E217F307B9F708959C01AC
:101130008091BD018823C1F080919D0487FF14C078
:10114000E62FE695E695E695603FF8F4E20FF32F7B
:10115000F11D677021E030E001C0220F6A95EAF7C7
:101160008281822B82830895F90132968FEF90E07D
:101170004191641751F08F3F19F4411101C0892F3B
:101180009F5F9630A9F78F3F09F40895280F311D0E
:1011900087FD3A95F90162830895A3E0B0E0E3ED9D
:1011A000F8E00C9421349C0180919604909197046E
:1011B00082179307A1F03093970420939604E0914F
:1011C0009404F0919504309751F084E089833B8337
:1011D0002A830680F781E02DCE010196099523969A
:1011E000E2E00C943D34A3E0B0E0E9EFF8E00C94C9
:1011F00021349C018091920490919304821793076B
:10120000A1F03093930420939204E0919404F09120
:101210009504309751F083E089833B832A830680CD
:10122000F781E02DCE01019609952396E2E00C941A
:101230003D34FA01309709F009950895AC013091D9
:101240008A0460918B04232F621301C00895822FBA
:1012500090E0FC01EE0FFF1FEE57FB4F0190F08175
:10126000E02DE417F50791F467E0649FF001659FB6
:10127000F00D1124E557FE4F41E044832313E6CFE0
:1012800001968370992780938A0408950196282FE8
:101290002370DACF1092170410921604EBE8F1E0F5
:1012A0008CEB91E02581211102C0148216823796C1
:1012B0008E179F07B9F7089520911B0536E0839F8D
:1012C000C0011124629F800D911D1124811522E01F
:1012D000920714F090E080E0825E9A4F9093250789
:1012E000809324070895FA01882311F00995089541
:1012F000FB01FCCF80910504982F9E7F71F48091B3
:101300000504817082608093050480910804893708
:1013100018F088E7809308040895843080F7F5CFAB
:101320008091550380FD16C081FD16C082FD16C058
:10133000809154038823A1F0883280F428E0829FB2
:10134000C001112468E270E00E945434862F672B9C
:1013500039F0089582E0089584E0089588E00895C2
:1013600081E008958091550380FD14C081FD14C073
:1013700082FD16C080915303882381F08E3180F462
:1013800020E5829FC00111246EE170E00E94543478
:10139000862F089584E1089588E2089588E00895ED
:1013A00080E50895282F35EB2303C001112497FF12
:1013B00004C080589109892F089580589F4FFBCF12
:1013C00080E00895F894E82FE295EF70F0E041A1F5
:1013D0008F7021E030E0B90102C0660F771F8A9557
:1013E000E2F7CB01962F9095942391A392A1892B9C
:1013F00082A37894089590919D0492FF10C041E0DB
:10140000282F2471243009F040E031E0282F287182
:10141000283009F030E0431711F02CE0822793FFC9
:1014200010C041E0282F2471243109F040E031E060
:10143000282F2871283109F030E0431711F02CE0F3
:10144000822730919E0430FF10C051E0282F217177
:10145000213009F050E041E0282F2871283009F0B0
:1014600040E0541711F029E0822731FF10C041E01D
:10147000282F2171213109F040E031E0282F287117
:10148000283109F030E0431711F029E0822794FD5C
:10149000877E0895803E9105C1F1C8F4813391059E
:1014A00009F47DC048F48932910509F46DC08A328F
:1014B000910509F47BC0089589339105D1F08238F4
:1014C0009105B9F08533910509F459C00895843E1A
:1014D0009105C1F138F4823E910521F1833E9105D9
:1014E00031F10895863E9105C1F1873E9105E1F104
:1014F000089520919D04237009F065C020919E04F9
:1015000023FF14C089E290E0089520919D0420FDFE
:1015100043C030919E0430FF09C024FF4EC090E0CC
:1015200080E0089520919D0422FDF7CF0895209139
:101530009D0422FD45C030919E0430FD44C024FF2F
:10154000F5CFEDCF20919E0421FFF0CF80919D0437
:1015500084FDE5CF87EE90E0089520919D0423FF60
:10156000E5CF24FDDCCFF6CF20919D0423FD2EC0D6
:1015700030919E0431FFE3CF84EE90E008952091F6
:101580009D0425FFD3CFBECF20919D0425FD21C012
:1015900020919E0423FFCACF89E390E0C7CF20911A
:1015A0009D0426FFC3CF8AE290E0089520919D0418
:1015B00026FFBCCF81E390E0089583EE90E008958C
:1015C00082EE90E0089580EE90E0089586EE90E03F
:1015D000089585E390E008957830B8F46630A8F473
:1015E0008330B0F4E62FF0E096E0799FE00DF11D36
:1015F000112490E3899FE00DF11D1124EE0FFF1FD0
:10160000EE5EFE4F85919491089580E090E00895FC
:1016100081E0FCCF1F93CF93DF930E944A0AEC0135
:101620008115924508F05FC0C11580E5D80708F024
:10163000DDC0C03ED10538F5CD3CD10508F0AEC0C7
:10164000C83AD10580F4C53AD10508F0A4C0C1302C
:10165000D10509F443C0CE010497813A9105F0F118
:10166000D0E0C0E03BC0CE01885A91094B97C0F74B
:10167000C85AD0E0CC0FDD1FC753DE4F0990D88188
:10168000C02DD4642BC0C11590E4D907F0F4C11566
:1016900020E2D20708F0C4C0C83ED105F8F0CE0160
:1016A0009A9581159F41E0F68D2F0E94FB09182F16
:1016B000CE0199270E944A0AC12FD0E0DC2FCC2707
:1016C000CC27DF71C82BD92B09C0CE0199270E94E6
:1016D0004A0ACC27DF70C82BD92BD06ACE01DF9104
:1016E000CF911F910895C03882E5D807B8F5C0366C
:1016F00092E5D90708F05BC0C03422E5D207C8F4F0
:10170000C03282E5D80708F04BC02C2F26952695CD
:1017100090E2299F900111248C2F8370C1E0D0E0CA
:1017200002C0CC0FDD1F8A95E2F7C22BD32BDD68F8
:10173000D5CF2C2F26952695277080E2289F9001E3
:1017400011248C2F8370C1E0D0E002C0CC0FDD1FCC
:101750008A95E2F7C22BD32BDC68C0CFC03C92E560
:10176000D90760F48C2F8F71C03AD245A8F5C82FE5
:10177000D0E0DC2FCC27C46FD06AB0CFCE01805C24
:101780009245809708F06CCFDC2FCC27CC27DF71F7
:10179000C06FD06AA3CFA497D064A0CFD0659ECFEE
:1017A000CF71D0E0DC2FCC27C16FD06A97CF2C2F20
:1017B00026952695277080E2289F900111248C2F72
:1017C0008370C1E0D0E002C0CC0FDD1F8A95E2F744
:1017D000C22BD32BDA6882CF0E94FB09C82FD0E03E
:1017E000DC2FCC27CC27DF71D06278CF8C2F8F7184
:1017F0000E94FB0955E0D695C7955A95E1F7CF7041
:10180000D0E0DC2FCC27282F30E084FF05C044E057
:10181000220F331F4A95E1F7C22BD32BD0695ECF3D
:101820008D2F8F710E94FB09182FCE0199270E94DE
:101830004A0AC12FD0E0DC2FCC27CC27DF71C82B80
:10184000D92BD2CF80917F02811110927F0208950F
:10185000982F909580918E04892380938E0408950B
:10186000982F909580918F04892380938F040895F9
:10187000809117059091CE04981301C008958F5F51
:101880008770FACFB0E0A0E0E8E4FCE00C941A34F2
:101890008C01E0902403F0902503809180029091C8
:1018A0008102E82AF92ACFE0D0E0CC24C394D12CDD
:1018B000BC2EC6010C2E02C0880F991F0A94E2F7B5
:1018C0008E219F21892B49F4219790F7B12C8B2DE4
:1018D000CDB7DEB7E9E00C943634B8018C2F0E9406
:1018E000EC0A0E940A0B019779F3F1CFCF93DF93B3
:1018F000D82FC92F0E94420C6D2F7C2F0E94EC0A1A
:101900000E940A0BDF91CF910895983078F58630C8
:1019100068F5E82FF0E086E0989FE00DF11D1124B6
:101920009E2F977083E0F695E7958A95E1F7EE0F85
:10193000FF1FEE0FFF1FE35CFD4F50E040E080E033
:10194000219130E0092E02C0369527950A94E2F7DE
:1019500021703327042E01C0220F0A94EAF7822B4C
:101960004F5F5F4F4430510559F7089580E0089567
:10197000983098F5863088F5E82FF0E086E0989F5B
:10198000E00DF11D11248E2F877041E001C0440F3E
:101990008A95EAF783E0F695E7958A95E1F7EE0FE9
:1019A000FF1FEE0FFF1FE35CFD4F30E020E070E013
:1019B0005191DF011197CB01022E02C096958795B8
:1019C0000A94E2F7817081958527842385278C937B
:1019D0002F5F3F4F2430310559F708959093250329
:1019E00080932403089521E030E002C0220F331FCA
:1019F0008A95E2F7209530958091240390912503F4
:101A0000822393230E94EE0C089590915E028095AC
:101A1000892380935E02282F277069F4891759F073
:101A200090919E0492FF07C08695869586950E94A8
:101A3000F30C10925E02089521E030E002C0220F04
:101A4000331F8A95E2F78091240390912503822B1E
:101A5000932B0E94EE0C0895909381028093800254
:101A60000895FC0184818823B1F0878190850097D7
:101A7000A1F00E940A0B282F92959F709630B9F022
:101A800088F4925F9F70923030F481E0203FA9F09B
:101A900058F4283E58F080E009C0808191810E946E
:101AA000760CE9CF9A5FEECF243FA9F7089581E045
:101AB000283E20F0213F79F7F9CF08950895A6E058
:101AC000B0E0E5E6FDE00C9420349C01FC01878148
:101AD00090850097E1F486E0DE01119601900D9269
:101AE0008A95E1F7F901258189819A81222399F06C
:101AF000662389F00E94420C182F682F89819A81F1
:101B00000E94B80C69817A81812F0E94EC0A269686
:101B1000E3E00C943C340E94850C182FF3CF9C0119
:101B20009A9581159F4150F5D901AA27B170F90105
:101B3000EE27F270B90166277470A9014427587026
:101B400034FF0EC080E1AB2B09F480E0EF2B09F0ED
:101B50008062672B09F08064452B89F080680895C6
:101B600081E0AB2B09F480E0EF2B09F08260672B5A
:101B700009F08460452B19F08860089580E008958D
:101B8000CF93DF93682F81E06A3019F06D3031F424
:101B900080E00E94400EDF91CF910895809124074C
:101BA0009091250726E0FC01AEE1B7E001900D928F
:101BB0002A95E1F7603E08F458C026E0FC01119236
:101BC0002A95E9F7C0912407D091250746E050E017
:101BD000BE018EE197E00E9410359E012E513540E6
:101BE000892B41F1C90145E0969587954A95E1F722
:101BF00041E050E0BA0102C0660F771F8A95E2F714
:101C0000CB0160911C0570911D05862B972BB901A6
:101C10006B5F7F4FE5E076956795EA95E1F702C047
:101C2000440F551F6A95E2F7842B952B90931D0561
:101C300080931C052A5F3F4F40911B05642F70E085
:101C4000C9010E94FD33481B463010F4240F311D9A
:101C5000211572E0370710F030E020E0225E3A4FA5
:101C6000309325072093240796CFF6E06F9FB001AD
:101C700011246B5F784F46E050E00E940735A2CFF9
:101C8000CF93382FE0912407F0912507EE51F540CE
:101C900020911B05622F70E0CF010E94FD33281BAD
:101CA000822F332361F066E00E944834C82FC15070
:101CB00010F4CF91089580E20E94C00DF8CF9F01EB
:101CC000280F311D2115324018F080E0F0E0E0E0EF
:101CD0008E0F9F2F911D825E9A4F909325078093C0
:101CE0002407E7CF80918F0490918E04892B8093F5
:101CF000180290917F029923A1F0892B80931802FA
:101D00008091BD018823E1F180919D0487FF38C057
:101D10008EE1EAE1F2E090E08150A0F591110E949D
:101D2000220C40E250E06FE572E088E192E00E9410
:101D30001035892B21F180E2E8E1F2E0AFE5B2E075
:101D400001900D928A95E1F7E0919404F091950449
:101D50003097A9F08091BD01882359F080919D04AE
:101D600087FF07C0809118028093190286E0809354
:101D700018020280F381E02D88E192E00995089530
:101D800086E0C7CF2191222339F29F5FC5CFCF9341
:101D9000DF93EC014A855B856E857F850E9419097A
:101DA0008B810E94280C8C810E94300C0E94720E44
:101DB00086E0FE0111928A95E9F7DF91CF910895AF
:101DC000CF93DF93EC018D8181FD17C082608D83FD
:101DD00080918E049B81892B80938E0480918F0447
:101DE0009C81892B80938F040E94720E48855985AF
:101DF0006E857F85CE010E94190910929104109280
:101E000090048D8180FD03C0CE010E94C70EDF913A
:101E1000CF910895882321F00E94280C0E94720E11
:101E2000089580911504882329F082E20E940A0F08
:101E3000109215040895882339F090918E04892B0F
:101E400080938E040E94720E0895882321F00E94D0
:101E5000300C0E94720E0895882339F090918F04FF
:101E6000892B80938F040E94720E08950F931F9305
:101E7000CF93DF93EC01FC0101900020E9F78F0183
:101E800001501109C017D10728F0DF91CF911F91A0
:101E90000F91089589910E94C00DF4CF0F931F9365
:101EA000CF93DF938B01EA019091C404943061F5E4
:101EB0008093E9008FEF9091E800815095FD06C076
:101EC00095ED9A95F1F700008111F5CF8091E8002A
:101ED00085FF1AC00E94F406811111C08091E800AC
:101EE00085FD06C08091E8008E778093E800F2CFF0
:101EF000F80181918F018093F100219779F780910A
:101F0000E8008E778093E800DF91CF911F910F91C9
:101F10000895BC0143E050E082E00E944E0F089516
:101F2000BC0146E050E082E00E944E0F0895CF933E
:101F3000DF93D82FC92F8091BD01811113C048E0D4
:101F400050E06D2F792F81E00E944E0F80E2ED2F3F
:101F5000FC2FA2EAB4E001900D928A95E1F7DF919F
:101F6000CF91089580919D0487FF06C040E282E0F2
:101F700050E06D2F7C2FE8CF48E081E0F9CF81E081
:101F80008093E00080E28093D8001092C9008FE136
:101F90009EE40197F1F700C0000087E090EBDC01C0
:101FA0008093260790932707A0932807B0932907CB
:101FB00088E19CE00FB6F894A895809360000FBE6E
:101FC00090936000FFCF609187018091050480FFAE
:101FD00020C08091860143E0849FC00111248D5967
:101FE0009C4F539A2BB1277F3BB138605FB7F89471
:101FF000FC01649FE00DF11D1124BF0168177907F2
:10200000D1F45FBF8FE594E00197F1F700C00000C5
:102010000895809188019091890123E0829FF001C9
:102020001124ED59FC4F8917A0F6118210821282FB
:102030008F5F3396F8CFFC014191CF01E8E03BB9C7
:10204000000000C047FF2BB9440F000000C000C0D3
:1020500000C02BB900C0EA9591F7D0CFB0E0A0E066
:10206000E4E3F0E10C941934F82EE92ED62EC72EB5
:102070008A018091B802AA24A394B12C8A3018F462
:102080008AE0A82EB12CC1E0D0E06D2D7C2D8F2DE3
:102090009E2DF8010995811104C02196AC16BD064C
:1020A0002CF4CDB7DEB7EAE00C943534CC9F900128
:1020B000CD9F300D300D112490E080E045E34A952E
:1020C000F1F70000019682179307C1F7DECF8091E8
:1020D0008E02811110C08091D80080618093D80059
:1020E0008AE18A95F1F700C08091D90080FF0AC08B
:1020F00081E080938E0281E090918E02913009F010
:1021000080E0089582E080938E020E94D5061092AE
:10211000C404F1CF0E946710882359F0E091940421
:10212000F0919504309729F00190F081E02D099508
:10213000089580E00895A4E0B0E0E1EAF0E10C94B5
:1021400021340E946710882371F00E944E08698331
:102150007A838B839C8369817A818B819C8124968D
:10216000E2E00C943D340E944E0869837A838B83AD
:102170009C838091B9029091BA02A091BB02B09168
:10218000BC0229813A814B815C81280F391F4A1F8B
:102190005B1F29833A834B835C83DDCFB0E0A0E0F3
:1021A000E4EDF0E10C941B346C017B0164E670E01B
:1021B00088E70E944A31EC018601EC0CFD1CD7FD3A
:1021C0000CC0F801849164E670E00E94BA31EC0121
:1021D0000F5F1F4F0E151F0591F70E943C3281E0E3
:1021E000CD2B09F080E0CDB7DEB7E8E00C943734B2
:1021F0008091110490911204911103C091E08927FC
:102200000895882369F062E070E086ED94E00E9412
:10221000CE10811103C08091110408951092110411
:1022200080911104EBCFA5E0B0E0E9E1F1E10C947D
:102230002134809111048D83809112048823F1F060
:102240000E944E08DC01CB0180549B42AE4FBF4F31
:1022500080930D0490930E04A0930F04B093100488
:102260008D81811108C062E070E084ED94E00E94ED
:10227000CE10811108C0809111048D838D81259627
:10228000E2E00C943D3481E080931104F4CFB0E09F
:10229000A0E0EDE4F1E10C94173449015A018B01FF
:1022A000D82FC92F0E947A0964017501A401B501D4
:1022B00088E090E00E945C359401A501B8018D2F63
:1022C0009C2F00E20E94DD34622F84E290E00E94A5
:1022D0004A35CDB7DEB7ECE00C943334B0E0A0E083
:1022E000E4E7F1E10C941734182FC62FD42F922E67
:1022F0000091050400FF50C080910604811308C0BE
:1023000080910704861304C080910804841729F083
:1023100080916203826080936203E02FE695F0E093
:10232000ED5EFD4F808180936003802F8E7F823031
:10233000E9F4ED2FD93708F0E8E7F0E0EC52FC4F74
:10234000C1112FC0F4918F2EEF2F00FF0FC080918D
:1023500088019091890123E0829FD0011124AD5919
:10236000BC4F891708F48FC00E94E30F1093060436
:10237000C0930704D0930804992071F020910504BC
:102380006091090470910A04312FAE0180910B0411
:1023900090910C040E944711CDB7DEB7ECE00C948D
:1023A0003334EC2EF12CE49126E0129F60011124CD
:1023B0002FEF30E0C601B9010E94FD33812F90E07C
:1023C000880F991FF5E5F69FA001F79F500D112486
:1023D000841B950BB82EBB0CB80EA9014E195F09D2
:1023E000E49FC001E59F900D1124F92FCB9DA00122
:1023F0001124452F5527D901A41BB50BEA9FA00135
:10240000EB9F500D1124852ED901AB19B1095D0147
:10241000AE9CD001AF9CB00DBE9CB00D1124AB2F73
:10242000BB272A1B3B0BE29FD001E39FB00D112479
:1024300063307105D1F02CEFC21623E0D20670F4A0
:1024400061307105B1F062307105B9F02FEFC2163D
:10245000D10408F07ACF892EFB2F77CF6430710535
:1024600079F066307105B9F370CFF52F8E2EE92F14
:102470006CCFFE2FE52F892E68CF8B2EFE2FF7CF46
:102480008E2EEB2F62CF1196EC931197FC93129640
:102490008C9212978F5F139664CFE5E0F4E043814E
:1024A00021E1421B08F440E021E0628181810E9429
:1024B0006E110895E5E0F4E0438121E1420F08F454
:1024C0004FEF21E0628181810E946E110895E5E065
:1024D000F4E0628121E1621B08F460E021E04381C5
:1024E00081810E946E110895E5E0F4E0628121E1AE
:1024F000620F08F46FEF21E0438181810E946E1129
:102500000895E5E0F4E0818121E043816281885013
:102510000E946E110895E5E0F4E0818121E043819D
:102520006281885F0E946E1108958091090488235A
:1025300019F081508093090420910504309106041C
:1025400040910704509108046091090470910A04B5
:1025500080910B0490910C040E9447110895809182
:102560000904833018F48F5F8093090420910504D7
:1025700030910604409107045091080460910904C9
:1025800070910A0480910B0490910C040E944711F1
:1025900008952091050420FF24C02170226020931B
:1025A000050480916203816080936203662381F059
:1025B0003091060440910704509108046091090489
:1025C00070910A0480910B0490910C040E944711B1
:1025D00020E04091080460910704809106040E9465
:1025E0006E1108959091050496958FEF890F9130A3
:1025F00009F481E061E00E94C912089561E081E080
:102600000E94C9120895E5E0F4E083E0808311821E
:102610008FEF828388E783831482A0E6B3E012966B
:102620008C911297836012968C93758123E030E031
:102630004FEF58E760E0868197810E944711089527
:1026400090919E0492FB222720F9281779F080FBB5
:1026500092F990939E0460919D0470919E0484E091
:1026600090E00E94683582E00E94050D0895A6E082
:10267000B0E0EDE3F3E10C9419348D837B01A42EDB
:10268000B22E3E836801DB018D919D910D90BC912E
:10269000A02DBC01CD010E942E0869837A838B8313
:1026A0009C83643671058105910510F4AA2061F1BF
:1026B000BD810B2F0B2E000C110B88E0B802F0012E
:1026C0001124E45FFE4F8181928189569D4F4081A4
:1026D00050E0C416D50608F4A6016B2D7E810E9439
:1026E0001D35C8010E9487338983882341F00E94E9
:1026F0004E08D7016D937D938D939C931397898199
:102700002696EAE00C943534B1E0B983F8CFA1E025
:10271000B0E0EDE8F3E10C941F348091210389834C
:1027200041E09091AB02981301C040E001E010E05D
:102730009E012F5F3F4F64EB72E084E00E943713ED
:102740002196E4E00C943B34ABE0B0E0EAEAF3E13C
:102750000C941F3488E0E5E0F4E0DE01119601906E
:102760000D928A95E1F78091600390916103A091A9
:10277000620389879A87AB8741E08B85811101C00D
:1027800040E00BE010E09E012F5F3F4F60EB72E0F6
:1027900083E00E9437138111109262032B96E4E0CC
:1027A0000C943B34A8E0B0E0E8EDF3E10C94203465
:1027B0008091AC029091AD02A091AE02B091AF02B7
:1027C000BC01CD010E942E0811E06436710581051F
:1027D000910578F10E949B10DC01CB010296A11DAE
:1027E000B11D89839A83AB83BC8380911D01909135
:1027F0001E0189569D4F20911C01422F50E025302B
:1028000010F044E050E0BE016F5F7F4F0E941D3525
:1028100082E090E00E948733182F882351F00E94B5
:102820004E086093AC027093AD028093AE02909319
:10283000AF02812F2896E3E00C943C34EF92FF9294
:102840001F93CF93DF93CDB7DEB729970FB6F894D8
:10285000DEBF0FBECDBF7B0190E080E00E948733DA
:10286000182F882309F47DC080910F01482F50E074
:10287000882311F041E050E0609110017091110146
:1028800069567D4FCE0105960E941D3580919302B9
:1028900090919402A0919502B0919602BC01CD0155
:1028A0000E942E08643671058105910540F488E97F
:1028B00092E00E94BE069D81891709F452C081E012
:1028C00090E00E94873381111BC010E080918F023D
:1028D00090919002A0919102B0919202F7018083B1
:1028E0009183A283B383812F29960FB6F894DEBF1C
:1028F0000FBECDBFDF91CF911F91FF90EF90089554
:1029000080911701482F50E0853010F044E050E0EE
:10291000609118017091190169567D4FCE010196A1
:102920000E941D3588E992E00E94BE069D818913B0
:10293000CCCF0E944E0860939302709394028093D0
:1029400095029093960289819A81AB81BC81809394
:102950008F0290939002A0939102B093920211E0A3
:10296000B5CF8091980290919902A0919A02B0916E
:102970009B0289839A83AB83BC831111E4CFA6CFDA
:10298000A8E0B0E0E6ECF4E10C94213466EE7EEFD2
:1029900090E080E00E94683560E082E090E00E9474
:1029A0004A3560E083E090E00E944A35109281024F
:1029B0001092800260E074E184E090E00E9468354B
:1029C00060E086E090E00E944A356FEF87E090E09B
:1029D0000E944A3540E050E0BA0188E090E00E9451
:1029E0005C3560E084E290E00E944A3560E087E177
:1029F00090E00E944A3560E08CE090E00E944A3509
:102A000060E08DE090E00E944A3519821A821B82B4
:102A10001C821D821E821F82188648E050E068E1F9
:102A200070E0CE0101960E943A3540E050E0BA01D4
:102A300080E290E00E945C3540E050E0BA018FE017
:102A400090E00E945C3540E050E0BA0183E190E004
:102A50000E945C352896E2E00C943D341F920F9260
:102A60000FB60F9211242F933F934F935F936F9361
:102A70007F938F939F93AF93BF93EF93FF93809137
:102A8000E10082FF09C08091E20082FF05C08091D1
:102A9000E1008B7F8093E1008091DA0080FF24C009
:102AA0008091D80080FF20C08091DA008E7F8093D3
:102AB000DA008091D90080FF9BC080E189BD82E16E
:102AC00089BD09B400FEFDCF81E08093C4048091EC
:102AD0009F04811109C00E94D5060E94760780914B
:102AE000E20084608093E2008091E10080FF17C0E3
:102AF0008091E20080FF13C08091E2008E7F80937E
:102B0000E2008091E20080618093E2008091D80031
:102B100080628093D80019BC85E08093C4048091C2
:102B2000E10084FF29C08091E20084FF25C080E19C
:102B300089BD82E189BD09B400FEFDCF8091D80036
:102B40008F7D8093D8008091E1008F7E8093E1009B
:102B50008091E2008F7E8093E2008091E2008160AC
:102B60008093E2008091C504882309F447C084E083
:102B70008093C4048091C4048091E10083FF27C046
:102B80008091E20083FF23C08091E100877F8093E2
:102B9000E10082E08093C4041092C5048091E100BA
:102BA0008E7F8093E1008091E2008E7F8093E2002F
:102BB0008091E20080618093E20042E060E080E08A
:102BC0000E9444078091F00088608093F000FF919C
:102BD000EF91BF91AF919F918F917F916F915F9195
:102BE0004F913F912F910F900FBE0F901F9018950E
:102BF00019BC1092C40410929F0476CF8091E30018
:102C000087FD02C081E0B4CF83E0B2CF78941F92F9
:102C10001FB61F9211248F939F93AF93BF93809100
:102C2000990490919A04A0919B04B0919C04019600
:102C3000A11DB11D8093990490939A04A0939B04C5
:102C4000B0939C04BF91AF919F918F911F901FBE35
:102C50001F9018959C014FB7F8948091990490911A
:102C60009A04A0919B04B0919C044FBF821B930BCC
:102C700008952FB7F8948091990490919A04A091A7
:102C80009B04B0919C042FBF08958091150481117D
:102C90000FC010928F040E94220C0E943916885790
:102CA0009C4E909314048093130481E08093150448
:102CB00008950E94391620915C0330915D03232B07
:102CC00021F0809358039093590320915E03309133
:102CD0005F03232B21F08093560390935703E091D9
:102CE0009404F0919504309749F082E080935A0360
:102CF0000480F581E02D8AE593E00995089510920E
:102D00008F048091BD01EAE1F2E0882329F18091EE
:102D10009D0487FF21C08EE1DF011D928A95E9F7AE
:102D200090E080E00E94F30890E080E00E94CD08EF
:102D300010928E040E94720E86E0EAE5F3E0DF0155
:102D40001D928A95E9F71092530310925403109242
:102D500055030E945916089586E0DECFAAE2B0E03E
:102D6000E4EBF6E10C94203486EC94E0FC0101964F
:102D70002091F100208324E08E3C9207B9F78091E6
:102D8000C704893009F456C0C8F4823009F4B2C0CF
:102D9000833009F481C0813071F18091E80083FFB4
:102DA0007CC28091C6049091C7049A3008F075C225
:102DB000E92FF0E0E058FA4C0C94A9348A3009F479
:102DC00088C08B3051F78091C604813231F78091F1
:102DD000CA049091CB04892B01F78091E800877F8A
:102DE0008093E8000E9425078091C8048093BD016C
:102DF0000E947F16D2CF8091C604813A71F68091ED
:102E0000E800877F8093E8008091CA049091CB040A
:102E1000892B61F460E282EA94E070E00E94D107BD
:102E20008091E8008B778093E800B7CF60E090E076
:102E300080E0F3CF8091C604813209F0AECF80915B
:102E4000CA049091CB04029708F0A7CF8091E800C4
:102E5000877F8093E8008091E80082FF18C09091FE
:102E6000F3008091F200029731F48091F1008130FB
:102E700011F0863021F48091F1008093A1048091BB
:102E8000E8008B778093E8000E94250786CF809129
:102E9000C4048111E0CF81CF8091C604813A09F04A
:102EA0007CCF8091CA049091CB04892B09F075CF17
:102EB0008091E800877F8093E8008091E80080FFA0
:102EC000FCCF8091BD018093F1008091E8008E7766
:102ED000D9CF8091C604813209F05FCF8091E8009C
:102EE000877F8093E8000E9425078091C904809322
:102EF000A00453CF8091C604813A09F04ECF80914F
:102F0000E800877F8093E8008091E80080FFFCCF95
:102F10008091A004D8CF803899F0823809F0BDC1E3
:102F20008091CA048F70873008F0B7C18093E900A0
:102F30008091EB0085FB882780F91092E90006C09C
:102F40008091C2049091C304911182609091E80035
:102F5000977F9093E8008093F1001092F1008091A8
:102F6000E8008E7796C1882309F484C1823009F085
:102F700094C18091C804811187C18091CA048F7067
:102F80002FEF280F263008F088C18093E9002091A8
:102F9000EB0020FF79C1933031F48091EB00806227
:102FA0008093EB0071C19091EB0090619093EB00E6
:102FB00021E030E001C0220F8A95EAF72093EA0071
:102FC0001092EA008091EB008860EACF811165C120
:102FD0001091C8041F778091E3008078812B809343
:102FE000E3008091E800877F8093E8000E94250736
:102FF0008091E80080FFFCCF8091E300806880939F
:10300000E30082E0111183E08093C40446C180583C
:10301000823008F042C14091C8045091C9044C3D2F
:1030200083E05807A1F583E08A838AE289834FB75A
:10303000F894DE01139620E03EE051E2E32FF0E049
:1030400050935700E49120FF03C0E295EF703F5F7B
:10305000EF708E2F90E0EA30C0F0C7968D939D936D
:103060002F5F243159F74FBF8091E800877F80930D
:10307000E8006AE270E0CE0101960E94D1078091DB
:10308000E8008B778093E80008C1C096E7CF2091D5
:10309000CA043091CB04852F99278330910509F11B
:1030A00060F48130910509F472C0029709F0F5C00F
:1030B0008BE390E0E4EEF5E029C08132910509F45C
:1030C0005AC0829709F0E9C02115310509F469C099
:1030D0002130310509F0E1C086EB90E0EAEEF4E042
:1030E00015C0CA0199274130B1F18230910509F428
:1030F0003AC0892B09F0D1C0E1E5F6E0E4918E2FCA
:1031000090E0E1E5F6E0009709F4C7C02091E800FF
:10311000277F2093E8002091CC043091CD048217C2
:10312000930708F49C0140E02115310509F03EC0E9
:1031300041113CC08091E80082FDA1CF8091C40480
:10314000882309F49CCF853009F499CF8091E80059
:1031500083FFF0CF94CFEFE3F6E0E4918E2F90E081
:10316000EFE3F6E0D0CFE1E3F6E0E4918E2F90E0DC
:10317000E1E3F6E0C8CF2115310571F021303105CA
:1031800009F08BC089E090E0EFE0F6E0BFCF82E18C
:1031900090E0EFE1F6E0BACF89E090E0E6EFF5E00D
:1031A000B5CF84E490E0E0EAF5E0B0CF8091C404CC
:1031B000882309F464CF853009F461CF8091E80059
:1031C00083FD5DCF8091E80082FDB4CF8091E8005F
:1031D00080FFAACF9091F3008091F2002115310574
:1031E00019F08830910550F041E0089709F040E06F
:1031F0008091E8008E778093E80096CF44914093C9
:10320000F1003196215031090196E8CF803809F05C
:1032100044C08091E800877F8093E8008091C504D6
:103220008093F1009CCE811138C01091C8041230F7
:10323000A0F58091E800877F8093E8001093C50493
:103240000E942507112311F084E005C08091E3005E
:1032500087FDFACF81E08093C40442E061EC81E015
:103260000E94440742E261EC82E00E9444078091A0
:10327000C40413C08091C804813079F481E0933094
:1032800009F080E08093C3041092E9008091E80087
:10329000877F8093E8000E9425078091E80083FFE4
:1032A0000AC08091E800877F8093E8008091EB005E
:1032B00080628093EB00AA96E3E00C943C341F926A
:1032C0000F920FB60F9211242F933F934F935F935A
:1032D0006F937F938F939F93AF93BF93CF93DF931E
:1032E000EF93FF93D091E900DF708091EC00C82F3D
:1032F000C17080FDC0E81092E9008091F000877FE6
:103300008093F00078940E94AE161092E9008091AC
:10331000F00088608093F000CD2BCF70C093E9005F
:10332000FF91EF91DF91CF91BF91AF919F918F91DD
:103330007F916F915F914F913F912F910F900FBEB1
:103340000F901F9018950E947F162FEF84E39CE04A
:10335000215080409040E1F700C0000088E19CE0EF
:103360000FB6F894A895809360000FBE909360000C
:10337000FFCF662309F45DC08D3C41F40E94B20981
:10338000819580935D030E94591608958E3C19F42F
:103390000E94B209F6CF8F3C31F40E94B2098195A8
:1033A00080935C03F0CF803D19F40E94B209F8CFFE
:1033B000893D29F40E94900980935E03E4CF8A3D01
:1033C00021F40E9490098195F7CF8B3D31F40E9442
:1033D0009009819580935F03D6CF8C3D19F40E94AC
:1033E0009009F8CF9FE2980F983070F4815D990BA7
:1033F00021E030E001C0220F8A95EAF780915B035B
:10340000822B80935B03BFCF8D3D31F480915503B8
:10341000816080935503B7CF8E3D21F48091550391
:103420008260F7CF8F3D09F0AECF80915503846065
:10343000F0CF40915C038D3C59F480915D0387FF90
:103440000DC010925D0341110BC01092530308C0D0
:103450008E3C81F480915D0318169CF3442381F027
:1034600080915E0390915F03892B09F08CCF1092BD
:10347000540389CF8F3C49F447FFF0CF10925C038F
:1034800080915D038111ECCFE0CF803D19F41416DB
:10349000ACF3E4CF90915E03893D29F41916F4F65C
:1034A00010925E03DBCF8A3D19F497FFD7CFF8CF98
:1034B00090915F038B3D29F497FFD0CF10925F036B
:1034C000CDCF8C3D19F41916CCF3C8CF9FE2980FDD
:1034D000983090F4815D990B21E030E0B90102C091
:1034E000660F771F8A95E2F7CB01809590915B0379
:1034F000892380935B03B2CF8D3D31F480915503D6
:103500008E7F80935503AACF8E3D21F48091550381
:103510008D7FF7CF8F3D09F0A1CF809155038B7F31
:10352000F0CF882399F19CEF980F913A40F4682FDF
:1035300088E192E00E946B080E94720E089590E26A
:10354000980F983050F4877091E001C0990F8A95D8
:10355000EAF7892F0E94300CEFCF9BE5980F93304C
:1035600028F490E080E00E94F308089598E5980F11
:103570009B3128F490E080E00E94CD08089593E309
:10358000980F933118F460E00E94B9190895CF9311
:10359000DF93EC010E94911ACE010E948F0D9E01D3
:1035A000205E31092830310510F0CD2B29F40E941E
:1035B000250FDF91CF9108950E940A0FFACFFB01EA
:1035C000DC0112968C91813029F4808191810E94D6
:1035D000C71A08958230E9F782819381F8CFCF939B
:1035E000C82F8823D1F18CEF8C0F813AC0F58091E0
:1035F000BD01882311F180919D0487FF1EC0EC2F2F
:10360000E695E695E695F0E0E85EFD4F828190E074
:103610004C2F477021E030E002C0220F331F4A9543
:10362000E2F782239323892B89F06C2F88E192E0C3
:103630000E946B080E94720E09C0EAE1F2E08191DB
:10364000C81799F322E0E032F207C9F76C2F88E13E
:1036500092E00E9497080E94720ECF91089580E236
:103660008C0F883068F4C77021E030E001C0220F71
:10367000CA95EAF780918F04822B80938F04EBCF59
:103680008BE58C0F833038F42C2F2452330BC90177
:103690000E94F308E2CFE8E5EC0FEB3150F4F0E0E4
:1036A000EE0FFF1FE753FE4F808191810E94CD08EE
:1036B000D4CF83E38C0F833180F661E08C2F0E949E
:1036C000B919CBCF0F931F93CF93C82F10E000E011
:1036D000893311F400E510E08C2F0E94EF1A0115D8
:1036E000110539F48C2F0E94911ACF911F910F91DF
:1036F00008958FE99FE00197F1F700C000000150A5
:103700001109EDCFB0E0A0E0E8E8FBE10C9419343A
:10371000EC018AE0A82EFE012491222309F497C02F
:10372000213009F03EC031968491813031F42296E7
:10373000FE0184910E94621B07C0823039F42296F8
:10374000FE0184910E94EF1A2196E5CF833031F477
:103750002296FE0184910E94911AF6CF843009F0DE
:1037600074C02296FE01249190E080E0FE01319623
:103770002053330B2A30310548F0019728F3EFE945
:10378000FFE03197F1F700C00000F7CFA89EA0013D
:10379000A99E500D1124C901840F951F2491EF019A
:1037A000E5CFE22FF0E0EB57F94FB490822F8695EA
:1037B0008695869590E0FC01EB58F94FE4902770D0
:1037C000F12C022E02C0F594E7940A94E2F731E05E
:1037D000E322FF24FC01EB59F94FC490D12C022EB7
:1037E00002C0D594C7940A94E2F7E1E0CE22DD242A
:1037F000FC01EB5AF94F049110E002C015950795B2
:103800002A95E2F701701127E114F10419F081EE15
:103810000E94EF1AC114D10419F086EE0E94EF1A2B
:103820008B2D0E94621BC114D10419F086EE0E94F8
:10383000911AE114F10419F081EE0E94911A011518
:10384000110509F481CF8CE275CFEF017DCFCDB7A3
:10385000DEB7EAE00C943534FF920F931F93CF93B9
:10386000DF93C62FD42F122FFC0185818823A9F066
:1038700060931A050E9439169093190580931805D4
:10388000C77081E001C0880FCA95EAF70E942C0F2B
:10389000CDB7DEB7E5E00C943A3480911A05681391
:1038A00030C080911805909119050E942A16883C15
:1038B000910538F500E20D0FCD17A9F0C770FF2470
:1038C000F3948F2D01C0880FCA95EAF70E94250F47
:1038D000083048F48D2F877001C0FF0C8A95EAF7F5
:1038E0008F2D0E942C0F812F0E94621B083080F6C2
:1038F000D77081E001C0880FDA95EAF70E94250FA2
:10390000C7CFC77081E001C0880FCA95EAF7F6CF2C
:10391000CF93DF93EC010E948F0D9E01205E310951
:103920002830310510F0209741F40E942C0F8C2F85
:103930000E94EF1ADF91CF9108950E941B0FF7CFDD
:10394000FB01808191810E94881C0895CF93DF93B1
:10395000EC01FB018A81823039F4828193810E94DB
:10396000881C8D8182608D83DF91CF9108950F93A4
:103970001F93CF93DF938C01EB010E94881C20974B
:1039800041F4C8010E94C71ADF91CF911F910F9196
:1039900008958FE99FE00197F1F700C0000021979B
:1039A000EECFCF93DF93EC018A818230A1F0833098
:1039B000B9F0813069F488E00E94EF1A88E00E9433
:1039C000911A1092910410929004CE010E94C70E99
:1039D000DF91CF91089588E30E94EF1A88E3EFCF3B
:1039E00084E30E94EF1A84E3EACFA7E1B0E0EBEFB3
:1039F000FCE10C9417341D861C86FE013E9686E081
:103A0000DF011D928A95E9F781E0E82E82E0F82E29
:103A100010E000E0CC24C394D12C2BE0A22E22E0B5
:103A2000B22EF70181917F018F3F09F445C0F894D0
:103A3000E82FE295EF70F0E021A18F70A60102C09F
:103A4000440F551F8A95E2F7CA01922F982B91A334
:103A500092A18095892382A3789400C0E5E0F2E0EA
:103A600031E0912C21912F3F09F470C0A22FA29533
:103A7000AF70B0E090968C9190E02F7002C0959559
:103A800087952A95E2F780FD61C0832F982A330F2E
:103A9000AE16BF0639F7F701319780818F3F11F0DD
:103AA0000E94E20950EA5A95F1F7ECE0F0E0EC0FE1
:103AB000FD1FE00FF11F90820F5F1F4F04301105B3
:103AC00009F0AFCF48E050E0BE01645F7F4F8DEB5F
:103AD00092E00E9410359C01892B49F088E0FE019C
:103AE0003C96ADEBB2E001900D928A95E1F7009122
:103AF000C602232B69F181E0809386020E94391669
:103B00009093850280938402809184029091850233
:103B10000E942A16059700F110E008531D4F44E05B
:103B200050E06DEB72E0C8010E941035E12C892B4A
:103B300051F084E0EDEBF2E0D80101900D928A950E
:103B4000E1F7EE24E3941092860207C080E09ECF56
:103B5000809186028111D8CFE12C0E946710F82E47
:103B6000E091C602882309F489C01A8219821C8256
:103B70001B820E2F10E008531D4F8091B8028A302F
:103B800008F046C04EE154E1BE016F5F7F4FC801AF
:103B90000E942E10882309F460C042ED53E1BE015B
:103BA0006F5F7F4FC8010E942E10882309F455C013
:103BB00044EA53E1BE016F5F7F4FC8010E942E109F
:103BC000882309F44AC047E853E1BE016F5F7F4F85
:103BD000C8010E942E10882309F43FC01092B80239
:103BE0008091C50290E044E050E0BE016F5F7F4FDE
:103BF00088539D4F0E94103521E020938D02892B20
:103C0000F1F4F12C8F2D8E296796ECE00C9433346F
:103C100080918702909188020E942A16843F9140E9
:103C200008F0B0CF80918D02882359F384E0FE0123
:103C30003196DF011D928A95E9F710928D02E0918D
:103C4000C502F0E0E853FD4F89819A81AB81BC81C8
:103C500080839183A283B383D5CF8091B8028F3FB5
:103C600031F08F5F8093B8028A3008F4B9CF0E9498
:103C700039169093880280938702D4CFF0E0E853FE
:103C8000FD4F80819181A281B381809398029093AE
:103C90009902A0939A02B0939B0288E992E00E9455
:103CA000BE068093970280909C0290909D02A09007
:103CB0009E02B0909F028091890290918A02A09109
:103CC0008B02B0918C0288169906AA06BB06D1F029
:103CD0008092890290928A02A0928B02B0928C020A
:103CE0000E94671081110EC00E944E08861A970A22
:103CF000A80AB90A8092B9029092BA02A092BB02B5
:103D0000B092BC028BE0E0EAF2E0DE011196019095
:103D10000D928A95E1F78091A00286950091A1020B
:103D2000D090A202C090A3021091AA021092AA02FF
:103D30001123D1F010FF10C029812170982F990F05
:103D4000292B29839091050420FF13C09160909343
:103D5000050460E00E94C91211FF06C020E04C2D4E
:103D60006D2D802F0E946E118091AB0280932103F4
:103D700049CF9E7F90930504809162038160809378
:103D800062030E94E30FE8CFB0E0A0E0EAECFEE1BE
:103D90000C9419348C01DC0114968C91882309F45D
:103DA000A4C061E0C8010E945F0DEC01F8018581AB
:103DB000882319F180919004909191040097E9F083
:103DC000C817D907D1F0992764E0880F991F6A9521
:103DD000E1F7FC01EE5BFE4F208124602083835CD1
:103DE0009E4FDC01CD93DC930E94E00E10928E0476
:103DF00061E0C8010E945F0DEC01F8014581442398
:103E000009F46AC59E013A95CE0199272115FFE470
:103E10003F0738F090E080E0CF3FD10509F008F48B
:103E2000CE01BC01645071096432710518F08B97A2
:103E30000E9780F4E091E102F0E0EE0FFF1FEA51EF
:103E4000FD4F808191818F3F5FE7950719F00196C3
:103E500091838083F80181818093290380818093FD
:103E6000280380E280937E01D0932703C09326032A
:103E7000CE0190528115904268F0CE019054811588
:103E80009041C0F5F8018681807F51F421153F41B2
:103E9000C8F506C0D80116968C91807F09F421C51B
:103EA000FE01FF27ED33F10528F4EA52FF4FE491BC
:103EB000E0937E01C337BCE7DB0709F012C58091B0
:103EC0001504882309F10E94110F80915E0287700A
:103ED00061F0D80115968C91882339F080919E0469
:103EE00082FF03C082E00E94050DCDB7DEB7EAE095
:103EF0000C94353421153F4198F2CE01805A9245F9
:103F00008097C0F2FE01CECF0E944516DECF109200
:103F10003A0214C5E0908F04F0907F020E94391697
:103F200088579C4E9093140480931304D8011596DF
:103F30008C91882309F402C58F2D8E298D7909F083
:103F400068C0C115B0E5DB0760F5C115E0E4DE0728
:103F500008F062C0C63ED10509F4F0C4CE0190520B
:103F60008115904268F5D80116968C91807F09F4EE
:103F700041C0CE01992710928E048D32910569F0CF
:103F800008F056C08832910508F04DC08E31910579
:103F900008F04BC004974A97E0F582E080938E04C6
:103FA00044C0C43BB2E5DB0709F4C8C498F4C0348C
:103FB000F2E5DF0738F4C11522E5D20708F0BEC4E8
:103FC000CE01D9CFCE01805692458034910508F4B8
:103FD000B5C4F6CFC03E52E5D50728F4C03C82E513
:103FE000D80770F3ABC4CE0187579C47029708F4FB
:103FF000A5C4E6CF9D2F8D2F8F71843109F49EC407
:1040000030F49F70923029F410928E0402C08631F1
:10401000D9F30E94110F92C4D80116968C91807F1B
:1040200009F0A7CF8BC48A97A1F70E94720E86C4AD
:104030008C349105D1F38D329240B9F3EACFFE0171
:10404000FF2734E0EE0FFF1F3A95E1F7CF01835CC5
:104050009E4F7C01D80115968C91EE5BFE4F9081AE
:1040600080FB90F99083882309F447C00E94391699
:104070009093DA028093D902F70182818F5F828365
:1040800080918E0490918F04892B838380917F028D
:1040900084834681578166857785C7010E94190907
:1040A000D70115968C9181FF25C090E080E0909318
:1040B000900480939104F8018581882309F466C4F3
:1040C00010921A05CE019057839708F049C484E0F6
:1040D00090E00E94343590939E0480939D04FE01ED
:1040E000E150F047E232F10508F042C0E657FA4CE1
:1040F0000C94A9349C2F8D2FDACFF7014485558578
:1041000066857785C7010E941909D70115968C919C
:1041100081FF1BC4C7010E94C70E8091900490913B
:104120009104C817D90709F010C410929104109295
:104130009004C1CF26E241EE61EEC8010E942C1C22
:10414000C4CE27E245EE65EEF8CF26E241EE60EE02
:10415000F4CF27E245EE64EEF0CF26E241EE62EEC8
:10416000ECCF27E245EE66EEE8CF28E241E0EBCF68
:1041700080919D04816080939D0460919D04709165
:104180009E0484E090E00E9468350E947F169DCED8
:1041900080919E04886080939E04EFCF80919D045F
:1041A0008260E9CF80919D048460E5CF80919D0479
:1041B0008860E1CF80919E048160EDCF80919E0464
:1041C0008260E9CF80919D048061D5CF80919D046C
:1041D0008062D1CF80919D048064CDCF0E947F16F4
:1041E00080919D048068C7CF80919D048C60C3CF6F
:1041F00080919E048360CFCF80919D048E7FBBCF42
:1042000080919E04877FC7CF80919D048D7FB3CF1F
:1042100080919D048B7FAFCF80919D04877FABCF32
:1042200080919E048E7FB7CF80919E048D7FB3CF07
:1042300080919D048F7E9FCF80919D048F7D9BCF29
:1042400080919D048F7B97CF0E947F1680919D0463
:104250008F7791CF80919D04837F8DCF80919E0435
:104260008C7F99CF80919D0482FB992790F921E062
:10427000922790FB82F990FB83F97DCF80919E0479
:10428000982F909591708E7F892B90FB81F983CF29
:1042900090919D04892F8F7B96FF80646CCF0E9444
:1042A0007F1690919D04892F97FB87F9805863CFE3
:1042B00061E08EE090E00E944A355FCF60E0F9CF88
:1042C00090919D04892F8F7E94FF806154CF9091AF
:1042D0009D04892F8E7F90FF81604DCF90919E0429
:1042E000892F877F93FF886056CF8091050480FFD8
:1042F0001CC0282F2E7F2093050430910604409186
:104300000704509108046091090470910A04809197
:104310000B0490910C040E9447118091620381600C
:10432000809362030E94E30FD0CD816080930504E7
:1043300061E086950E94C912C8CD42EF52E16EEF4E
:1043400072E10E947309C1CD4EEF52E162EF72E15A
:10435000F8CF41E852E16BE872E1F3CF4BE852E16C
:1043600061E872E1EECF47E652E164E772E1E9CF3E
:1043700044E752E167E672E1E4CF4DE452E16AE5D9
:1043800072E1DFCF4AE552E16DE472E1DACF45E94F
:1043900052E16FEA72E1D5CF4FEA52E165E972E18D
:1043A000D0CF61E081E0C6CFCB35FCE7DF0708F076
:1043B0004EC0C1302CE7D20709F46EC0C3305CE7B1
:1043C000D50709F463C0C115DC4709F452C0F801F0
:1043D00087819085009709F463C00E940A0BD82F4B
:1043E000C92FF801A580E680E2942FE0E2228091B7
:1043F0005E028770F1F0BA2CAA20E1F0892F807F4D
:10440000803451F080E28D0F883098F0E11004C0C4
:10441000892F807E803269F080919E0482FF09C0DE
:1044200082E00E94050D80915E028770BB24B394E8
:104430008111B12C8C2F82958F70C82ED12C8C308D
:1044400008F0A2C0F601E455FA4C0C94A934CB351F
:104450009CE7D90719F1CC35DC4709F0B8CF80913A
:104460009E0482FB882780F991E089270E9420130F
:10447000AECF0E947F16BFEFE4E3FCE0B150E04016
:10448000F040E1F700C000000E94BF0F6FEF7FEF28
:1044900090E080E00E9468350E94A31980E0E6CF9A
:1044A0008581E080F180882369F0C7010E94420C79
:1044B000C82F682FC7010E94B80CB7018C2F0E942B
:1044C000EC0A8BCFC7010E94850CC82FF6CFFC2FBA
:1044D000FF70FF2EC07F19F0F29490EFF922AA200E
:1044E000B9F0FF2069F080E28D0F883010F0D11113
:1044F00009C080918F04F82AF0928F040E94720EF6
:104500008D2F40C080918E04F82AF0928E04F6CF51
:104510008D2F0E94911AFF20B9F180E28D0F883013
:1045200010F0D11104C08F2D0E94300C03C08F2DCC
:104530000E94280C0E94720E27C02C2F2F70F22E82
:10454000C07FC03219F0F29480EFF822DD2351F0E1
:10455000D13009F474C0AA2009F480C0EE2009F417
:1045600043C0CECF80919E0482FD3AC0AA2091F133
:10457000FF2039F080918F04F82AF0928F040E9476
:10458000720E80E00E94EF1AE8E0CE1AD108F4E043
:10459000CF16D10410F40E948A10BB20B1F0809194
:1045A0005E0280FD12C0D80115961C9286958695F4
:1045B00086950E941C0DC8010E94C41E80915E0257
:1045C0008695869586950E94F30C60E0C8010E944E
:1045D0005F0D8BCC80E00E94911AFF20A9F2A3CF3F
:1045E000AA2099F0E11004C08F2D0E942C0FCCCF8F
:1045F00051E0E512C9CF80917F029F2D9823F916D3
:1046000019F2F82AF0927F02BFCFE110BDCF8F2DB3
:104610000E94250F90917F028F2D892329F08F2DE5
:104620008095892380937F0280913C029F2D98235F
:1046300009F4AACFF094F822F0923C02A5CFAA2068
:1046400029F085E08E1508F49FCFCECF94E09E151B
:1046500008F49ACF8F2D0E94250F96CFEE20D1F32C
:10466000D93349F4AFEFB7EEE3E0A150B040E040FA
:10467000E1F700C000008D2F0E94911A85CF8C2F8A
:1046800086958695837069F0813009F07DCF8D2FF6
:104690009C2F9370A11002C080E090E00E94CD0892
:1046A00073CF8D2F9C2F9370A11002C080E090E0FB
:1046B0000E94F30869CF6A2D8D2F0E94B91964CF2B
:1046C0008C2F837009F040C0A1105ECF4D2F429512
:1046D00046954770440F440F2D2F2F7030E0042E65
:1046E00002C0220F331F0A94E2F790E080E0D4FF6B
:1046F00009C08FE090E002C0880F991F4A95E2F749
:1047000080959095C695C695C370C230A1F0C33010
:1047100079F04091800250918102C13039F0822BB2
:10472000932B842395230E942C0D2ECF242B352BE5
:10473000822B932BF8CF822B932B209180023091E8
:10474000810282279327EFCF8695AA2011F08C2F24
:104750008170882309F418CF4D2F429546954770F4
:10476000440F440F2D2F2F7030E0042E02C0220F73
:10477000331F0A94E2F790E080E0D4FF09C08FE095
:1047800090E002C0880F991F4A95E2F780959095B6
:10479000C695C695C370C230A1F0C33079F0409180
:1047A000240350912503C13039F0822B932B8423AD
:1047B00095230E94EE0CE8CE242B352B822B932BD5
:1047C000F8CF822B932B209124033091250382274D
:1047D0009327EFCFCF70AA2029F08C2F0E941C0DB9
:1047E0008D2F03CF8D2F0E94250F8C2F0E94F30C4D
:1047F000CBCED23F71F160F4D03FB9F0D13F81F020
:10480000AA2009F459C0E1107BCE8C2F8F7125C0EE
:10481000D33F31F1D43FA1F780919E0482FD2EC099
:104820008C2F8F71AA2011F318C0AA2069F0F4E030
:10483000FE1508F4A9CECF7181E090E002C0880F88
:10484000991FCA95E2F7BFCF25E02E1508F49CCE3C
:10485000F2CF8C2F8F71A110C9CF0E941C0D94CE66
:1048600090E080E0AA2009F4A4CFCF7181E090E02D
:1048700002C0880F991FCA95E2F79BCFAA2089F042
:10488000CF718C2F0E941C0D80919E0482FF07C067
:1048900058E0C59FC0011124836080935E028C2F75
:1048A000DCCF81E00E94050D81E08E1508F06CCE12
:1048B00082E00E94050D68CEEE2059F0D93309F050
:1048C000DACE9FEFA7EEB3E09150A040B040E1F701
:1048D000D0CE8C2F8F718ACFC3372CE7D20709F443
:1048E000F4CA80911504811115CB442339F1C13EDE
:1048F000D10529F0C23A22E5D20709F008CB809110
:104900003A02882379F0D80112968D919C912091DA
:10491000380230913902821B930B8F3F9F4710F072
:104920000E94451681E080933A02F80182819381CA
:1049300088539F4F9093390280933802CE01975548
:104940008F3F910509F008F47ACBFE01E851FC474E
:10495000E730F10508F0AFCBE854FA4C0C94A934D9
:10496000C6315CE7D50701F580918F048A7A91E022
:1049700009F490E090933B0269E2811165E388E1DC
:1049800092E00E9497080E94720E9FCAC6318CE77F
:10499000D80789F480913B0269E2811165E388E1DF
:1049A00092E00E946B08EFCFCA35ACE7DA0709F056
:1049B000FBCC81E05BCD80918F048272FE01E052DE
:1049C000F847E531F10508F002CDE154FA4C0C94BA
:1049D000A934CF93DF9380915B02807F09F04DC0B3
:1049E00080915A02882309F448C0E091170550913C
:1049F000CE04C0915602D091550260915702709139
:104A0000580249E05E17C9F18E2F90E0E49FF00153
:104A10001124E153FB4F2481222391F1489FF0019F
:104A2000499FF00D1124DF01A153BB4F11962C912A
:104A300011972C1325C02C912D1322C015962C9163
:104A4000159721111DC012962D913C91261B370BF5
:104A5000283C3105A8F480915B028F7080618093BF
:104A60005B02EB52FB4F80818F708061808385E514
:104A700092E00E94C41E0E94380CDF91CF910895ED
:104A8000FC013196E770BECFAFE0B0E0EAE4F5E2BA
:104A90000C9417348C0186E0F801DE011A9601901F
:104AA0000D928A95E1F7F8018481E58095E5A92EBC
:104AB00092E0B92E90915902911128C0882319F1E2
:104AC000EE20F1F0C8010E94310DF82E8823C1F0CC
:104AD00089E0F801D50101900D928A95E1F7809166
:104AE0005902813031F480915502909156020E9412
:104AF000760C0E94E9248F2D2F96ECE00C94333431
:104B0000C8010E94C41EFF24F394F5CFD080C18059
:104B100082809380F0905A0220915702309158027F
:104B2000A401421B530BFF2009F4EAC0483C510585
:104B300008F0B6C08823F9F29091560280915B028A
:104B4000282F207F09F05FC0C9121DC09091550227
:104B5000D91219C040915C0250915D0227813085C5
:104B60004217530781F4E11048C08F708061809331
:104B70005B0285E592E00E94C41E80915B02F80111
:104B80008683F12CB8CFE11038C06C2D8D2D0E949A
:104B9000A0066C2D8D2D0E94A006E82E8111F1CF6C
:104BA000DA86CB868A859B850E94760C292F2295F2
:104BB0002F70903458F49F70223088F0992399F028
:104BC000F8019681907F79F4FE2C95CF2A5F2F70A3
:104BD000223068F0C8010E94C41EEF2CF5CF992343
:104BE00011F0882389F3805E883070F3F3CF803F23
:104BF00058F3815F833040F3EDCF80915B02816099
:104C000080935B02BECFC9121CC090915502D9128D
:104C100018C040915C0250915D0227813085421797
:104C2000530779F4E1100DC08683C8010E94C41EA9
:104C300089E0F801A5E5B2E001900D928A95E1F7CF
:104C40005ACFC8010E94310D882309F459CFEE20B4
:104C500009F456CF80915B028032B8F02091550262
:104C6000309156023A8329839C828B82909159021B
:104C70009D831E828F8380915C0290915D02998753
:104C80008887CE0101960E94C41E89E0F801A5E53F
:104C9000B2E001900D928A95E1F70E94E92433CFAA
:104CA00090915B02292F207F51F485E592E00E94CC
:104CB000C41E89E0F50111928A95E9F762CF882335
:104CC00009F419CF809156028C11BBCF8091550207
:104CD000D812B7CF40915C0250915D022781308598
:104CE0004217530709F0ADCFE110ABCF9683C8014F
:104CF0000E94C41E89E0F50111928A95E9F7FBCE66
:104D0000483C5105B8F7882309F4FDCEFE2CEE206F
:104D100009F4F6CE809156028C111FC08091550285
:104D2000D8121BC020915C0230915D028781908572
:104D30002817390791F480915B0280FD79CF982F75
:104D4000907F09F475CF8683903F09F46ECF982F3A
:104D5000907F905F8F70892B67CFC8010E94310DC3
:104D6000811193CF80915B02816080935B02C801C7
:104D70000E94C41EC0CEA2E1B0E0E1ECF6E20C94C9
:104D80001F340A871B872C873D874E875F87688B78
:104D9000798B8A8BCE010A960E94442581110CC022
:104DA00089E0FE013A96DE01119601900D928A95F6
:104DB000E1F74E8541110BC019E0809117059091E4
:104DC000CE04891332C06296E4E00C943B34209107
:104DD000CE0430E0C90101968770992750911705DC
:104DE00058171906A1F04D8399E0929FD001939F27
:104DF000B00D1124A153BB4FFE01319601900D92CD
:104E00009A95E1F78093CE040E94380CD5CF0E948A
:104E10007F161092CE041092170589E0E5E5F2E0C6
:104E2000DF011D928A95E9F7C7CF819FC001112448
:104E300081539B4F0E944425882329F280911705B6
:104E400090E001968770992780931705B6CFEF926F
:104E5000FF920F931F93CF93DF93809119048823C0
:104E600061F0A09118048DE0F82E80911904A81724
:104E700048F01092190410921804CDB7DEB7E6E09E
:104E80000C943934EE24E394EA0EE0921804CA2F0D
:104E9000D0E0AF9DD0011124A65EBB4F14968C913B
:104EA0001497882311F1FD0187819085892B09F0E2
:104EB0004CC00184F285E02DEF3FFE0709F445C0A8
:104EC000E730F10540F4EC52FA4C0C94A93487EE2B
:104ED00094E00E94821BFC9EF001FD9EF00D1124C7
:104EE000E65EFB4F148210928E04AE2DBECF84EE90
:104EF00094E0EFCF81EE94E0ECCF8EED94E00E9451
:104F0000821B70E060E080E590E00E94B71CE3CF78
:104F10008BED94E0F4CF88ED94E0F1CF70E060E0A9
:104F200089E290E00E94B71C70E060E083E392E0C9
:104F30000E94B71C70E060E08AE190E00E94B71C1C
:104F400070E060E084E190E0E0CF0C9111961C915C
:104F5000119712962C91129713963C9113971496D1
:104F60004C91149715965C91159716966C9116971F
:104F700017967C91179718968C910E94BB26ABCF01
:104F800010928D0410928C041092BC0180918B04BD
:104F900080938A040E944A090E9427270895B0E05E
:104FA000A0E0E5EDF7E20C941134C0918A04E7E04B
:104FB000FE2E01E010E0FDE02F2EEE24E394809120
:104FC0008B048C1309C00E9427270E944A09CDB781
:104FD000DEB7E2E10C942D34D0E0FE01EE0FFF1FAE
:104FE000EE57FB4F80819181F89EF001F99EF00D04
:104FF0001124E557FE4F248121115AC03090190425
:10500000AAE1B4E030E020E0412C5F01231508F074
:105010004DC01B966D907C901C97F501808091800F
:105020004FEF5FEF512CC52CD12CF601EE0FFF1F77
:10503000E80DF91D659174916616770609F4A601CD
:10504000672B11F05394EFCF4F3F5407B9F1B801DC
:1050500002C0660F771F4A95E2F7462AA801052C81
:1050600002C0440F551F0A94E2F7415051094416FB
:10507000150609F5229EF001239EF00D1124E65E2F
:10508000FB4FF89ED001F99EB00D1124A557BE4FDD
:1050900012962D913C9113973087278374E0748387
:1050A00010821182928781871596EC920E941E09C8
:1050B0002196C37084CF14961C9214972F5F3F4F94
:1050C0001D96A4CFAEE1B0E0E8E6F8E20C9411340E
:1050D0004B8B5C8B6D8B7E8B8F8B988F911110928D
:1050E0008E04188A198A1A8A86E0FE017396DE01F8
:1050F0001A9601900D928A95E1F78E85882389F0A2
:1051000061E0CE010A960E945F0D6C018F8520E55B
:10511000C2162CE7D20689F4882329F181E0809316
:10512000BC010A851B852C853D854E855F85688978
:1051300079898A890E94BB26C8C031E5C3163CE73D
:10514000D30629F4882379F00E94C027EACF42E5EC
:10515000C4164CE7D40639F4882329F08091BC01A9
:105160008111F2CFDBCFFBE8EF2EF1E0FF2E512CC7
:10517000B12CA12C88248394912CB7E04B2ECE0126
:1051800001969A8F898F33243394F701408151819E
:1051900066246A94762C60E0262F30E0F901EE0F49
:1051A000FF1FE40FF51F85919491C816D90609F4E5
:1051B0003901892B11F06F5FEFCF10E0FFEF6F1611
:1051C0007F0609F443C0F70144811091BC01812F8F
:1051D000411180E0182F1170F701258086819F858D
:1051E000992309F4F2C0112309F4EFC0211014C06F
:1051F0009401062C01C0220F0A94EAF7822B8683C1
:105200008091160490911704C29730F422E330E0A5
:105210003093170420931604C40102C0880F991F0D
:105220006A95E2F70197F70126812817190671F4AC
:1052300080918C0490918D04009709F44AC00E94DB
:105240002A16C39708F445C0F7013482512AFFEFAC
:10525000AF1ABF0A27E0E20EF11C37E0A316B10433
:1052600009F093CF8F85882309F40BC1552009F4E9
:1052700008C10E94391690938D0480938C0480910C
:105280001904883010F591E0980F9093190499E073
:10529000FE013A96DE01119601900D929A95E1F782
:1052A0004DE0849FC0011124865E9B4F29E0FE01E2
:1052B0003196DC0101900D922A95E1F72FEF3FEF37
:1052C000FC0132872187D486C3866E96E2E10C9476
:1052D0002D3480918A0460918B04982FF0E0E0E0F7
:1052E000861314C090938A04EE15FF0509F4AECF1F
:1052F00090E0FC01EE0FFF1FEE57FB4FB182A08242
:1053000001968370992780938B04A0CF682E712C0F
:10531000F301EE0FFF1FEE57FB4F20813181429EBC
:10532000D001439EB00D1124A557BE4F2D913C9145
:1053300011973E8F2D8F00E070E0212CE22DF0E0E0
:10534000EE0FFF1F2D8D3E8DE20FF31F259134913F
:1053500021153105E1F0F7010190F081E02DFC8F7E
:10536000EB8F70E005C02417350709F4012F7F5F2C
:10537000E72FF0E0EE0FFF1F4B8D5C8DE40FF51F64
:10538000459154914115510571F72394D7CF0023CE
:10539000C9F0F701721508F0FD013482EE16FF0620
:1053A00021F490938A04102F51CF891305C0AE17B2
:1053B000BF0711F49F5F937093012F5F3F4F822FC0
:1053C00083708ECFF0E0E0E0F7CF90E021101FC0B7
:1053D000940102C0220F331F6A95E2F72150310970
:1053E0008217930731F4442309F449C0C5010E9490
:1053F0001E09C401062C01C0880F0A94EAF7982FF1
:105400009095F701868189238683122D1FCFAC01E9
:10541000062C02C0559547950A94E2F79C0121504D
:10542000310982239323892B31F540FF24C0F701F2
:1054300082819381892BE1F0E98DFA8D242D1192DF
:105440002A95E9F70E943916282F8B839C8334E034
:105450003D83F70182819381782F8887998709811D
:105460001A813C8144E05E816F81892F0E94BB26B6
:10547000F7011582BECFF42FF1702F2EBACF212E57
:10548000B8CF90918A0480918B04981729F00E94DC
:10549000CF2751101ACF45CE0E94272710928D0496
:1054A00010928C040E944A09F4CFA6E0B0E0EBE52C
:1054B000FAE20C941F340E9439168C01809182020A
:1054C000909183028017910781F019821A820E94BD
:1054D0003916682F49815A81792F80E090E00E9427
:1054E000622810938302009382022696E4E00C94D3
:1054F0003B341F921FB61F9211248F939F93AF933B
:10550000BF9380919804811113C080919904909168
:105510009A04A0919B04B0919C044196A11DB11DD9
:105520008093990490939A04A0939B04B0939C0455
:10553000BF91AF919F918F911F901FBE1F901895A3
:10554000CDB7DEB762970FB6F894DEBF0FBECDBF02
:1055500085B7806885BF85B7806885BF84B7877F3A
:1055600084BF0FB6F894A8958091600088618093FD
:105570006000109260000FBE80E890E00FB6F894D3
:1055800080936100909361000FBE80EE99E090934C
:105590001702809316020E94D5060E94760780911A
:1055A000E20084608093E20078948091C4048823B0
:1055B000A1F01091E9001F709091EC00892F81708B
:1055C00090FD80E8182B1092E9008091E80083FD9F
:1055D0000E94AE161F701093E90082E084BD93E034
:1055E00095BD9AEF97BD80936E001092B90210920C
:1055F000BA021092BB021092BC020E946710809304
:10560000340180913401882309F475C01092860119
:105610008BE1809387010E94671081110E949A326A
:10562000809134018091340194E0811190E0909355
:10563000C60284E0891B8093C50284E90E94E209C6
:1056400086E60E94E20987E90E94E20986EC0E9450
:10565000E20905E012E0D8018D918D018F3F11F034
:105660000E94E209B2E00B301B07A9F788E0E8ECE2
:10567000F2E0DF01282F1D922A95E9F7EDEBF2E029
:10568000DF011D928A95E9F790E080E00E943435B1
:10569000863E9E4F11F00E94C01482E090E00E946E
:1056A00026358093D00284E090E00E9434359093B8
:1056B0009E0480939D040E94F51CEFEFF6E721E025
:1056C000E150F0402040E1F700C000000E94F51CCE
:1056D0000E946710E4E08111E0E0F0E0E853FD4F44
:1056E000808181FF0CC06FEF7FEF90E080E00E942F
:1056F00068350E94BF0F8BE1809386018ACF83E0DB
:1057000090E00E94263590E00E942C0D0E946710C8
:1057100083E080934A0380E280931B050E9444311A
:105720006BE070E089E492E00E94CE10882309F4D7
:1057300043C080914A0365E070E081FD27C184E4A5
:1057400092E00E94CE108823B9F16DE070E082E310
:1057500092E00E94CE10882379F10E944E086B8758
:105760007C878D879E87DC01CB0180549B42AE4FA6
:10577000BF4F80930D0490930E04A0930F04B09339
:105780001004EEE1F5E080E092E0DF019C011D9263
:1057900021503040E1F7F0932507E09324078FEF85
:1057A0009FEF90931D0580931C0581E08093120468
:1057B0008093110410924B038091C702811176C02F
:1057C00090E080E00E943435863E9E4F21F00E949A
:1057D000C0140E94031388E090E00E942E356B01F4
:1057E0007C0184E290E00E942635282F30E040E0E2
:1057F00050E060E070E080E090E000E20E94C2349F
:10580000260137012C2935294E29572920930504D3
:1058100030930604409307045093080460930904EE
:1058200070930A0480930B0490930C04809162039C
:105830008360809362032E7F61F50E94031388E0EA
:1058400090E00E942E356B017C0184E290E00E9482
:105850002635282F30E040E050E060E070E080E046
:1058600090E00E94C23426013701C22A35294E2910
:105870005729C092050430930604409307045093BF
:1058800008046093090470930A0480930B049093B6
:105890000C040E947A098091050480FF04C060E036
:1058A00086950E94C91281E08093C7020E9467100A
:1058B000811102C00E949D3285E391E0909395048E
:1058C00080939404F4E68F2E912CA12CB12C80911E
:1058D000C40400E112E1853009F494C00E94F51C73
:1058E00001ED12E0E8ECEE2EE2E0FE2ED701F80129
:1058F00091918D9129ED32E02E173F0709F48CC06C
:105900009817B1F30E946710482ED12C332433949A
:10591000D701CD907D01F80151908F015C1429F1E0
:105920005C24712C66246394852D8621B1F044207B
:10593000A1F07982DA820E9439169C838B833D82A2
:1059400091E08C2D862109F490E09E8349815A8153
:105950006B817C818D810E9462287394660CF6E0D5
:105960007F12E2CFF8013197C082D39428E0D2129F
:10597000CFCF0E949B106093190370931A038093FA
:105980001B0390931C0331E03B874BC08FE392E0F5
:10599000D8CE8091C404843031F10E94F810109266
:1059A000980448E150E080E40FB6F894A89540933D
:1059B00060000FBE8093600083B7817F846083BFE7
:1059C00083B7816083BF7894889583B78E7F83BFC8
:1059D0000FB6F894A895809160008861809360006C
:1059E000109260000FBE8091C304882359F00E947A
:1059F000F51CE8ECF2E08191811126C492E0E03DD3
:105A0000F907C9F78091C404853009F4C2CF0E9418
:105A10007F160E948A1062CF981374CF0E94552A75
:105A20001B860E946710882309F416C10091900418
:105A30001091910401151105D1F08091D902909136
:105A4000DA020E942A16893C910588F0C80199273C
:105A500074E0880F991F7A95E1F7FC01EE5BFE4F29
:105A6000208122FD04C0835C9E4F0E94E00E809145
:105A7000BC01882301F180918C0490918D040097E2
:105A8000D1F00E942A16209116043091170428178D
:105A9000390788F490918A0480918B04981709F44F
:105AA00059C20E94CF271092170410921604109228
:105AB0008D0410928C04C090E602D090E7020D2C69
:105AC000000CEE08FF0810917D01212F30E0E6EE7A
:105AD000F2E081E090E03296281739070CF043C2DB
