:100000000C94ED060C9425070C9425070C94E12C18
:100010000C9425070C9425070C9425070C942507B0
:100020000C9425070C9425070C9429150C9446195B
:100030000C9476240C9425070C9425070C94250722
:100040000C9425070C9425070C9425070C94250780
:100050000C9425070C9401160C9425070C94250785
:100060000C9425070C9425070C9425070C94250760
:100070000C9425070C9425070C9425070C94250750
:100080000C9425070C9425070C9425070C94250740
:100090000C9425070C9425070C9425070C94250730
:1000A0000C9425070C9425070C942507202020206C
:1000B0006162636465666768696A6B6C6D6E6F70B8
:1000C0007172737475767778797A31323334353664
:1000D00037383930524542545F2D3D5B5D5C233BE0
:1000E00027602C2E2F2020202B0014001A0008003F
:1000F00015001700E10004001600070009000A00BF
:10010000E0001D001B0006001900050000000000B3
:100110000000E30021522C002A00130012000C0002
:1001200018001C00340033000F000E000D000B00FF
:10013000E200380037003600100011000000000017
:10014000000029002252280001001E021F02200286
:100150002102220201000100010001000100010052
:1001600001000100010001000100E30000000000A7
:1001700000000100010001004C00270226022502B8
:1001800024022302350230022F022E022D023102F8
:10019000350030002F002E002D003100000000003F
:1001A00000000100010001002B001E001F002000C4
:1001B00021002200E100A900AA00AC00AE00AB00C3
:1001C000E00002783B003C003E003E0000000000E2
:1001D00000000100010001004C002700260025005E
:1001E000240023004C0044004F00520051005000F6
:1001F000490045004D004B004E004A000000000041
:10020000000001000100010000DA028178D9F1DB71
:1002100020A4A62EAF00A0C0D30000A1C8D3000028
:10022000AED580A81F408D14200000000000E01013
:100230000808C8B08080808080808040403C1404E2
:100240000890180408B0408000000000000001027F
:10025000C4A4FC00000000800000000000000000BA
:100260000080C858282A100F000000000000000E6F
:100270000904040404020302010102020408102616
:100280002B320405060000000000000000E0101002
:10029000F000000000000000008080807828081036
:1002A00020300810204080000000000000030408F7
:1002B0001011F9010101010101000000000000001E
:1002C000000110B05055201F000000000000000089
:1002D00000000001020C10202837021E2020180CFC
:1002E000141E01000000000000000000000000805B
:1002F000402010909090A0C08080807008140890DA
:10030000101008A478800000000000000000000722
:1003100008FC010000000080000001000000000057
:10032000000818EA100F00000000000000000000A4
:1003300000031C20203C0F111F03061820203C0C3A
:10034000121E01000000000000000000000000007C
:100350008040202020408000000000E01028102075
:1003600020201048F0000000000000000000001FE6
:1003700020F8020101010101010103000000000158
:10038000001030D5201F0000000000000000000019
:10039000003F20300C020509121E021C1408102018
:1003A0002C320100000000000000000000000000EE
:1003B0000000000000000000E01C0205022404040C
:1003C00002A91EE000000000000000000000000084
:1003D000E01008681008040300000000000000029C
:1003E00006827C0300000000000000000000000006
:1003F0000102040C1010202020283E1C20203E0F5B
:10040000111F0000000000000000000000000000BC
:100410000000000000000000E01C020502240404AB
:1004200002A91EE00000000000000000000000E043
:10043000900818601008040300000000000000028B
:100440000E827C030000000000000000000000009D
:100450000102040C1010202020283E1C20203E0FFA
:10046000111F000000000000000000C02010D0306C
:10047000000000000000008080403C140408901838
:100480000408B040800000000000000304081011C0
:10049000F90101010101010000000000000080C815
:1004A00048282A100F000000000000000000000093
:1004B0000001020C102028370202040810262B32FB
:1004C0000405060000000000000000E01010F0002D
:1004D00000000000000000808040402C14040890C0
:1004E000180408B040800000000000030408101148
:1004F000F90101010101010000000000000000807D
:10050000C048282A100F204A0910000000000000EF
:100510000001020C102028370202040810262B329A
:1005200004050600000000000000000000000000BC
:100530000000000000BCBCBEBE00BEBEBFBFBFBF4F
:1005400000000000000000000000000000000000AB
:10055000000000000007070F0F000F0F1F1F1F1FD5
:10056000000000000000000000000000000000008B
:100570000000000000C0F0F8F8F8F0F6FBFB3810BF
:10058000000000000000000000000000000000006B
:10059000000000000001070F1F1F0F0F1F1F0F0695
:1005A000000000000000000000000080C0C060608B
:1005B0003030181C0C0000000080E0781E06000C93
:1005C0001C1830306060C0C08000010307060C0CAE
:1005D000181830706000C0F03C0F0300000000608D
:1005E000703018180C0C0607030100F8F8808080A2
:1005F000F8F80080C0C040C0C08000F8F800F8F8EB
:1006000000083808003808300838001F1F010101B1
:100610001F1F000F1F1A121A1B0B001F1F001F1F86
:1006200000000000000000000000000101010101C5
:10063000010101010202020202020202020303039B
:10064000030303030304040404040404050505056B
:10065000050606060606070707070708080808092B
:100660000909090A0A0A0B0B0B0C0C0C0D0D0D0ED7
:100670000E0E0F0F0F10101111111212131314146C
:10068000151516161717181819191A1A1B1B1C1DE1
:100690001D1E1E1F2020212222232424252626273A
:1006A0002829292A2B2C2D2D2E2F3031323233346C
:1006B00035363738393A3B3C3D3E3F404142434472
:1006C00045464748494A4C4D4E4F50515354555654
:1006D00058595A5B5D5E5F616264656668696B6C00
:1006E0006D6F7072737577787A7B7D7E808283857B
:1006F00087888A8C8E8F91939596989A9C9EA0A2BB
:10070000A3A5A7A9ABADAFB1B3B5B7BABCBEC0C2C4
:10071000C4C6C9CBCDCFD1D4D6D8DBDDDFE2E4E788
:10072000E9EBEEF0F3F5F8FAFDFF00AF00AE0501DE
:100730000902A10185020901A10005091901290881
:10074000150025019508750181020501093009315F
:100750001581257F95027508810609381581257F49
:10076000950175088106050C0A38021581257F95CB
:100770000175088106C0C005010980A10185031922
:10078000012AB700150126B700950175108100C038
:10079000050C0901A101850419012AA002150126F1
:1007A000A002950175108100C005010906A101850F
:1007B00006050719E029E71500250195087501814F
:1007C000020507190029EF1500250195F075018133
:1007D0000205081901290595057501910295017514
:1007E000039101C005010906A101050719E029E7E8
:1007F0001500250195087501810295017508810193
:100800000507190029FF150026FF009506750881C8
:1008100000050819012905150025019505750191A7
:1008200002950175039101C009023B00020100A07D
:10083000FA0904000001030101000921110100016E
:100840002244000705810308000109040100010397
:1008500000000009211101000122B60007058203F2
:1008600020000112010002000000085346010001AF
:1008700000010200010C0343006F0072006E00656E
:10088000000000100366006F006F007300740061C9
:10089000006E000000040309040000000000003E98
:1008A0005B4F5B3E003E6B4F6B3E001C3E7C3E1C34
:1008B00000183C7E3C18001C577D571C001C5E7FB6
:1008C0005E1C0000183C180000FFE7C3E7FF0000B3
:1008D0001824180000FFE7DBE7FF0030483A060E57
:1008E00000262979292600407F05050700407F055D
:1008F000253F005A3CE73C5A007F3E1C1C0800087C
:100900001C1C3E7F0014227F2214005F5F005F5F8B
:100910000006097F017F00006689956A00606060BB
:1009200060600094A2FFA2940008047E04080010F6
:10093000207E20100008082A1C0800081C2A08082D
:10094000001E10101010000C1E0C1E0C0030383E43
:10095000383000060E3E0E060000000000000000C9
:10096000005F000000000700070000147F147F14E0
:1009700000242A7F2A120023130864620036495695
:10098000205000000807030000001C224100000066
:1009900041221C00002A1C7F1C2A0008083E08086F
:1009A000000080703000000808080808000000609F
:1009B0006000002010080402003E5149453E00003E
:1009C000427F4000007249494946002141494D3368
:1009D000001814127F10002745454539003C4A494C
:1009E000493100412111090700364949493600467D
:1009F0004949291E00000014000000004034000096
:100A000000000814224100141414141400004122A0
:100A10001408000201590906003E415D594E007C50
:100A20001211127C007F49494936003E4141412262
:100A3000007F4141413E007F49494941007F09090A
:100A40000901003E41415173007F0808087F000002
:100A5000417F4100002040413F01007F08142241B6
:100A6000007F40404040007F021C027F007F04085E
:100A7000107F003E4141413E007F09090906003ECA
:100A80004151215E007F0919294600264949493212
:100A90000003017F0103003F4040403F001F204012
:100AA000201F003F4038403F0063140814630003D8
:100AB00004780403006159494D4300007F414141DE
:100AC00000020408102000004141417F000402019F
:100AD000020400404040404000000307080000209E
:100AE00054547840007F2844443800384444442813
:100AF00000384444287F0038545454180000087EBD
:100B00000902001824241C78007F080404780000DF
:100B1000447D4000002040403D00007F10284400FC
:100B20000000417F4000007C04780478007C0804C9
:100B30000478003844444438007C182424180018F1
:100B40002424187C007C08040408004854545424CD
:100B50000004043F4424003C4040207C001C204012
:100B6000201C003C4030403C004428102844004CED
:100B70009090907C004464544C440000083641003E
:100B8000000000770000000041360800000201026A
:100B90000402003C2623263C000000000000000068
:100BA000000000000000000000C0E0F0F8F81800AD
:100BB000C0F0FCFEFFFFFFFFFFFFFF7E0000000014
:100BC000000000000080C0E0E0E0E0E0E0E0E0C025
:100BD000800000000080C0E0E0E0E0E0E0E0E0C095
:100BE00080000000E0E0C0C0E0E0E0E00000E0E005
:100BF000C0C0E0E0E0E0E0C0800000000080C0E0B5
:100C0000E0E0E0E0E0E0E0C0800000000000000084
:100C100000000000000000E0F0F0F0E0ECEEF7F380
:100C20007020007C7C7C7E007E7E7E7F7F7F00004B
:100C300080C0E07E5B4F5BFEC00000C000DCD7DE02
:100C4000DEDED7DC00C00000000000000000000075
:100C50000000000000000000000000000000000094
:100C60000000F8FCFEFFE000FFFFFFFFFFFF80FF3A
:100C7000FFFFFFFFFFFFFFFF1F0701000000000055
:100C800000000000FFFFFF8100000000000081C3A2
:100C9000C3C30000FFFFFF8100000000000081FFD0
:100CA000FFFF0000FFFFFF01000000000000FFFF4A
:100CB000FF010000000001FFFFFF0000FFFFFF9D9C
:100CC0001C1C1C1C1C1C9DDFDFDF00000000000042
:100CD000000000000000000F1F3F7F7F7F7F7F3FED
:100CE0001E0C001F1F1F3F003F3F3F7F7F7F0030D4
:100CF0007B7F7830202030787F3B0003000F7F0F10
:100D00000F0F7F0F00030000000000000000000034
:100D100000000000000000000000000000000000D3
:100D20000000030F1F3F3F3F3F1F1F3F3F7F7F7F5D
:100D30003F3F1F3F7F7F7F7F7C7878381C0F00000C
:100D40000000000000010307070707070707070364
:100D50000100000000010307070707070707070353
:100D6000010000000707070000000000000007075F
:100D7000070000000000000707070000000103074C
:100D8000070707070707070301000000000000002E
:100D90000000000000000000000000000000000053
:100DA0000000000000000000000000000000000043
:100DB0000000000000000000000000000000000033
:100DC0000000000000000000000000000000000023
:100DD0000000000000000000000011241FBECFEF43
:100DE000DAE0DEBFCDBF04B603FE18C08091330643
:100DF00090913406A0913506B09136068730904B1D
:100E0000A740B04B59F4109233061092340610925A
:100E1000350610923606E0E0F8E3099511E0A0E00F
:100E2000B1E0EAEAFFE502C005900D92A63BB107EA
:100E3000D9F726E0A6EBB1E001C01D92A333B207BB
:100E4000E1F70E949D240C947F2F0C940000982FB2
:100E5000E09124044091EB0357E0E41302C080E0EA
:100E600008952E2F30E05E9FF0011124E451FC4FD5
:100E70008181681306C08081981303C08581811128
:100E8000EFCFF9013196E770E8CFFC01AC014C5F80
:100E90005F4F8FEF91E32191822728E030E087FFB9
:100EA00009C0880F892721503109C9F7E417F507D0
:100EB00091F70895880FF7CFE8EDF0E080818E7FFD
:100EC00080831092E2001092DA001092E100A0EE0E
:100ED000B0E08C9181608C9380818F77808319BC86
:100EE000A7EDB0E08C918E7F8C9380818F7E808384
:100EF0001092BC0308952091E4003091E50095E63E
:100F0000A9012091EC00822F817020FF06C0809102
:100F1000E80080FF06C080E008952091E80022FDEF
:100F20001AC08091E103882389F0853089F080918F
:100F3000EB0085FD0FC02091E4003091E5004217E1
:100F40005307F9F29150E1F684E0089582E00895A4
:100F500083E0089581E008958091E30387FF13C043
:100F60008091E80082FF06C08091E8008B77809333
:100F7000E80004C08091E1038111F2CF08958091CF
:100F8000E1038823D9F38091E80080FFF8CF8091B6
:100F9000E8008E77ECCF982F9093E900242F762FDE
:100FA00050E0891731F07091EC002091ED005091E4
:100FB000F00021FD07C09F5F973071F78093E90033
:100FC00081E008953091EB003E7F3093EB0030914B
:100FD000ED003D7F3093ED003091EB0031603093B8
:100FE000EB007093EC002093ED005093F000209103
:100FF000EE0027FDE0CF80E00895B0E0A0E0E3E060
:10100000F8E00C941C2EC8EDD0E088818F7E888398
:10101000E7EDF0E080818160808384E082BF81E041
:101020008093BC0388818E7F888302EE10E0F801F4
:1010300010821092DA0081EEC82ED12CF6011082B7
:1010400088818F77888388818068888388818F7D75
:10105000888319BC1092E1031092E2031092E0031E
:101060001092DF0390EEE92EF12CF70180818B7F47
:10107000808388818160888342E060E080E00E9414
:10108000CB07F60180818E7F8083F80180818160AB
:101090008083808188608083F70180818E7F808358
:1010A000888180618883CDB7DEB7E8E00C94382E64
:1010B000FC01CB012091E9033091EA0326173707A1
:1010C00090F0009729F42091E8002E772093E80013
:1010D00040E0009751F4411108C08091E80082FF80
:1010E00031C080E00895C901F3CF2091E1032223AC
:1010F000A9F12530A9F12091E80023FD2DC0209110
:10110000E80022FDEACF2091E80020FFE2CF3091F5
:10111000F3002091F200009719F02830310558F0C3
:1011200041E02830310509F040E02091E8002E77B9
:101130002093E800CECF41914093F10001972F5FBB
:101140003F4FE9CF8091E103882341F0853041F0A2
:101150008091E80083FFC1CF81E0089582E0089587
:1011600083E008958091BE030895A4E0B0E0EBEB26
:10117000F8E00C94202E462F572FBC012FB7F8947F
:101180008091B6039091B703A091B803B091B903D1
:101190002FBF8C019D01041B150B260B370BC901BA
:1011A000B8012496E4E00C943C2EA4E0B0E0EBED12
:1011B000F8E00C94222E8FB7F8942091B60330916A
:1011C000B7034091B8035091B90329833A834B8305
:1011D0005C838FBF69817A818B819C812496E2E058
:1011E0000C943E2E9C01809140018823C9F080918F
:1011F000BA0387FF15C0E62FE695E695E695603FB2
:10120000E0F4E20FF32FF11D677081E090E001C080
:10121000880F6A95EAF780959281892382830895E1
:10122000F9013296285F3F4F8191681303C0DF01B7
:1012300011971C92E217F307B9F708959C0180916A
:1012400040018823C1F08091BA0387FF14C0E62FC4
:10125000E695E695E695603FF8F4E20FF32FF11D71
:10126000677021E030E001C0220F6A95EAF78281C1
:10127000822B82830895F90132968FEF90E041919D
:10128000641751F08F3F19F4411101C0892F9F5FFE
:101290009630A9F78F3F09F40895280F311D87FD77
:1012A0003A95F90162830895A3E0B0E0EAE5F9E038
:1012B0000C94222E9C018091B3039091B403821769
:1012C0009307A1F03093B4032093B303E091B103EB
:1012D000F091B203309751F084E089833B832A83F5
:1012E0000680F781E02DCE01019609952396E2E074
:1012F0000C943E2EA3E0B0E0E0E8F9E00C94222E3E
:101300009C018091AF039091B00382179307A1F0E5
:101310003093B0032093AF03E091B103F091B20397
:10132000309751F083E089833B832A830680F781DD
:10133000E02DCE01019609952396E2E00C943E2E15
:10134000CF93DF93B82FA92F9B0180913106909105
:1013500032068B529440AC01460F571F4130524029
:1013600020F020E032E0281B390B409129045091F5
:101370002A04EB2FFA2F280F391FC1E0D0E0821783
:10138000930738F050932A0440932904DF91CF91BA
:1013900008956491DC01A55DBB4F7C91761781F0C7
:1013A0006C93BC01A5E076956795AA95E1F7DE01FF
:1013B00002C0AA0FBB1F6A95E2F7BD014A2B572B4B
:1013C00001963196DCCF2091280436E0839FC0013E
:1013D0001124629F800D911D1124811522E0920736
:1013E00014F090E080E0855D9B4F909332068093EF
:1013F00031060895FA01882311F009950895FB013B
:10140000FCCF8091A103982F9E7F71F48091A1035E
:10141000817082608093A1038091A403893718F0C2
:1014200088E78093A4030895843080F7F5CF8091F6
:10143000F10280FD16C081FD16C082FD16C08091AC
:10144000F0028823A1F0883280F428E0829FC00156
:10145000112468E270E00E94552E862F672B39F028
:10146000089582E0089584E0089588E0089581E079
:1014700008958091F10280FD14C081FD14C082FDA9
:1014800016C08091EF02882381F08E3180F420E530
:10149000829FC00111246EE170E00E94552E862FBC
:1014A000089584E1089588E2089588E0089580E52C
:1014B0000895282F35EB2303C001112497FF04C0A2
:1014C00080589109892F089580589F4FFBCF80E065
:1014D0000895F894E82FE295EF70F0E041A18F7045
:1014E00021E030E0B90102C0660F771F8A95E2F76C
:1014F000CB01962F9095942391A392A1892B82A33F
:10150000789408959091BA0392FF10C041E0282F7B
:101510002471243009F040E031E0282F2871283070
:1015200009F030E0431711F02CE0822793FF10C040
:1015300041E0282F2471243109F040E031E0282FC8
:101540002871283109F030E0431711F02CE0822790
:101550003091BB0330FF10C051E0282F21712130A2
:1015600009F050E041E0282F2871283009F040E0D0
:10157000541711F029E0822731FF10C041E0282FD5
:101580002171213109F040E031E0282F2871283104
:1015900009F030E0431711F029E0822794FD877E9F
:1015A0000895803E9105C1F1C8F48133910509F495
:1015B0007DC048F48932910509F46DC08A329105E5
:1015C00009F47BC0089589339105D1F082389105E3
:1015D000B9F08533910509F459C00895843E910509
:1015E000C1F138F4823E910521F1833E910531F13C
:1015F0000895863E9105C1F1873E9105E1F1089578
:101600002091BA03237009F065C02091BB0323FF2A
:1016100014C089E290E008952091BA0320FD43C0F0
:101620003091BB0330FF09C024FF4EC090E080E042
:1016300008952091BA0322FDF7CF08952091BA03AF
:1016400022FD45C03091BB0330FD44C024FFF5CFDF
:10165000EDCF2091BB0321FFF0CF8091BA0384FD31
:10166000E5CF87EE90E008952091BA0323FFE5CF00
:1016700024FDDCCFF6CF2091BA0323FD2EC030919C
:10168000BB0331FFE3CF84EE90E008952091BA03CD
:1016900025FFD3CFBECF2091BA0325FD21C02091D5
:1016A000BB0323FFCACF89E390E0C7CF2091BA03E1
:1016B00026FFC3CF8AE290E008952091BA0326FF67
:1016C000BCCF81E390E0089583EE90E0089582EE30
:1016D00090E0089580EE90E0089586EE90E0089501
:1016E00085E390E008957830B8F46630A8F483304C
:1016F000B0F4E62FF0E096E0799FE00DF11D1124A3
:1017000090E3899FE00DF11D1124EE0FFF1FE851BA
:10171000FF4F85919491089580E090E0089581E0D5
:10172000FCCF1F93CF93DF930E94D10AEC01811568
:10173000924508F05FC0C11580E5D80708F0DDC00C
:10174000C03ED10538F5CD3CD10508F0AEC0C83A51
:10175000D10580F4C53AD10508F0A4C0C130D10547
:1017600009F443C0CE010497813A9105F0F1D0E02D
:10177000C0E03BC0CE01885A91094B97C0F7C85AC8
:10178000D0E0CC0FDD1FC659DE4F0990D881C02DA7
:10179000D4642BC0C11590E4D907F0F4C11520E240
:1017A000D20708F0C4C0C83ED105F8F0CE019A9522
:1017B00081159F41E0F68D2F0E94820A182FCE01DD
:1017C00099270E94D10AC12FD0E0DC2FCC27CC274B
:1017D000DF71C82BD92B09C0CE0199270E94D10AED
:1017E000CC27DF70C82BD92BD06ACE01DF91CF91E7
:1017F0001F910895C03882E5D807B8F5C03692E544
:10180000D90708F05BC0C03422E5D207C8F4C03263
:1018100082E5D80708F04BC02C2F2695269590E23C
:10182000299F900111248C2F8370C1E0D0E002C069
:10183000CC0FDD1F8A95E2F7C22BD32BDD68D5CF05
:101840002C2F26952695277080E2289F9001112441
:101850008C2F8370C1E0D0E002C0CC0FDD1F8A95D1
:10186000E2F7C22BD32BDC68C0CFC03C92E5D9078E
:1018700060F48C2F8F71C03AD245A8F5C82FD0E004
:10188000DC2FCC27C46FD06AB0CFCE01805C9245EC
:10189000809708F06CCFDC2FCC27CC27DF71C06F8E
:1018A000D06AA3CFA497D064A0CFD0659ECFCF71CC
:1018B000D0E0DC2FCC27C16FD06A97CF2C2F269594
:1018C0002695277080E2289F900111248C2F837029
:1018D000C1E0D0E002C0CC0FDD1F8A95E2F7C22B39
:1018E000D32BDA6882CF0E94820AC82FD0E0DC2F87
:1018F000CC27CC27DF71D06278CF8C2F8F710E94DC
:10190000820A55E0D695C7955A95E1F7CF70D0E099
:10191000DC2FCC27282F30E084FF05C044E0220FC5
:10192000331F4A95E1F7C22BD32BD0695ECF8D2FA1
:101930008F710E94820A182FCE0199270E94D10A26
:10194000C12FD0E0DC2FCC27CC27DF71C82BD92BBF
:10195000D2CF982F909580911C02892380931C02EE
:101960000895809124049091EB03981301C0089589
:101970008F5F8770FACFB0E0A0E0E1ECFCE00C9460
:101980001B2E8C01E090C002F090C10280911D02DC
:1019900090911E02E82AF92ACFE0D0E0CC24C3942B
:1019A000D12CBC2EC6010C2E02C0880F991F0A94A0
:1019B000E2F78E219F21892B49F4219790F7B12CD2
:1019C0008B2DCDB7DEB7E9E00C94372EB8018C2F04
:1019D0000E94730B0E94910B019779F3F1CFCF9383
:1019E000DF93D82FC92F0E94BB0C6D2F7C2F0E9434
:1019F000730B0E94910BDF91CF910895983078F589
:101A0000863068F5E82FF0E086E0989FE00DF11D44
:101A100011249E2F977083E0F695E7958A95E1F75C
:101A2000EE0FFF1FEE0FFF1FE652FE4F50E040E0AB
:101A300080E0219130E0092E02C0369527950A9466
:101A4000E2F721703327042E01C0220F0A94EAF72F
:101A5000822B4F5F5F4F4430510559F7089580E066
:101A60000895983098F5863088F5E82FF0E086E004
:101A7000989FE00DF11D11248E2F877041E001C069
:101A8000440F8A95EAF783E0F695E7958A95E1F7A2
:101A9000EE0FFF1FEE0FFF1FE652FE4F30E020E07B
:101AA00070E05191DF011197CB01022E02C0969593
:101AB00087950A94E2F7817081958527842385278D
:101AC0008C932F5F3F4F2430310559F70895909341
:101AD000C1028093C002089521E030E002C0220FCD
:101AE000331F8A95E2F7209530958091C00290913E
:101AF000C102822393230E94670D08959091F901FA
:101B0000809589238093F901282F277069F489171C
:101B100059F09091BB0392FF07C0869586958695F4
:101B20000E946C0D1092F901089521E030E002C08E
:101B3000220F331F8A95E2F78091C0029091C10273
:101B4000822B932B0E94670D089590931E02809321
:101B50001D020895FC0184818823A1F08081918178
:101B60000E94EF0C282F92959F70963091F060F4B0
:101B7000925F9F70923030F481E0203F81F030F42A
:101B8000283E30F080E004C09A5FF3CF243FD1F7C5
:101B9000089581E0283E20F0213FA1F7F9CF089574
:101BA00008959C01892F99270097E9F09C0188E00E
:101BB000A90174E0569547957A95E1F741155105CD
:101BC00011F08C5F9A01A901569547955695479556
:101BD0004115510511F08E5F9A0136952795232BFB
:101BE00009F08F5F089580E0E3CFA6E0B0E0EBEF6F
:101BF000FDE00C94212E49835A83392F89819A81E3
:101C0000332399F0222389F00E94BB0C182F682FF0
:101C100089819A810E94310D69817A81812F0E9488
:101C2000730B2696E3E00C943D2E0E94FE0C182FB9
:101C3000F3CFCF93DF93682F81E06A3019F06D30D6
:101C400031F480E00E94990EDF91CF910895809148
:101C500031069091320626E0FC01ABE2B6E001903D
:101C60000D922A95E1F7603E08F458C026E0FC0189
:101C700011922A95E9F7C0913106D091320646E0DB
:101C800050E0BE018BE296E00E94112F9E012B5284
:101C90003440892B41F1C90145E0969587954A95D5
:101CA000E1F741E050E0BA0102C0660F771F8A9564
:101CB000E2F7CB016091290470912A04862B972BBF
:101CC000B9016B5F7F4FE5E076956795EA95E1F79F
:101CD00002C0440F551F6A95E2F7842B952B909311
:101CE0002A04809329042A5F3F4F40912804642FDF
:101CF00070E0C9010E94FE2D481B463010F4240FED
:101D0000311D211572E0370710F030E020E0255D2D
:101D10003B4F309332062093310696CFF6E06F9F0B
:101D2000B00111246756774F46E050E00E94082F1B
:101D3000A2CFCF93382FE0913106F0913206EB52CB
:101D4000F44020912804622F70E0CF010E94FE2D04
:101D5000281B822F332361F066E00E94492EC82F92
:101D6000C15010F4CF91089580E20E94190EF8CF6F
:101D70009F01280F311D2115324018F080E0F0E05E
:101D8000E0E08E0F9F2F911D855D9B4F9093320653
:101D900080933106E7CF80911C0290911B02892B22
:101DA0008093B80190911A029923A1F0892B809316
:101DB000B801809140018823E1F18091BA0387FF47
:101DC00038C08EE1EAEBF1E090E08150A0F591118E
:101DD00010921A0240E250E06AEF71E088EB91E065
:101DE0000E94112F892B21F180E2E8EBF1E0AAEFAC
:101DF000B1E001900D928A95E1F7E091B103F09185
:101E0000B2033097A9F080914001882359F0809166
:101E1000BA0387FF07C08091B8018093B90186E0BB
:101E20008093B8010280F381E02D88EB91E0099561
:101E3000089586E0C7CF2191222339F29F5FC5CF55
:101E4000882321F00E94A90C0E94CB0E08958823BC
:101E500039F090911C02892B80931C020E94CB0EBA
:101E600008950F931F93CF93DF93EC01FC01019032
:101E70000020E9F78F0101501109C017D10728F0A0
:101E8000DF91CF911F910F91089589910E94190EB2
:101E9000F4CF0F931F93CF93DF938B01EA019091BF
:101EA000E103943061F58093E9008FEF9091E800B1
:101EB000815095FD06C095ED9A95F1F700008111CE
:101EC000F5CF8091E80085FF1AC00E947B07811141
:101ED00011C08091E80085FD06C08091E8008E77F2
:101EE0008093E800F2CFF80181918F018093F10097
:101EF000219779F78091E8008E778093E800DF9151
:101F0000CF911F910F910895BC0143E050E082E012
:101F10000E94490F0895BC0146E050E082E00E9413
:101F2000490F0895CF93DF93D82FC92F8091400197
:101F3000811113C048E050E06D2F792F81E00E949D
:101F4000490F80E2ED2FFC2FAFEBB3E001900D9233
:101F50008A95E1F7DF91CF9108958091BA0387FFC9
:101F600006C040E282E050E06D2F7C2FE8CF48E0D1
:101F700081E0F9CF81E08093E00080E28093D80097
:101F80001092C9008FE19EE40197F1F700C00000B4
:101F900087E090EBDC018093330690933406A093A6
:101FA0003506B093360688E19CE00FB6F894A89504
:101FB000809360000FBE90936000FFCF60913C0162
:101FC0008091A10380FF20C080913B0143E0849F6A
:101FD000C001112481509D4F539A2BB1277F3BB1F3
:101FE00038605FB7F894FC01649FE00DF11D112487
:101FF000BF0168177907D1F45FBF8FE594E00197BF
:10200000F1F700C00000089580913D0190913E01DC
:1020100023E0829FF0011124E150FD4F8917A0F6C3
:102020001182108212828F5F3396F8CFFC014191AA
:10203000CF01E8E03BB9000000C047FF2BB9440FD7
:10204000000000C000C000C02BB900C0EA9591F7A5
:10205000D0CFB0E0A0E0EFE2F0E10C941A2EF82E21
:10206000E92ED62EC72E8A0180915502AA24A39468
:10207000B12C8A3018F48AE0A82EB12CC1E0D0E04F
:102080006D2D7C2D8F2D9E2DF8010995811104C099
:102090002196AC16BD062CF4CDB7DEB7EAE00C9461
:1020A000362ECC9F9001CD9F300D300D112490E045
:1020B00080E045E34A95F1F7000001968217930707
:1020C000C1F7DECF80912B02811110C08091D80022
:1020D00080618093D8008AE18A95F1F700C08091F1
:1020E000D90080FF0AC081E080932B0281E09091AB
:1020F0002B02913009F080E0089582E080932B025A
:102100000E945C071092E103F1CF0E9462108823C5
:1021100059F0E091B103F091B203309729F00190AA
:10212000F081E02D0995089580E00895A4E0B0E0E5
:10213000ECE9F0E10C94222E0E946210882371F0E9
:102140000E94D50869837A838B839C8369817A8115
:102150008B819C812496E2E00C943E2E0E94D5084F
:1021600069837A838B839C83809156029091570276
:10217000A0915802B091590229813A814B815C812A
:10218000280F391F4A1F5B1F29833A834B835C83C7
:10219000DDCFB0E0A0E0EFECF0E10C941C2E6C0180
:1021A0007B0164E670E088E70E944B2BEC0186011E
:1021B000EC0CFD1CD7FD0CC0F801849164E670E0C6
:1021C0000E94BB2BEC010F5F1F4F0E151F0591F7EF
:1021D0000E943D2C81E0CD2B09F080E0CDB7DEB729
:1021E000E8E00C94382E8091AD039091AE039111EC
:1021F00003C091E089270895882369F062E070E0C8
:102200008CE297E00E94C910811103C08091AD0358
:1022100008951092AD038091AD03EBCFA5E0B0E03F
:10222000E4E1F1E10C94222E8091AD038D83809145
:10223000AE038823F1F00E94D508DC01CB01805465
:102240009B42AE4FBF4F8093A9039093AA03A093E4
:10225000AB03B093AC038D81811108C062E070E0E4
:102260008AE297E00E94C910811108C08091AD03F5
:102270008D838D812596E2E00C943E2E81E0809343
:10228000AD03F4CFB0E0A0E0E8E4F1E10C94182E47
:1022900049015A018B01D82FC92F0E94010A6401FC
:1022A0007501A401B50188E090E00E945D2F9401C2
:1022B000A501B8018D2F9C2F00E20E94DE2E622F17
:1022C00084E290E00E944B2FCDB7DEB7ECE00C9497
:1022D000342EB0E0A0E0EFE6F1E10C94182E182FB8
:1022E000C62FD42F922E0091A10300FF50C08091E1
:1022F000A203811308C08091A303861304C08091B8
:10230000A403841729F08091FE0282608093FE026C
:10231000E02FE695F0E0EC54FE4F80818093FC02C4
:10232000802F8E7F8230E9F4ED2FD93708F0E8E76F
:10233000F0E0E65DF94FC1112FC0F4918F2EEF2F21
:1023400000FF0FC080913D0190913E0123E0829FEC
:10235000D0011124A150BD4F891708F48FC00E94ED
:10236000DE0F1093A203C093A303D093A40399207C
:1023700071F02091A1036091A5037091A603312F04
:10238000AE018091A7039091A8030E944211CDB79E
:10239000DEB7ECE00C94342EEC2EF12CE49126E028
:1023A000129F600111242FEF30E0C601B9010E9495
:1023B000FE2D812F90E0880F991FF5E5F69FA00173
:1023C000F79F500D1124841B950BB82EBB0CB80E33
:1023D000A9014E195F09E49FC001E59F900D1124EA
:1023E000F92FCB9DA0011124452F5527D901A41BFE
:1023F000B50BEA9FA001EB9F500D1124852ED9014A
:10240000AB19B1095D01AE9CD001AF9CB00DBE9C73
:10241000B00D1124AB2FBB272A1B3B0BE29FD00131
:10242000E39FB00D112463307105D1F02CEFC2167B
:1024300023E0D20670F461307105B1F062307105AD
:10244000B9F02FEFC216D10408F07ACF892EFB2FF6
:1024500077CF6430710579F066307105B9F370CFCC
:10246000F52F8E2EE92F6CCFFE2FE52F892E68CF0A
:102470008B2EFE2FF7CF8E2EEB2F62CF1196EC9383
:102480001197FC9312968C9212978F5F139664CFDC
:10249000E1EAF3E0438121E1421B08F440E021E05E
:1024A000628181810E9469110895E1EAF3E043812C
:1024B00021E1420F08F44FEF21E0628181810E9407
:1024C00069110895E1EAF3E0628121E1621B08F4F9
:1024D00060E021E0438181810E9469110895E1EA71
:1024E000F3E0628121E1620F08F46FEF21E04381A4
:1024F00081810E9469110895E1EAF3E0818121E080
:102500004381628188500E9469110895E1EAF3E0F5
:10251000818121E043816281885F0E946911089571
:102520008091A503882319F081508093A503209101
:10253000A1033091A2034091A3035091A4036091A1
:10254000A5037091A6038091A7039091A8030E9410
:10255000421108958091A503833018F48F5F809312
:10256000A5032091A1033091A2034091A3035091B0
:10257000A4036091A5037091A6038091A703909195
:10258000A8030E94421108952091A10320FF24C0B6
:10259000217022602093A1038091FE0281608093CC
:1025A000FE02662381F03091A2034091A303509173
:1025B000A4036091A5037091A6038091A703909155
:1025C000A8030E94421120E04091A4036091A3035C
:1025D0008091A2030E94691108959091A10396959C
:1025E0008FEF890F913009F481E061E00E94C412FD
:1025F000089561E081E00E94C4120895E1EAF3E0E9
:1026000083E0808311828FEF828388E78383148243
:10261000ACEFB2E012968C911297836012968C9375
:10262000758123E030E04FEF58E760E086819781C5
:102630000E94421108959091BB0392FB222720F93A
:10264000281779F080FB92F99093BB036091BA034D
:102650007091BB0384E090E00E94692F82E00E94A9
:102660007E0D0895A6E0B0E0E8E3F3E10C941A2EA5
:102670008D837B01A42EB22E3E836801DB018D91F8
:102680009D910D90BC91A02DBC01CD010E94B5087B
:1026900069837A838B839C836436710581059105F8
:1026A00010F4AA2061F1BD810B2F0B2E000C110B31
:1026B00088E0B802F0011124E050FF4F818192813F
:1026C0008C5C9D4F408150E0C416D50608F4A601ED
:1026D0006B2D7E810E941E2FC8010E94882D898348
:1026E000882341F00E94D508D7016D937D938D9387
:1026F0009C93139789812696EAE00C94362EB1E0DC
:10270000B983F8CFA1E0B0E0E8E8F3E10C94202E23
:102710008091BC02898341E090914802981301C0E6
:1027200040E001E010E09E012F5F3F4F61E572E065
:1027300084E00E9432132196E4E00C943C2EABE03E
:10274000B0E0E5EAF3E10C94202E88E0E1EAF3E062
:10275000DE01119601900D928A95E1F78091FC02BD
:102760009091FD02A091FE0289879A87AB8741E094
:102770008B85811101C040E00BE010E09E012F5FCE
:102780003F4F6DE472E083E00E943213811110929A
:10279000FE022B96E4E00C943C2EA8E0B0E0E3EDC2
:1027A000F3E10C94212E8091490290914A02A0916C
:1027B0004B02B0914C02BC01CD010E94B50811E062
:1027C000643671058105910578F10E949610DC014F
:1027D000CB010296A11DB11D89839A83AB83BC8373
:1027E00080911101909112018C5C9D4F20911001FC
:1027F000422F50E0253010F044E050E0BE016F5F02
:102800007F4F0E941E2F82E090E00E94882D182F9B
:10281000882351F00E94D5086093490270934A02C0
:1028200080934B0290934C02812F2896E3E00C9406
:102830003D2EEF92FF921F93CF93DF93CDB7DEB77C
:1028400029970FB6F894DEBF0FBECDBF7B0190E095
:1028500080E00E94882D182F882309F47DC0809184
:102860000301482F50E0882311F041E050E06091CF
:102870000401709105016C5C7D4FCE0105960E94AC
:102880001E2F8091300290913102A0913202B091BE
:102890003302BC01CD010E94B50864367105810583
:1028A000910540F485E392E00E9445079D818917D8
:1028B00009F452C081E090E00E94882D81111BC074
:1028C00010E080912C0290912D02A0912E02B091E7
:1028D0002F02F70180839183A283B383812F2996EE
:1028E0000FB6F894DEBF0FBECDBFDF91CF911F9121
:1028F000FF90EF90089580910B01482F50E08530B4
:1029000010F044E050E060910C0170910D016C5C9E
:102910007D4FCE0101960E941E2F85E392E00E941A
:1029200045079D818913CCCF0E94D5086093300262
:1029300070933102809332029093330289819A819D
:10294000AB81BC8180932C0290932D02A0932E0228
:10295000B0932F0211E0B5CF8091350290913602ED
:10296000A0913702B091380289839A83AB83BC83EC
:102970001111E4CFA6CFA8E0B0E0E1ECF4E10C94B3
:10298000222E66EE7EEF90E080E00E94692F60E0EC
:1029900082E090E00E944B2F60E083E090E00E9494
:1029A0004B2F10921E0210921D0260E074E184E031
:1029B00090E00E94692F60E086E090E00E944B2F3B
:1029C0006FEF87E090E00E944B2F40E050E0BA01AB
:1029D00088E090E00E945D2F60E084E290E00E9439
:1029E0004B2F60E087E190E00E944B2F60E08CE08D
:1029F00090E00E944B2F60E08DE090E00E944B2F12
:102A000019821A821B821C821D821E821F821886D6
:102A100048E050E068E170E0CE0101960E943B2F53
:102A200040E050E0BA0180E290E00E945D2F40E07B
:102A300050E0BA018FE090E00E945D2F40E050E04E
:102A4000BA0183E190E00E945D2F2896E2E00C94A9
:102A50003E2E1F920F920FB60F9211242F933F9389
:102A60004F935F936F937F938F939F93AF93BF9396
:102A7000EF93FF938091E10082FF09C08091E20013
:102A800082FF05C08091E1008B7F8093E1008091FF
:102A9000DA0080FF24C08091D80080FF20C08091A0
:102AA000DA008E7F8093DA008091D90080FF9BC08E
:102AB00080E189BD82E189BD09B400FEFDCF81E0DE
:102AC0008093E1038091BC03811109C00E945C07DF
:102AD0000E94FD078091E20084608093E200809173
:102AE000E10080FF17C08091E20080FF13C0809159
:102AF000E2008E7F8093E2008091E200806180930B
:102B0000E2008091D80080628093D80019BC85E0F3
:102B10008093E1038091E10084FF29C08091E2006D
:102B200084FF25C080E189BD82E189BD09B400FE32
:102B3000FDCF8091D8008F7D8093D8008091E100F7
:102B40008F7E8093E1008091E2008F7E8093E2008F
:102B50008091E20081608093E2008091E20388230B
:102B600009F447C084E08093E1038091E103809100
:102B7000E10083FF27C08091E20083FF23C08091A2
:102B8000E100877F8093E10082E08093E10310926F
:102B9000E2038091E1008E7F8093E1008091E2006A
:102BA0008E7F8093E2008091E20080618093E2005A
:102BB00042E060E080E00E94CB078091F0008860F6
:102BC0008093F000FF91EF91BF91AF919F918F9112
:102BD0007F916F915F914F913F912F910F900FBE19
:102BE0000F901F90189519BC1092E1031092BC032E
:102BF00076CF8091E30087FD02C081E0B4CF83E00F
:102C0000B2CF78941F921FB61F9211248F939F9377
:102C1000AF93BF938091B6039091B703A091B8038F
:102C2000B091B9030196A11DB11D8093B603909395
:102C3000B703A093B803B093B903BF91AF919F912D
:102C40008F911F901FBE1F9018959C014FB7F8944D
:102C50008091B6039091B703A091B803B091B903E6
:102C60004FBF821B930B08952FB7F8948091B60342
:102C70009091B703A091B803B091B9032FBF089505
:102C80000E9434162091F8023091F902232B21F092
:102C90008093F4029093F5022091FA023091FB02A6
:102CA000232B21F08093F2029093F302E091B10381
:102CB000F091B203309749F082E08093F6020480ED
:102CC000F581E02D86EF92E00995089510921C029F
:102CD00080914001EAEBF1E0882329F18091BA0369
:102CE00087FF21C08EE1DF011D928A95E9F790E010
:102CF00080E00E947A0990E080E00E9454091092DE
:102D00001B020E94CB0E86E0E6EFF2E0DF011D928F
:102D10008A95E9F71092EF021092F0021092F102F8
:102D20000E944016089586E0DECFAAE2B0E0EBE90B
:102D3000F6E10C94212E83EE93E0FC0101962091A4
:102D4000F100208323E08B3E9207B9F78091E403E2
:102D5000893009F456C0C8F4823009F4B2C0833017
:102D600009F481C0813071F18091E80083FF7CC259
:102D70008091E3039091E4039A3008F075C2E92F43
:102D8000F0E0EF57F04D0C94AA2E8A3009F488C079
:102D90008B3051F78091E303813231F78091E70363
:102DA0009091E803892B01F78091E800877F809359
:102DB000E8000E94AC078091E503809340010E94E7
:102DC0006616D2CF8091E303813A71F68091E800D4
:102DD000877F8093E8008091E7039091E803892B37
:102DE00061F460E28FEB93E070E00E9458088091FC
:102DF000E8008B778093E800B7CF60E090E080E058
:102E0000F3CF8091E303813209F0AECF8091E703E5
:102E10009091E803029708F0A7CF8091E800877FA0
:102E20008093E8008091E80082FF18C09091F30041
:102E30008091F200029731F48091F100813011F01D
:102E4000863021F48091F1008093BE038091E800E8
:102E50008B778093E8000E94AC0786CF8091E103D6
:102E60008111E0CF81CF8091E303813A09F07CCFDB
:102E70008091E7039091E803892B09F075CF809149
:102E8000E800877F8093E8008091E80080FFFCCF16
:102E9000809140018093F1008091E8008E77D9CF36
:102EA0008091E303813209F05FCF8091E800877F52
:102EB0008093E8000E94AC078091E6038093BD03F5
:102EC00053CF8091E303813A09F04ECF8091E8001F
:102ED000877F8093E8008091E80080FFFCCF80919D
:102EE000BD03D8CF803899F0823809F0BDC18091F8
:102EF000E7038F70873008F0B7C18093E9008091B5
:102F0000EB0085FB882780F91092E90006C08091CC
:102F1000DF039091E003911182609091E800977F28
:102F20009093E8008093F1001092F1008091E80006
:102F30008E7796C1882309F484C1823009F094C148
:102F40008091E503811187C18091E7038F702FEF96
:102F5000280F263008F088C18093E9002091EB000B
:102F600020FF79C1933031F48091EB00806280932F
:102F7000EB0071C19091EB0090619093EB0021E028
:102F800030E001C0220F8A95EAF72093EA00109200
:102F9000EA008091EB008860EACF811165C1109151
:102FA000E5031F778091E3008078812B8093E30015
:102FB0008091E800877F8093E8000E94AC078091B1
:102FC000E80080FFFCCF8091E30080688093E300FD
:102FD00082E0111183E08093E10346C18058823082
:102FE00008F042C14091E5035091E6034C3D83E077
:102FF0005807A1F583E08A838AE289834FB7F89462
:10300000DE01139620E03EE051E2E32FF0E0509322
:103010005700E49120FF03C0E295EF703F5FEF702F
:103020008E2F90E0EA30C0F0C7968D939D932F5F6E
:10303000243159F74FBF8091E800877F8093E800E3
:103040006AE270E0CE0101960E9458088091E80083
:103050008B778093E80008C1C096E7CF2091E70303
:103060003091E803852F99278330910509F160F4A9
:103070008130910509F472C0029709F0F5C08BE325
:1030800090E0E8E2F8E029C08132910509F45AC0E5
:10309000829709F0E9C02115310509F469C0213092
:1030A000310509F0E1C086EB90E0EEE2F7E015C0F3
:1030B000CA0199274130B1F18230910509F43AC033
:1030C000892B09F0D1C0E5E9F8E0E4918E2F90E07A
:1030D000E5E9F8E0009709F4C7C02091E800277FF0
:1030E0002093E8002091E9033091EA0382179307C7
:1030F00008F49C0140E02115310509F03EC0411162
:103100003CC08091E80082FDA1CF8091E10388233B
:1031100009F49CCF853009F499CF8091E80083FFB2
:10312000F0CF94CFE3E8F8E0E4918E2F90E0E3E86D
:10313000F8E0D0CFE5E7F8E0E4918E2F90E0E5E706
:10314000F8E0C8CF2115310571F02130310509F0C3
:103150008BC089E090E0E3E5F8E0BFCF82E190E04A
:10316000E3E6F8E0BACF89E090E0EAE3F8E0B5CF33
:1031700084E490E0E4EEF7E0B0CF8091E1038823AF
:1031800009F464CF853009F461CF8091E80083FDB4
:103190005DCF8091E80082FDB4CF8091E80080FF90
:1031A000AACF9091F3008091F2002115310519F01A
:1031B0008830910550F041E0089709F040E0809197
:1031C000E8008E778093E80096CF44914093F10019
:1031D0003196215031090196E8CF803809F044C07A
:1031E0008091E800877F8093E8008091E2038093DC
:1031F000F1009CCE811138C01091E5031230A0F58A
:103200008091E800877F8093E8001093E2030E949A
:10321000AC07112311F084E005C08091E30087FD25
:10322000FACF81E08093E10342E061EC81E00E940B
:10323000CB0742E261EC82E00E94CB078091E10380
:1032400013C08091E503813079F481E0933009F077
:1032500080E08093E0031092E9008091E800877F8E
:103260008093E8000E94AC078091E80083FF0AC0C9
:103270008091E800877F8093E8008091EB00806276
:103280008093EB00AA96E3E00C943D2E1F920F92E0
:103290000FB60F9211242F933F934F935F936F9329
:1032A0007F938F939F93AF93BF93CF93DF93EF93CE
:1032B000FF93D091E900DF708091EC00C82FC170BE
:1032C00080FDC0E81092E9008091F000877F809334
:1032D000F00078940E9495161092E9008091F00019
:1032E00088608093F000CD2BCF70C093E900FF91F0
:1032F000EF91DF91CF91BF91AF919F918F917F918E
:103300006F915F914F913F912F910F900FBE0F9052
:103310001F9018950E9466162FEF84E39CE02150C1
:1033200080409040E1F700C0000088E19CE00FB6CB
:10333000F894A895809360000FBE90936000FFCF33
:10334000662309F45DC08D3C41F40E94390A8195E1
:103350008093F9020E94401608958E3C19F40E9451
:10336000390AF6CF8F3C31F40E94390A8195809357
:10337000F802F0CF803D19F40E94390AF8CF893D58
:1033800029F40E94170A8093FA02E4CF8A3D21F4BF
:103390000E94170A8195F7CF8B3D31F40E94170ADE
:1033A00081958093FB02D6CF8C3D19F40E94170AB9
:1033B000F8CF9FE2980F983070F4815D990B21E06F
:1033C00030E001C0220F8A95EAF78091F702822B44
:1033D0008093F702BFCF8D3D31F48091F10281607F
:1033E0008093F102B7CF8E3D21F48091F10282608B
:1033F000F7CF8F3D09F0AECF8091F1028460F0CF1E
:103400004091F8028D3C59F48091F90287FF0DC07C
:103410001092F90241110BC01092EF0208C08E3CCD
:1034200081F48091F90218169CF3442381F0809175
:10343000FA029091FB02892B09F08CCF1092F002D6
:1034400089CF8F3C49F447FFF0CF1092F80280916A
:10345000F9028111ECCFE0CF803D19F41416ACF3E2
:10346000E4CF9091FA02893D29F41916F4F61092EE
:10347000FA02DBCF8A3D19F497FFD7CFF8CF9091AE
:10348000FB028B3D29F497FFD0CF1092FB02CDCFEA
:103490008C3D19F41916CCF3C8CF9FE2980F9830E1
:1034A00090F4815D990B21E030E0B90102C0660F14
:1034B000771F8A95E2F7CB0180959091F7028923D7
:1034C0008093F702B2CF8D3D31F48091F1028E7F6F
:1034D0008093F102AACF8E3D21F48091F1028D7F7D
:1034E000F7CF8F3D09F0A1CF8091F1028B7FF0CF14
:1034F000882399F19CEF980F913A40F4682F88EB5C
:1035000091E00E94F2080E94CB0E089590E2980F7D
:10351000983050F4877091E001C0990F8A95EAF7CE
:10352000892F0E94A90CEFCF9BE5980F933028F4C8
:1035300090E080E00E947A09089598E5980F9B3109
:1035400028F490E080E00E945409089593E3980FD6
:10355000933118F460E00E94A0190895CF93C82F0A
:103560008823D1F18CEF8C0F813AC0F58091400116
:10357000882311F18091BA0387FF1EC0EC2FE695D6
:10358000E695E695F0E0E854FE4F828190E04C2FFE
:10359000477021E030E002C0220F331F4A95E2F766
:1035A00082239323892B89F06C2F88EB91E00E9472
:1035B000F2080E94CB0E09C0EAEBF1E08191C81736
:1035C00099F321E0E03CF207C9F76C2F88EB91E01A
:1035D0000E941E090E94CB0ECF91089580E28C0FAD
:1035E000883068F4C77021E030E001C0220FCA952E
:1035F000EAF780911C02822B80931C02EBCF8BE5B3
:103600008C0F833038F42C2F2452330BC9010E94C5
:103610007A09E2CFE8E5EC0FEB3150F4F0E0EE0F81
:10362000FF1FE659FE4F808191810E945409D4CF3B
:1036300083E38C0F833180F661E08C2F0E94A01908
:10364000CBCFFF920F931F93CF93DF93C62FD42F2F
:10365000122FFC0185818823A9F0609327040E9422
:1036600034169093260480932504C77081E001C02E
:10367000880FCA95EAF70E94270FCDB7DEB7E5E0BD
:103680000C943B2E80912704681333C0809125044D
:10369000909126040E942516883C910550F500E281
:1036A0000D0FCD17A9F0C770FF24F3948F2D01C023
:1036B000880FCA95EAF70E94200F083048F48D2F32
:1036C000877001C0FF0C8A95EAF78F2D0E94270FA3
:1036D000812F0E94AE1A812F0E94781A083068F656
:1036E000D77081E001C0880FDA95EAF70E94200FB9
:1036F000C4CFC77081E001C0880FCA95EAF7F6CF42
:10370000B0E0A0E0E6E8FBE10C94192E8C01FC018E
:103710008481882309F48EC021E040815181628137
:10372000738195810E94F50DEC01F80145814423D8
:1037300009F486C49C013A9599272115FFE43F07B7
:1037400038F090E080E0CF3FD10509F008F4CE01D9
:10375000BC01645071096432710518F08B970E97A3
:1037600080F4E0917C02F0E0EE0FFF1FEF57FD4F79
:10377000808191818F3F5FE7950719F001969183D2
:103780008083F80181818093C50280818093C40287
:1037900080E280933301D093C302C093C202CE0172
:1037A00090528115904268F0CE019054811590415D
:1037B00010F5F8018681807F49F421153F4118F505
:1037C00005C0F8018681807F09F450C0FE01FF2703
:1037D000ED33F10528F4E455FF4FE491E093330114
:1037E000FE01E851FC47E730F10508F03FC0E5571E
:1037F000F04D0C94AA2E21153F4140F3CE01805A82
:103800009245809768F3FE01E3CF26E241EE61EE38
:10381000C8010E94211B8091F901877059F0F801BD
:103820008581882339F08091BB0382FF03C082E049
:103830000E947E0DCDB7DEB7EBE00C94352E27E26B
:1038400045EE65EEE5CF26E241EE60EEE1CF27E200
:1038500045EE64EEDDCF26E241EE62EED9CF27E2FF
:1038600045EE66EED5CF28E241E0EBCF109227047B
:10387000CE019057839708F0FDC384E090E00E944A
:10388000352F9093BB038093BA03FE01E150F047BC
:10389000E232F10520F4EE56F04D0C94AA2E809100
:1038A000BA0381608093BA036091BA037091BB033D
:1038B00084E090E00E94692F0E946616ACCF809150
:1038C000BB0388608093BB03EFCF8091BA03826013
:1038D000E9CF8091BA038460E5CF8091BA03886014
:1038E000E1CF8091BB038160EDCF8091BB0382600B
:1038F000E9CF8091BA038061D5CF8091BA0380620D
:10390000D1CF8091BA038064CDCF0E94661680919A
:10391000BA038068C7CF8091BA038C60C3CF80910F
:10392000BB038360CFCF8091BA038E7FBBCF8091E2
:10393000BB03877FC7CF8091BA038D7FB3CF8091C0
:10394000BA038B7FAFCF8091BA03877FABCF8091D3
:10395000BB038E7FB7CF8091BB038D7FB3CF8091A8
:10396000BA038F7E9FCF8091BA038F7D9BCF8091CA
:10397000BA038F7B97CF0E9466168091BA038F7728
:1039800091CF8091BA03837F8DCF8091BB038C7FD1
:1039900099CF8091BA0382FB992790F921E0922771
:1039A00090FB82F990FB83F97DCF8091BB03982F28
:1039B000909591708E7F892B90FB81F983CF9091A8
:1039C000BA03892F8F7B96FF80646CCF0E946616A6
:1039D0009091BA03892F97FB87F9805863CF61E0F4
:1039E0008EE090E00E944B2F5FCF60E0F9CF909186
:1039F000BA03892F8F7E94FF806154CF9091BA03D0
:103A0000892F8E7F90FF81604DCF9091BB03892FCE
:103A1000877F93FF886056CF8091D80169E281113A
:103A200065E388EB91E00E94F20838C3442309F46F
:103A300013C3CA355CE7D50709F4E4C008F0BBC07E
:103A4000C1309CE7D90709F4DBC0C330ECE7DE07DF
:103A500009F4D0C0C115DC4709F4BFC0F801858165
:103A6000E080F180882309F4D1C0C7010E94BB0C1B
:103A7000C82F682FC7010E94310DB7018C2F0E94FB
:103A8000730B0E94910BD82FC92F982EF801B58087
:103A9000A680A2942FE0A2228091F9018770F1F014
:103AA000EB2CBB20E1F0892F807F803451F080E245
:103AB0008D0F883098F0A11004C0892F807E80324D
:103AC00069F08091BB0382FF09C082E00E947E0DF5
:103AD0008091F9018770EE24E3948111E12C8C2F01
:103AE00082958F70C82ED12C8C3008F0F4C0F6016E
:103AF000EC54F04D0C94AA2E8091A10380FF1CC0C1
:103B0000282F2E7F2093A1033091A2034091A3037D
:103B10005091A4036091A5037091A6038091A7031F
:103B20009091A8030E9442118091FE0281608093CF
:103B3000FE020E94DE0F6FCE81608093A10361E0E0
:103B400086950E94C41267CE4DEE52E169EF72E194
:103B50000E94FA0960CE49EF52E16DEE72E1F8CFB2
:103B60004CE752E166E872E1F3CF46E852E16CE7D8
:103B700072E1EECF42E652E16FE672E1E9CF4FE645
:103B800052E162E672E1E4CF48E452E165E572E1B8
:103B9000DFCF45E552E168E472E1DACF40E952E176
:103BA0006AEA72E1D5CF4AEA52E160E972E1D0CF28
:103BB00061E081E0C6CFCB352CE7D20729F1CC35C7
:103BC000DC4709F04BCF8091BB0382FB882780F94B
:103BD00091E089270E941B1341CF0E9466168FEF48
:103BE00094E3ECE081509040E040E1F700C0000039
:103BF0000E94BA0F6FEF7FEF90E080E00E94692F84
:103C00000E948A1981E0E6CF80E0E4CFC7010E94DC
:103C1000FE0CC82F32CFFC2FFF70FF2EC07F19F093
:103C2000F29490EFF9228D2FBB20B9F0FF2069F0BC
:103C300090E29D0F983010F0D11109C080911C02C4
:103C4000F82AF0921C020E94CB0E8D2F42C0809168
:103C50001B02F82AF0921B02F6CF0E94781AFF206E
:103C6000D1F1D05ED83010F0911004C08F2D0E9499
:103C7000A90C06C0F09480911B02F822F0921B025E
:103C80000E94CB0E28C02C2F2F70F22EC07FC03286
:103C900019F0F29480EFF822992059F051E095162E
:103CA00009F47AC0BB2009F486C0AA2009F448C0F0
:103CB000CCCF8091BB0382FD3FC0BB20B9F1FF2078
:103CC00039F080911C02F82AF0921C020E94CB0E5F
:103CD00080E00E94AE1A98E0C91AD108E4E0CE163E
:103CE000D10410F40E948510EE20A9F08091F90112
:103CF00080FD11C0F80115828695869586950E94F3
:103D0000950DC8010E94801B8091F90186958695CA
:103D100086950E946C0D20E0F801408151816281FE
:103D20007381848195810E94F50D84CD80E00E948D
:103D3000781AFF2081F29ACFBB20A1F0A11004C015
:103D40008F2D0E94270FC7CF81E0A812C4CF80918A
:103D50001A029F2D9823F91609F4BDCFF82AF09284
:103D60001A02B9CFA110B7CF8F2D0E94200F9091CA
:103D70001A028F2D892329F08F2D80958923809316
:103D80001A028091D9019F2D982309F4A4CFF094B1
:103D9000F822F092D9019FCFBB2029F095E09A1527
:103DA00008F499CFCDCFE4E0EA1508F494CF8F2D35
:103DB0000E94200F90CFAA20D1F3D93349F4FFEF0E
:103DC00027EE53E0F15020405040E1F700C00000E2
:103DD0008D2F0E94781A7FCF8C2F869586958370C1
:103DE00069F0813009F077CF8D2F9C2F9370B1103F
:103DF00002C080E090E00E9454096DCF8D2F9C2F6F
:103E00009370B11002C080E090E00E947A0963CF05
:103E10006B2D8D2F0E94A0195ECF8C2F837009F01F
:103E200040C0B11058CF4D2F429546954770440F72
:103E3000440F2D2F2F7030E0042E02C0220F331FAD
:103E40000A94E2F790E080E0D4FF09C08FE090E0B0
:103E500002C0880F991F4A95E2F780959095C69504
:103E6000C695C370C230A1F0C33079F040911D02F5
:103E700050911E02C13039F0822B932B842395235D
:103E80000E94A50D28CF242B352B822B932BF8CF06
:103E9000822B932B20911D0230911E0282279327A3
:103EA000EFCF8695BB2011F08C2F8170882309F409
:103EB00012CF4D2F429546954770440F440F2D2F3A
:103EC0002F7030E0042E02C0220F331F0A94E2F755
:103ED00090E080E0D4FF09C08FE090E002C0880F3E
:103EE000991F4A95E2F780959095C695C695C3703F
:103EF000C230A1F0C33079F04091C0025091C102AC
:103F0000C13039F0822B932B842395230E94670DB7
:103F1000E2CE242B352B822B932BF8CF822B932BA5
:103F20002091C0023091C10282279327EFCFCF703A
:103F3000BB2029F08C2F0E94950D8D2F02CF8D2F45
:103F40000E94200F8C2F0E946C0DC5CE8D2F92EFFA
:103F5000991699F1991570F0E0EF9E16D1F0F1EFF6
:103F60009F1691F0BB2009F45BC0A1106ECE8C2F80
:103F70008F7127C023EF921639F154EF9512F2CFCB
:103F80008091BB0382FD2EC08C2F8F71BB20D9F294
:103F900018C0BB2069F084E08A1508F49CCECF716C
:103FA00081E090E002C0880F991FCA95E2F7B8CF70
:103FB00095E09A1508F48FCEF2CF8C2F8F71B11047
:103FC000C2CF0E94950D87CE90E080E0BB2009F41F
:103FD0009DCFCF7181E090E002C0880F991FCA95F4
:103FE000E2F794CFBB2089F0CF718C2F0E94950D02
:103FF0008091BB0382FF07C0E8E0CE9FC00111247F
:1040000083608093F9018C2FDCCF81E00E947E0DCC
:10401000F1E0FA1508F05FCE82E00E947E0D5BCEE3
:10402000AA2059F0893309F0D3CE2FEF57EE83E061
:10403000215050408040E1F7C9CE8C2F8F7183CF43
:10404000FC01E851FC47E730F10508F4D0CBC6315C
:104050002CE7D20709F4E0CC80911C028272FE01A9
:10406000E052F847E531F10508F0F8CCE054F04DA6
:104070000C94AA2EC6312CE7D20709F0D7CC809138
:104080001C028A7A91E009F490E09093D80169E2E9
:10409000811165E388EB91E00E941E090E94CB0E1E
:1040A000BACBCF93DF938091F801807F09F04DC0A8
:1040B0008091F701882309F448C0E09124045091CD
:1040C000EB03C091F301D091F2016091F401709182
:1040D000F50147E05E17C9F18E2F90E0E49FF001F3
:1040E0001124E451FC4F2481222391F1489FF001D7
:1040F000499FF00D1124DF01A451BC4F11962C9162
:1041000011972C1325C02C912D1322C015962C919C
:10411000159721111DC012962D913C91261B370B2E
:10412000283C3105A8F48091F8018F70806180935C
:10413000F801EE50FC4F80818F708061808382EFA8
:1041400091E00E94801B0E94B10CDF91CF910895F5
:10415000FC013196E770BECFADE0B0E0E2EBF0E2FB
:104160000C94182E8C0186E0F801DE01189601905F
:104170000D928A95E1F7F8018481E58092EFA92EEE
:1041800091E0B92E9091F601911128C0882319F180
:10419000EE20F1F0C8010E94AA0DF82E8823C1F08C
:1041A00087E0F801D50101900D928A95E1F78091A1
:1041B000F601813031F48091F2019091F3010E9477
:1041C000EF0C0E9451208F2D2D96ECE00C94342E94
:1041D000C8010E94801BFF24F394F5CFD080C180DA
:1041E00082809380F090F7012091F4013091F501E5
:1041F000A401421B530BFF2009F4BCC0483C5105ED
:1042000008F092C08823F9F29091F3018091F801AF
:10421000282F207F09F056C0C91214C09091F201D6
:10422000D91210C0E11048C08F7080618093F801EE
:1042300082EF91E00E94801B8091F801F801868353
:10424000F12CC1CFE11038C06C2D8D2D0E942707B5
:104250006C2D8D2D0E942707E82E8111F1CFD88675
:10426000C986888599850E94EF0C292F22952F7089
:10427000903458F49F70223088F0992399F0F80117
:104280009681907F79F4FE2C9ECF2A5F2F7022308A
:1042900068F0C8010E94801BEF2CF5CF992311F024
:1042A000882389F3805E883070F3F3CF803F58F322
:1042B000815F833040F3EDCF8091F801816080937E
:1042C000F801BECFC91207C09091F201D91203C004
:1042D000EE2009F470C0C8010E94AA0D882309F4D9
:1042E00077CFEE2009F474CF8091F801803288F006
:1042F0002091F2013091F3013A8329839C828B82D1
:104300009091F6019D831E828F83CE0101960E94BB
:10431000801B87E0F801A2EFB1E001900D928A9531
:10432000E1F70E94512057CF9091F801292F207F6B
:1043300051F482EF91E00E94801B87E0F501119219
:104340008A95E9F77DCF882309F43DCF8091F30169
:104350008C11C1CF8091F201D812BDCFE110BBCF3B
:104360009683C8010E94801B87E0F50111928A950F
:10437000E9F729CF483C5105B8F7882309F42BCF3A
:10438000FE2CEE2009F424CF8091F3018C1120C083
:104390008091F201D8121CC08091F80180FD0FC0FD
:1043A000982F907F61F08683903F31F0982F907F17
:1043B000905F8F70892B8683C8010E94801B87E0E5
:1043C000F801A2EFB1E001900D928A95E1F7FBCEE2
:1043D000C8010E94AA0D81119CCF8091F8018160D3
:1043E0008093F801C8010E94801BEDCEABE1B0E0E4
:1043F000ECEFF1E20C94202E4E8B5F8B688F798F5F
:104400008A8F192F9B8F911110921B021D8A86E0B3
:10441000FE017696DE011F9601900D928A95E1F7D6
:104420000A8D002341F021E04F85588969897A89F6
:10443000C8010E94F50D0B8B1C8B87E0FE013F9697
:10444000DE01189601900D928A95E1F7CE0108964B
:104450000E94AC2081110CC087E0FE013896DE017D
:10446000119601900D928A95E1F74C8541110BC090
:1044700017E0809124049091EB03891332C06B966E
:10448000E4E00C943C2E2091EB0330E0C90101964E
:10449000877099275091240458171906A1F04D836D
:1044A00097E0929FD001939FB00D1124A451BC4F6F
:1044B000FE01319601900D929A95E1F78093EB03FE
:1044C0000E94B10CD5CF0E9466161092EB03109299
:1044D000240487E0E2EFF1E0DF011D928A95E9F71D
:1044E000C7CF819FC001112484519C4F0E94AC20F2
:1044F000882329F28091240490E0019687709927FF
:1045000080932404B6CFA7E1B0E0E9E8F2E20C948E
:10451000182E1D861C86FE013E9686E0DF011D9248
:104520008A95E9F782EAE82E81E0F82E10E000E0B3
:10453000CC24C394D12C2CEAA22E21E0B22EF70178
:1045400081917F018F3F09F445C0F894E82FE295EF
:10455000EF70F0E021A18F70A60102C0440F551F3B
:104560008A95E2F7CA01922F982B91A392A1809588
:10457000892382A3789400C0E6EAF1E031E0912C2F
:1045800021912F3F09F470C0A22FA295AF70B0E027
:1045900090968C9190E02F7002C0959587952A9502
:1045A000E2F780FD61C0832F982A330FAE16BF0655
:1045B00039F7F701319780818F3F11F00E94690A26
:1045C00050EA5A95F1F7ECE0F0E0EC0FFD1FE00F38
:1045D000F11F90820F5F1F4F0430110509F0AFCF1C
:1045E00048E050E0BE01645F7F4F8AE592E00E94A0
:1045F000112F9C01892B49F088E0FE013C96AAE529
:10460000B2E001900D928A95E1F700916302232BAD
:1046100069F181E0809323020E9434169093220274
:104620008093210280912102909122020E942516FE
:10463000059700F110E00B591D4F44E050E06AE58A
:1046400072E0C8010E94112FE12C892B51F084E007
:10465000EAE5F2E0D80101900D928A95E1F7EE24A7
:10466000E3941092230207C080E09ECF8091230242
:104670008111D8CFE12C0E946210F82EE0916302E4
:10468000882309F489C01A8219821C821B820E2F8A
:1046900010E00B591D4F809155028A3008F046C03A
:1046A00049E154E1BE016F5F7F4FC8010E942910AC
:1046B000882309F460C04DEC53E1BE016F5F7F4F6A
:1046C000C8010E942910882309F455C04FE953E11D
:1046D000BE016F5F7F4FC8010E942910882309F433
:1046E0004AC042E853E1BE016F5F7F4FC8010E949C
:1046F0002910882309F43FC010925502809162026C
:1047000090E044E050E0BE016F5F7F4F8B599D4FBA
:104710000E94112F21E020932A02892BF1F4F12C21
:104720008F2D8E296796ECE00C94342E8091240214
:10473000909125020E942516843F914008F0B0CF49
:1047400080912A02882359F384E0FE013196DF012B
:104750001D928A95E9F710922A02E0916202F0E038
:10476000EB59FD4F89819A81AB81BC818083918314
:10477000A283B383D5CF809155028F3F31F08F5FF5
:10478000809355028A3008F4B9CF0E943416909372
:10479000250280932402D4CFF0E0EB59FD4F8081B5
:1047A0009181A281B3818093350290933602A093C8
:1047B0003702B093380285E392E00E944507809368
:1047C00034028090390290903A02A0903B02B0905F
:1047D0003C028091260290912702A0912802B0917C
:1047E000290288169906AA06BB06D1F080922602F5
:1047F00090922702A0922802B09229020E94621091
:1048000081110EC00E94D508861A970AA80AB90A13
:104810008092560290925702A0925802B09259028A
:104820008BE0EDE3F2E0DE01119601900D928A95A6
:10483000E1F780913D02869500913E02D0903F02C3
:10484000C090400210914702109247021123D1F00C
:1048500010FF10C029812170982F990F292B2983CF
:104860009091A10320FF13C091609093A10360E099
:104870000E94C41211FF06C020E04C2D6D2D802F28
:104880000E946911809148028093BC0249CF9E7FAB
:104890009093A1038091FE0281608093FE020E94AA
:1048A000DE0FE8CFA6E0B0E0E8E5F4E20C94202EBD
:1048B0000E9434168C0180911F0290912002801773
:1048C000910781F019821A820E943416682F49815B
:1048D0005A81792F80E090E00E94F6211093200207
:1048E00000931F022696E4E00C943C2E1F921FB604
:1048F0001F9211248F939F93AF93BF938091B50321
:10490000811113C08091B6039091B703A091B803B1
:10491000B091B9034196A11DB11D8093B603909348
:10492000B703A093B803B093B903BF91AF919F9120
:104930008F911F901FBE1F901895CDB7DEB762975D
:104940000FB6F894DEBF0FBECDBF85B7806885BFB8
:1049500085B7806885BF84B7877F84BF0FB6F8941A
:10496000A89580916000886180936000109260003B
:104970000FBE80E890E00FB6F894809361009093AA
:1049800061000FBE87E69AE09093B7018093B6016D
:104990000E945C070E94FD078091E2008460809382
:1049A000E20078948091E1038823A1F01091E9005E
:1049B0001F709091EC00892F817090FD80E8182B7A
:1049C0001092E9008091E80083FD0E9495161F7007
:1049D0001093E90082E084BD93E095BD9AEF97BD06
:1049E00080936E0010925602109257021092580255
:1049F000109259020E946210809328018091280130
:104A0000882309F478C010923B018BE180933C012C
:104A10000E94621081110E949B2C8091280180913C
:104A2000280194E0811190E09093630284E0891B57
:104A30008093620284E90E94690A86E60E94690AFC
:104A400087E90E94690A86EC0E94690A06EA11E079
:104A5000FCEAEF2EF1E0FF2ED8018D918D018F3F02
:104A600011F00E94690AE016F106B1F788E0E5E668
:104A7000F2E0DF01282F1D922A95E9F7EAE5F2E03E
:104A8000DF011D928A95E9F790E080E00E94352FC2
:104A9000863E9E4F11F00E94BB1482E090E00E947F
:104AA000272F80936D0284E090E00E94352F909331
:104AB000BB038093BA030E948322EFEFF6E721E065
:104AC000E150F0402040E1F700C000000E94832246
:104AD0000E946210E4E08111E0E0F0E0EB59FD4F4C
:104AE000808181FF0CC06FEF7FEF90E080E00E943B
:104AF000692F0E94BA0F8BE180933B0187CF83E03F
:104B000090E00E94272F90E00E94A50D0E94621065
:104B100083E08093E60280E2809328040E94452B84
:104B20006BE070E08FE192E00E94C910882309F4E5
:104B300043C08091E60265E070E081FD27C18AE113
:104B400092E00E94C9108823B9F16DE070E088E01E
:104B500092E00E94C910882379F10E94D5086B87E2
:104B60007C878D879E87DC01CB0180549B42AE4FB2
:104B7000BF4F8093A9039093AA03A093AB03B09374
:104B8000AC03EBE2F4E080E092E0DF019C011D92D7
:104B900021503040E1F7F0933206E09331068FEF79
:104BA0009FEF90932A048093290481E08093AE03C1
:104BB0008093AD031092E70280916402811176C068
:104BC00090E080E00E94352F863E9E4F21F00E94AB
:104BD000BB140E94FE1288E090E00E942F2F6B0110
:104BE0007C0184E290E00E94272F282F30E040E0F3
:104BF00050E060E070E080E090E000E20E94C32EB0
:104C0000260137012C2935294E2957292093A10344
:104C10003093A2034093A3035093A4036093A5038E
:104C20007093A6038093A7039093A8038091FE023C
:104C300083608093FE022E7F61F50E94FE1288E061
:104C400090E00E942F2F6B017C0184E290E00E9493
:104C5000272F282F30E040E050E060E070E080E057
:104C600090E00E94C32E26013701C22A35294E2921
:104C70005729C092A1033093A2034093A3035093FA
:104C8000A4036093A5037093A6038093A703909356
:104C9000A8030E94010A8091A10380FF04C060E084
:104CA00086950E94C41281E0809364020E94621083
:104CB000811102C00E949E2C89E291E09093B20380
:104CC0008093B103E4E68E2E912CA12CB12C80911F
:104CD000E10300E112E1853009F494C00E948322CF
:104CE0000EE612E075E6E72E72E0F72ED701F80126
:104CF00091918D9126E732E02E173F0709F48CC081
:104D00009817B1F30E946210482ED12C33243394AB
:104D1000D701CD907D01F80151908F015C1429F1EC
:104D20005C24712C66246394852D8621B1F0442087
:104D3000A1F07982DA820E9434169C838B833D82B3
:104D400091E08C2D862109F490E09E8349815A815F
:104D50006B817C818D810E94F6217394660CF6E054
:104D60007F12E2CFF8013197C082D39428E0D212AB
:104D7000CFCF0E9496106093B4027093B5028093D7
:104D8000B6029093B70231E03B874BC085E192E0D9
:104D9000D8CE8091E103843031F10E94F31010925B
:104DA000B50348E150E080E40FB6F894A89540932D
:104DB00060000FBE8093600083B7817F846083BFF3
:104DC00083B7816083BF7894889583B78E7F83BFD4
:104DD0000FB6F894A8958091600088618093600078
:104DE000109260000FBE8091E003882359F00E946A
:104DF0008322E5E6F2E08191811127C492E0ED364D
:104E0000F907C9F78091E103853009F4C2CF0E9408
:104E100066160E94851062CF981374CF0E945224A8
:104E20001B860E946210882309F4C0C0C0908102D2
:104E3000D09082020D2C000CEE08FF081091310179
:104E4000212F30E0E1E8F2E081E090E0329628178F
:104E500039070CF053C280917D0290917E02A0919F
:104E60007F02B0918002BC01CD010E94B5082B01E8
:104E70003C0199EC491651046104710414F18091CC
:104E80007C0290E0019669E170E00E94552E8093CB
:104E90007C02880F991FFC01EF57FD4F1182108291
:104EA000812F183108F087E18F5F809331010E94D4
:104EB000D50860937D0270937E0280937F02909369
:104EC0008002A2E0CA16D104E104F1040CF422C26B
:104ED000A0E6BAEEA70196010E94B02E6F837887F4
:104EE00089879A87B8EC1B9F90011124032E000C30
:104EF000440B550B240D351D461D571DA5E0B0E094
:104F00000E94B02E6F87788B898B9A8B6F81788502
:104F100089859A852F85388949895A890E94692E01
:104F200069017A01E1EFCE16D104E104F1042CF01D
:104F300050EFC52ED12CE12CF12C2091780230912C
:104F4000790240917A0250917B02CA01B9010E9414
:104F5000B5082B013C0135E6431651046104710488
:104F600084F00E94D5086093780270937902809350
:104F70007A0290937B028091BC0280937702C09268
:104F8000760210917702A0917602A11BBB0BA301C0
:104F900092010E94BB2E6F83788789879A87A5012B
:104FA00094010E948B2E120F1093BC028091AE03CD
:104FB000882309F4B1C08091E8029091E9020E942F
:104FC0002516C29708F47EC00E9434169093E90219
:104FD0008093E80260E080E00E94E3098091BC02D7
:104FE00090E09093BF028093BE020E948510809350
:104FF000BD020E946210882309F41DC260E080E0B7
:105000000E94E3098091BB0360E470E080FF86C1E9
:105010008AE695E00E94A00963E080E00E94E3092F
:1050200081E491E00E94310F65E080E00E94E30995
:105030008091C0029091C1020E94D10D813009F48B
:1050400070C1823009F470C1811171C187E491E0AF
:105050000E94310F8091B4029091B502A091B602E6
:10506000B091B7028F839887A987BA870E94621090
:10507000882309F45FC16F81788589859A850E94AC
:10508000B508462F572FBC01413C544D6140710576
:1050900008F461C12091EA023091EB024091EC02E8
:1050A0005091ED02CA01B9010E94B5086F8378875B
:1050B00089879A87613C744D8140910508F44BC102
:1050C0000E94F3108091290490912A04892B09F001
:1050D000D9C18091AD038823F9F00E94D5086F8370
:1050E000788789879A878091A9039091AA03A091D4
:1050F000AB03B091AC032F81388549855A85281BB5
:10510000390B4A0B5B0BDA01C9018F3F9F4FAF4F41
:10511000BF4710F40E94F3104B8541110E940E11FD
:1051200086E0E6EFF2E0DE01119601900D928A959D
:10513000E1F7D090F702F090F8020091F902E090C8
:10514000FA021091FB021092F8021092F9021092EA
:10515000FA021092FB02802F8F2909F445C080913A
:10516000F4029091F5020E9425169C018091EF02B5
:10517000882309F485C225313105B0F18F3F19F03C
:105180008F5F8093EF02FF2059F00E94390A9FEF52
:105190001F140CF491E0899F802D11248093F80254
:1051A000002359F00E94390A91E010160CF09FEF8D
:1051B000899F802D11248093F9028091F802882321
:1051C00099F0C090F902CC2079F00E94590A882306
:1051D00009F433C28093F8028C2D0E94590A882367
:1051E00009F42DC28093F902812F8E2909F445C05C
:1051F0008091F2029091F3020E9425169C01809109
:10520000F002882309F437C221353105B0F18F3F10
:1052100019F08F5F8093F002EE2059F00E94170A78
:105220009FEF1E140CF491E0899F802D1124809330
:10523000FA02112359F00E94170A91E011160CF09E
:105240009FEF899F802D11248093FB028091FA02A9
:10525000882399F0C090FB02CC2079F00E94590A73
:10526000882309F4EEC18093FA028C2D0E94590A1A
:10527000882309F4E8C18093FB028091F702D812D9
:1052800019C08091F802882311F08F1113C020916A
:10529000F902222311F020130DC09091FB029923F3
:1052A00011F0191307C03091FA02311103C0822B9B
:1052B000892B11F00E944016DA82FB820C83ED826A
:1052C0001E8386E0FE013196A6EFB2E001900D92BA
:1052D0008A95E1F70E9485109091EE02891709F4F2
:1052E000F6CC8093EE020E94D5086093EA02709398
:1052F000EB028093EC029093ED02E9CC4081518166
:10530000052E000C660B770BC40ED51EE61EF71E8D
:1053100001969CCDC12CD12C76010FCE8AE295E06E
:1053200079CE8CE491E094CE80E591E091CE89E550
:1053300091E08ECE0E9496106F87788B898B9A8B26
:10534000AB01BC018F819885A985BA85481B590B93
:105350006A0B7B0B99CE0E940E118091B80290913E
:10536000B902A091BA02B091BB02BC01CD010E946A
:10537000B5086F83788789879A87693C71058105AD
:10538000910508F49FCE0E94D5086093B8027093EF
:10539000B9028093BA029093BB02809132018111CD
:1053A00028C06FE00E94E3098FE591E00E94310F71
:1053B0006CE080E00E94E30981E08093320120915B
:1053C000B30230E02F5F3F4F217033272093B302A9
:1053D00040E6429FC001439F900D11242091BD02E1
:1053E00021FF14C060E670E086599B4F0E94A0091F
:1053F00069CE6CE080E00E94E3098FE591E00E94B5
:10540000310F6DE080E00E94E309D9CF2091BE0208
:105410003091BF0260E670E02B3031051CF48655F8
:105420009C4FE4CF293231051CF486519D4FDECFCD
:10543000865D9D4FDBCF60E870E08AEA95E00E94D0
:10544000A0091091BC026EE080E00E94E3091C827A
:105450002AE0812F622F0E94492E905D9B830E943B
:10546000492E905D9A83805D8983CE0101960E94CA
:10547000310F6FE080E00E94E30985E691E00E9431
:10548000310F20CE8091AE03882309F422CE809183
:10549000E70281111ECE0E940E1120912904309145
:1054A0002A042115310509F414CE80E041E050E0D2
:1054B000482E512C1A01082E02C0220C331C0A94CB
:1054C000E2F7B10162237323672B11F48F5FF0CFF2
:1054D0009091E60290FF97C0880F880F880F809305
:1054E000360110923901895F8093370183E0809300
:1054F0003A0124E630E047E050E064E371E088E7F9
:105500000E94EB2B892B09F0E4CD95E0440C551C4F
:105510009A95E1F78091E60280FF87C0E6ECF2E021
:1055200080E2DF011D928A95E9F7E0EBF1E0F88770
:10553000EF834CEA51E087E0F82EAF81B8856D919A
:10554000B887AF83FA018191AF01840D952D911D2C
:105550009C01255D3B4F6901E62FF0E0EA53FD4FCA
:1055600090E080E06F2C681AEE24E394082E01C0CE
:10557000EE0C0A94EAF7B60100E0DB011D91BD01D3
:105580001E21262D201B2770722E022E000C330B9D
:10559000B12F01C0BB0F7A94EAF77B2E319521958C
:1055A00031092770332701C016952A95EAF7712A29
:1055B0001081712A70820F5F0830F9F601963196DA
:1055C0008830910579F6EF81F885E45BF14009F0C8
:1055D000B4CF04E610E020E230E046EC52E060E4B4
:1055E00088E70E94122C892B09F073CD2094309407
:1055F0008091290490912A042822392230922A0489
:105600002092290466CD8295880F8076809336019A
:105610009201369527953695279520933901815E1D
:105620008093370120933A0164CFA201455D5B4F1F
:1056300004E610E020E230E0D2CF81E0CBCD81E083
:10564000D1CD81E010CE81E016CE09BD19BD09B4DF
:1056500000FEFDCF8091D8008F7D8093D80080918F
:10566000E00082608093E0008091E00081FDFCCF4B
:105670000E946616C7CB2B30310508F0CACDFDCD90
:105680002B30310508F07CCDAFCD1092B9008CE005
:105690008093B8000895B0E0A0E0E1E5FBE20C944F
:1056A000192EB82EEB010E9434166C01EE24E394FF
:1056B000F12CC431D10560F025E0E22EF12CCF3F72
:1056C000DC0731F0CE0164E170E00E94FE2D7B0129
:1056D00084EAA82E94E8992E1092BC00A092BC00F7
:1056E0000E943416182F092F8091BC0087FF0DC02F
:1056F0008091B900887F883001F18091B900887F5E
:105700008031D9F00FEF1FEF09C0812F902F0E9439
:105710002516E816F90640F70EEF1FEFCF3FDC071E
:10572000D9F2C6010E942516C817D907A8F6C801E4
:10573000CDB7DEB7EBE00C94352EB092BB00909263
:10574000BC000E943416182F092F8091BC0087FFDF
:105750000AC02091B900287F283111F0203491F639
:1057600010E000E0E4CF812F902F0E942516E8166C
:10577000F90658F7D1CF0F931F93CF93DF93EB0127
:105780008093BB0084E88093BC000E943416182FDD
:10579000092F8091BC0087FF11C02091B900287F9C
:1057A00081E090E0283211F490E080E091958195BD
:1057B0009109DF91CF911F910F910895CF3FDC07A1
:1057C00041F3812F902F0E942516C817D90708F79B
:1057D0008EEF9FEFEECFB0E0A0E0E1EFFBE20C94A4
:1057E0001C2E6B018A01F22EE32E622F732F0E9472
:1057F0004B2BAC01E6010C0D1D1DC017D10711F09C
:1058000057FF09C084E98093BC00CA01CDB7DEB759
:10581000E8E00C94382E6F2D7E2D89910E94BB2BD1
:10582000AC01EBCFB0E0A0E0E8E1FCE20C941C2E70
:10583000C62F6A017901B8010E944B2B9C0197FD8C
:105840000DC0B8018C2F0E94BB2B9C01E601EC0C13
:10585000FD1CCE15DF0511F037FF09C084E98093E8
:10586000BC00C901CDB7DEB7E8E00C94382EB80112
:1058700089910E94BB2B9C01ECCF84E98093BC00F2
:1058800008958EE14A9B02C08150E1F74A9BFECF0A
:1058900008955A9880E28A95F1F75A9A0895FC0182
:1058A0003BE03A95F1F798E020E080E031E040E11C
:1058B0004A95F1F7880F4A9B02C08160232742E096
:1058C0004A95F1F7000040E14A95F1F7915079F7D8
:1058D00090E19A95F1F799B132E03A95F1F700002D
:1058E00040E14A95F1F792FB992790F992272081A0
:1058F000920F90830895A1E0B0E0E1E8FCE20C94FF
:105900001E2E19828C017C01E60EF11C0E151F055E
:1059100041F481E09981911180E02196E6E00C94B8
:105920003A2E0E94412CCE0101960E944F2CF80184
:1059300081938F01EBCF529A5A9A089552985A9AAE
:10594000EA9AE9E6F0E080818F7C808308956150D7
:10595000770B91E001C0990F6A95EAF720E031E0FA
:10596000911108C0222391F05A9A80E28A95F1F7AA
:105970005A980895492F482339F05A9A232740E22C
:105980004A95F1F79695ECCF5A98F9CF5A98EDCF02
:10599000FF920F931F93CF93DF93EC018C01060FBF
:1059A000111DC017D10729F4CDB7DEB7E5E00C947F
:1059B0003B2EF9900E94492C68E08F2D0E94A72C65
:1059C000F0CF1F920F920FB60F9211240F931F93D7
:1059D0002F933F934F935F936F937F938F939F93F7
:1059E000AF93BF93EF93FF93CF93DF930F92CDB716
:1059F000DEB719820E94412CCE0101960E944F2CE5
:105A0000282F082F069506950695982F9295957044
:105A1000802F8570980F892F837096959695890FA2
:105A2000822787709981892B09F05CC0063008F0C5
:105A300059C080E18A95F1F75A9A529A82E08A9584
:105A4000F1F700C05A9888E0089F80011124D8011E
:105A5000A050BF4F1696ED91FC9117973097A9F083
:105A60006091A0017091A10114962D913C91159720
:105A7000260F371F11968D919C911297680F791FF1
:105A800013964C9113978C910995F801E050FF4FB4
:105A90006381662351F02091A0013091A10184819E
:105AA0009581820F931F0E94C82C0E94492C80E18F
:105AB0008A95F1F75A9852985A9A80E18A95F1F7A7
:105AC000F801E050FF4F6081662351F02091A00162
:105AD0003091A10181819281820F931F0E947B2CC2
