:100000000C9426060C945E060C945E060C947331D8
:100010000C945E060C945E060C945E060C945E06D0
:100020000C945E060C945E060C94BF140C94F018AD
:100030000C942D290C945E060C945E060C945E06BE
:100040000C945E060C945E060C945E060C945E06A0
:100050000C945E060C9497150C945E060C945E0648
:100060000C945E060C945E060C945E060C945E0680
:100070000C945E060C945E060C945E060C945E0670
:100080000C945E060C945E060C945E060C945E0660
:100090000C945E060C945E060C945E060C945E0650
:1000A0000C945E060C945E060C945E061A00140016
:1000B00000001C00180000000500110000000A00EC
:1000C0000B00000017001C000000100036000000AC
:1000D0001100100000003600370000002020202012
:1000E0006162636465666768696A6B6C6D6E6F7088
:1000F0007172737475767778797A31323334353634
:1001000037383930524542545F2D3D5B5D5C233BAF
:1001100027602C2E2F2020202B0014001A0008000E
:1001200015001700290004281624072209210A00B7
:10013000E0001D001B000600190005000000000083
:100140000000E300E1002C412A00130012000C0023
:1001500018001C00340033280F240E220D210B0040
:10016000E2003800370036001000110000000000E7
:10017000000029002A00284201001E021F0220025E
:100180002102220201000100010001000100010022
:1001900001001D011B0106011901E3000000000020
:1001A00000000100010001004C0027022602250288
:1001B00024022302350230022F022E022D023102C8
:1001C000350030002F002E002D003100000000000F
:1001D000000001000100010001001E001F002000BE
:1001E00021002200010001000100010001000100C6
:1001F0000100AA00A900AC00AE00AB0000000000A6
:1002000000000100010001002A002700260025004F
:10021000240023004C0044004F00520051005000C5
:10022000010045000100010001001B7000000000FA
:10023000000001000100010000DA028178D9F1DB41
:1002400020A4A62EAF00A0C0D30000A1C8D30000F8
:10025000AED580A81F408D14200000000000E010E3
:100260000808C8B08080808080808040403C1404B2
:100270000890180408B0408000000000000001024F
:10028000C4A4FC000000008000000000000000008A
:100290000080C858282A100F000000000000000E3F
:1002A00009040404040203020101020204081026E6
:1002B0002B320405060000000000000000E01010D2
:1002C000F000000000000000008080807828081006
:1002D00020300810204080000000000000030408C7
:1002E0001011F901010101010100000000000000EE
:1002F000000110B05055201F000000000000000059
:1003000000000001020C10202837021E2020180CCB
:10031000141E0100000000000000000000000000AA
:100320000000000000000000E01C0205022404049C
:1003300002A91EE000000000000000000000000014
:10034000E01008681008040300000000000000022C
:1003500006827C0300000000000000000000000096
:100360000102040C1010202020283E1C20203E0FEB
:10037000111F00000000000000000000000000004D
:100380000000000000000000E01C0205022404043C
:1003900002A91EE00000000000000000000000E0D4
:1003A000900818601008040300000000000000021C
:1003B0000E827C030000000000000000000000002E
:1003C0000102040C1010202020283E1C20203E0F8B
:1003D000111F0000000000000000000101010101E8
:1003E00001010101020202020202020202030303EE
:1003F00003030303030404040404040405050505BE
:10040000050606060606070707070708080808097D
:100410000909090A0A0A0B0B0B0C0C0C0D0D0D0E29
:100420000E0E0F0F0F1010111111121213131414BE
:10043000151516161717181819191A1A1B1B1C1D33
:100440001D1E1E1F2020212222232424252626278C
:100450002829292A2B2C2D2D2E2F303132323334BE
:1004600035363738393A3B3C3D3E3F4041424344C4
:1004700045464748494A4C4D4E4F505153545556A6
:1004800058595A5B5D5E5F616264656668696B6C52
:100490006D6F7072737577787A7B7D7E80828385CD
:1004A00087888A8C8E8F91939596989A9C9EA0A20D
:1004B000A3A5A7A9ABADAFB1B3B5B7BABCBEC0C217
:1004C000C4C6C9CBCDCFD1D4D6D8DBDDDFE2E4E7DB
:1004D000E9EBEEF0F3F5F8FAFDFF00AF00AE5B5D7F
:1004E000007B7D002829003D3E003D3C003E3D0054
:1004F00005010902A10185020901A10005091901EF
:1005000029081500250195087501810205010930AA
:1005100009311581257F95027508810609381581F5
:10052000257F950175088106050C0A38021581257D
:100530007F950175088106C0C005010980A101856C
:100540000319012AB700150126B70095017510811E
:1005500000C0050C0901A101850419012AA002159A
:100560000126A002950175108100C005010906A1B0
:10057000018506050719E029E7150025019508758D
:100580000181020507190029EF1500250195F07575
:10059000018102050819012905950575019102954A
:1005A0000175039101C005010906A101050719E0C4
:1005B00029E7150025019508750181029501750847
:1005C00081010507190029FF150026FF0095067512
:1005D00008810005081901290515002501950575F3
:1005E000019102950175039101C009023B000201CE
:1005F00000A0FA0904000001030101000921110112
:1006000000012244000705810308000109040100DC
:10061000010300000009211101000122B6000705B5
:10062000820320000112010002000000085346016D
:10063000000100010200010C0343006F0072006E14
:100640000065000000100366006F006F0073007407
:100650000061006E000000040309040000000000B7
:10066000000000000000000000000000000000008A
:100670000000000000000000000000000000007EFC
:100680000F00D4FFFFFFC70000007800000000004B
:100690000000002A2B2800000000000000000000DD
:1006A00000000000000029000000002C1E34202162
:1006B0002224342627252E362D3738271E1F2021A9
:1006C00022232425263333362E37381F0405060708
:1006D00008090A0B0C0D0E0F101112131415161722
:1006E00018191A1B1C1D2F3130232D350405060740
:1006F00008090A0B0C0D0E0F101112131415161702
:1007000018191A1B1C1D2F3130354C000000000039
:10071000003E5B4F5B3E003E6B4F6B3E001C3E7CE1
:100720003E1C00183C7E3C18001C577D571C001CCA
:100730005E7F5E1C0000183C180000FFE7C3E7FF67
:1007400000001824180000FFE7DBE7FF0030483AFC
:10075000060E00262979292600407F05050700405E
:100760007F05253F005A3CE73C5A007F3E1C1C0891
:1007700000081C1C3E7F0014227F2214005F5F00D3
:100780005F5F0006097F017F00006689956A00604F
:10079000606060600094A2FFA2940008047E0408D8
:1007A0000010207E20100008082A1C0800081C2ABF
:1007B0000808001E10101010000C1E0C1E0C00303B
:1007C000383E383000060E3E0E06000000000000E5
:1007D0000000005F000000000700070000147F1405
:1007E0007F1400242A7F2A12002313086462003633
:1007F0004956205000000807030000001C22410059
:10080000000041221C00002A1C7F1C2A0008083E10
:100810000808000080703000000808080808000080
:1008200000606000002010080402003E5149453E6F
:100830000000427F40000072494949460021414979
:100840004D33001814127F10002745454539003CF0
:100850004A494931004121110907003649494936C1
:1008600000464949291E00000014000000004034E1
:100870000000000008142241001414141414000095
:1008800041221408000201590906003E415D594EFB
:10089000007C1211127C007F49494936003E4141DB
:1008A0004122007F4141413E007F49494941007F4B
:1008B00009090901003E41415173007F0808087F82
:1008C0000000417F4100002040413F01007F0814AB
:1008D0002241007F40404040007F021C027F007F99
:1008E0000408107F003E4141413E007F090909068E
:1008F000003E4151215E007F0919294600264949E1
:1009000049320003017F0103003F4040403F001F88
:100910002040201F003F4038403F0063140814630C
:10092000000304780403006159494D4300007F41EE
:10093000414100020408102000004141417F0004B1
:10094000020102040040404040400000030708004C
:10095000002054547840007F2844443800384444F0
:10096000442800384444287F003854545418000068
:10097000087E0902001824241C78007F08040478EB
:100980000000447D4000002040403D00007F1028D2
:1009900044000000417F4000007C04780478007C23
:1009A00008040478003844444438007C182424188F
:1009B00000182424187C007C0804040800485454BF
:1009C00054240004043F4424003C4040207C001C8C
:1009D0002040201C003C4030403C0044281028446B
:1009E000004C9090907C004464544C4400000836C5
:1009F00041000000007700000000413608000002BE
:100A000001020402003C2623263C000000000000F6
:100A10000000000000000000000000C0E0F0F8F856
:100A20001800C0F0FCFEFFFFFFFFFFFFFF7E00008D
:100A30000000000000000080C0E0E0E0E0E0E0E056
:100A4000E0C0800000000080C0E0E0E0E0E0E0E026
:100A5000E0C080000000E0E0C0C0E0E0E0E00000B6
:100A6000E0E0C0C0E0E0E0E0E0C080000000008026
:100A7000C0E0E0E0E0E0E0E0E0C080000000000076
:100A8000000000000000000000E0F0F0F0E0ECEEFC
:100A9000F7F37020007C7C7C7E007E7E7E7F7F7FF3
:100AA000000080C0E07E5B4F5BFEC00000C000DC49
:100AB000D7DEDEDED7DC00C0000000000000000052
:100AC0000000000000000000000000000000000026
:100AD00000000000F8FCFEFFE000FFFFFFFFFFFF4B
:100AE00080FFFFFFFFFFFFFFFFFF1F070100000068
:100AF000000000000000FFFFFF8100000000000078
:100B000081C3C3C30000FFFFFF810000000000009D
:100B100081FFFFFF0000FFFFFF0100000000000059
:100B2000FFFFFF010000000001FFFFFF0000FFFFCB
:100B3000FF9D1C1C1C1C1C1C9DDFDFDF0000000037
:100B40000000000000000000000F1F3F7F7F7F7F3C
:100B50007F3F1E0C001F1F1F3F003F3F3F7F7F7FD7
:100B600000307B7F7830202030787F3B0003000FFF
:100B70007F0F0F0F7F0F0003000000000000000038
:100B80000000000000000000000000000000000065
:100B900000000000030F1F3F3F3F3F1F1F3F3F7FED
:100BA0007F7F3F3F1F3F7F7F7F7F7C7878381C0FA0
:100BB0000000000000000001030707070707070700
:100BC00007030100000000010307070707070707E5
:100BD00007030100000007070700000000000000F5
:100BE00007070700000000000007070700000001DA
:100BF00003070707070707070703010000000000B6
:100C000000000000000000000000000000000000E4
:100C100000000000000000000000000000000000D4
:100C200000000000000000000000000000000000C4
:100C300000000000000000000000000000000000B4
:100C400000000000000000000000000011241FBE92
:100C5000CFEFDAE0DEBFCDBF04B603FE18C080914F
:100C6000DC069091DD06A091DE06B091DF068730AC
:100C7000904BA740B04B59F41092DC061092DD0661
:100C80001092DE061092DF06E0E0F8E3099511E02D
:100C9000A0E0B1E0EEEDF8E602C005900D92A03DB7
:100CA000B107D9F726E0A0EDB1E001C01D92AC3D3F
:100CB000B207E1F70E9454290C9411340C940000FF
:100CC000CF93DF932091DA063091DB06A901445DD2
:100CD00054402457344021303240C0F020E032E00C
:100CE000241B350B6091D2047091D304FC01CA011E
:100CF000240F351FC1E0D0E08217930750F07093A6
:100D0000D3046093D204DF91CF91089520E630E0C0
:100D1000E9CF4491DC01AC52BB4F5C91451781F0A7
:100D20004C93AC01A5E056954795AA95E1F7DE01F5
:100D300002C0AA0FBB1F4A95E2F7AD016A2B752BC3
:100D400001963196D9CF982FE091CD04409184043B
:100D500059E0E41302C080E008952E2F30E05E9F3A
:100D6000F0011124EB57FB4F8181681306C080818D
:100D7000981303C085818111EFCFF9013196E77097
:100D8000E8CFFC01AC014C5F5F4F8FEF91E3219105
:100D9000822728E030E087FF09C0880F892721508B
:100DA0003109C9F7E417F50791F70895880FF7CFD0
:100DB000E8EDF0E080818E7F80831092E200109257
:100DC000DA001092E100A0EEB0E08C9181608C938B
:100DD00080818F77808319BCA7EDB0E08C918E7FE6
:100DE0008C9380818F7E808310925504089520918A
:100DF000E4003091E50095E6A9012091EC00822FF6
:100E0000817020FF06C08091E80080FF06C080E06E
:100E100008952091E80022FD1AC080917A04882369
:100E200089F0853089F08091EB0085FD0FC020911D
:100E3000E4003091E50042175307F9F29150E1F6D2
:100E400084E0089582E0089583E0089581E00895A4
:100E500080917C0487FF13C08091E80082FF06C068
:100E60008091E8008B778093E80004C080917A0439
:100E70008111F2CF089580917A048823D9F380916B
:100E8000E80080FFF8CF8091E8008E77ECCF982FB4
:100E90009093E900242F762F50E0891731F070915C
:100EA000EC002091ED005091F00021FD07C09F5F04
:100EB000973071F78093E90081E008953091EB005D
:100EC0003E7F3093EB003091ED003D7F3093ED009D
:100ED0003091EB0031603093EB007093EC00209385
:100EE000ED005093F0002091EE0027FDE0CF80E070
:100EF0000895B0E0A0E0EFE7F7E00C94AE32C8ED63
:100F0000D0E088818F7E8883E7EDF0E0808181608A
:100F1000808384E082BF81E08093550488818E7F46
:100F2000888302EE10E0F80110821092DA0081EE60
:100F3000C82ED12CF601108288818F778883888112
:100F40008068888388818F7D888319BC10927A0499
:100F500010927B04109279041092780490EEE92E9E
:100F6000F12CF70180818B7F808388818160888369
:100F700042E060E080E00E944707F60180818E7FBA
:100F80008083F80180818160808380818860808394
:100F9000F70180818E7F8083888180618883CDB7CF
:100FA000DEB7E8E00C94CA32FC01CB012091820448
:100FB000309183042617370790F0009729F4209189
:100FC000E8002E772093E80040E0009751F44111AB
:100FD00008C08091E80082FF31C080E00895C90117
:100FE000F3CF20917A042223A9F12530A9F1209191
:100FF000E80023FD2DC02091E80022FDEACF2091DA
:10100000E80020FFE2CF3091F3002091F20000973A
:1010100019F02830310558F041E02830310509F049
:1010200040E02091E8002E772093E800CECF419158
:101030004093F10001972F5F3F4FE9CF80917A04F1
:10104000882341F0853041F08091E80083FFC1CFD3
:1010500081E0089582E0089583E008958091570427
:101060000895A4E0B0E0E7E3F8E00C94B232462F34
:10107000572FBC012FB7F89480914F0490915004E2
:10108000A0915104B09152042FBF8C019D01041B0B
:10109000150B260B370BC901B8012496E4E00C941C
:1010A000CE32A4E0B0E0E7E5F8E00C94B4328FB7BC
:1010B000F89420914F043091500440915104509184
:1010C000520429833A834B835C838FBF69817A8181
:1010D0008B819C812496E2E00C94D0329C0180911B
:1010E00078018823C9F08091530487FF15C0E62F4B
:1010F000E695E695E695603FE0F4E20FF32FF11DEB
:10110000677081E090E001C0880F6A95EAF78095EA
:101110009281892382830895F9013296285F3F4F97
:101120008191681303C0DF0111971C92E217F30746
:10113000B9F708959C01809178018823C1F08091CE
:10114000530487FF14C0E62FE695E695E695603FC9
:10115000F8F4E20FF32FF11D677021E030E001C0D9
:10116000220F6A95EAF78281822B82830895F90122
:1011700032968FEF90E04191641751F08F3F19F450
:10118000411101C0892F9F5F9630A9F78F3F09F465
:101190000895280F311D87FD3A95F901628308955E
:1011A000A3E0B0E0E6EDF8E00C94B4329C0180914D
:1011B0004C0490914D0482179307A1F030934D0495
:1011C00020934C04E0914A04F0914B04309751F085
:1011D00084E089833B832A830680F781E02DCE015A
:1011E000019609952396E2E00C94D032A3E0B0E09A
:1011F000ECEFF8E00C94B4329C018091480490919B
:10120000490482179307A1F03093490420934804BE
:10121000E0914A04F0914B04309751F083E08983C8
:101220003B832A830680F781E02DCE010196099544
:101230002396E2E00C94D032AC01309144046091EA
:101240004504232F621301C00895822F90E0FC0112
:10125000EE0FFF1FE45CFB4F0190F081E02DE417DF
:10126000F50791F467E0649FF001659FF00D11248C
:10127000E15CFE4F41E044832313E6CF0196837087
:1012800099278093440408950196282F2370DACF7C
:101290001092D0031092CF03EFE3F1E087E791E0E3
:1012A0002581211102C01482168237968E179F075E
:1012B000B9F708952091D10436E0839FC00111242D
:1012C000629F800D911D1124811522E0920714F078
:1012D00090E080E08C529B4F9093DB068093DA067F
:1012E0000895FA01882311F009950895FB01FCCFB8
:1012F0008091BD03982F9E7F71F48091BD03817012
:1013000082608093BD038091C003893718F088E71D
:101310008093C0030895843080F7F5CF80910D034A
:1013200080FD16C081FD16C082FD16C080910C03A1
:101330008823A1F0883280F428E0829FC001112424
:1013400068E270E00E94E732862F672B39F008953B
:1013500082E0089584E0089588E0089581E008958A
:1013600080910D0380FD14C081FD14C082FD16C064
:1013700080910B03882381F08E3180F420E5829FD9
:10138000C00111246EE170E00E94E732862F0895BB
:1013900084E1089588E2089588E0089580E508953D
:1013A000282F35EB2303C001112497FF04C0805878
:1013B0009109892F089580589F4FFBCF80E00895B1
:1013C000F894E82FE295EF70F0E041A18F7021E0F2
:1013D00030E0B90102C0660F771F8A95E2F7CB01B2
:1013E000962F9095942391A392A1892B82A3789410
:1013F00008959091530492FF10C041E0282F24716A
:10140000243009F040E031E0282F2871283009F01D
:1014100030E0431711F02CE0822793FF10C041E029
:10142000282F2471243109F040E031E0282F287161
:10143000283109F030E0431711F02CE08227309179
:10144000540430FF10C051E0282F2171213009F0E1
:1014500050E041E0282F2871283009F040E054176F
:1014600011F029E0822731FF10C041E0282F2171BF
:10147000213109F040E031E0282F2871283109F0AE
:1014800030E0431711F029E0822794FD877E08950C
:10149000803E9105C1F1C8F48133910509F47DC006
:1014A00048F48932910509F46DC08A32910509F436
:1014B0007BC0089589339105D1F082389105B9F048
:1014C0008533910509F459C00895843E9105C1F111
:1014D00038F4823E910521F1833E910531F1089562
:1014E000863E9105C1F1873E9105E1F10895209175
:1014F0005304237009F065C02091540423FF14C0E5
:1015000089E290E008952091530420FD43C030917A
:10151000540430FF09C024FF4EC090E080E00895DD
:101520002091530422FDF7CF08952091530422FD0A
:1015300045C03091540430FD44C024FFF5CFEDCFB9
:101540002091540421FFF0CF8091530484FDE5CF16
:1015500087EE90E008952091530423FFE5CF24FD0A
:10156000DCCFF6CF2091530423FD2EC030915404DC
:1015700031FFE3CF84EE90E008952091530425FFDE
:10158000D3CFBECF2091530425FD21C02091540418
:1015900023FFCACF89E390E0C7CF2091530426FFF1
:1015A000C3CF8AE290E008952091530426FFBCCF78
:1015B00081E390E0089583EE90E0089582EE90E05C
:1015C000089580EE90E0089586EE90E0089585E31A
:1015D00090E008957830B8F46630A8F48330B0F421
:1015E000E62FF0E096E0799FE00DF11D112490E3E5
:1015F000899FE00DF11D1124EE0FFF1FE85EFE4FE5
:1016000085919491089580E090E0089581E0FCCF69
:101610001F93CF93DF930E94480AEC0181159245F6
:1016200008F05FC0C11580E5D80708F0DDC0C03EF6
:10163000D10538F5CD3CD10508F0AEC0C83AD1058A
:1016400080F4C53AD10508F0A4C0C130D10509F431
:1016500043C0CE010497813A9105F0F1D0E0C0E09B
:101660003BC0CE01885A91094B97C0F7C85AD0E0C9
:10167000CC0FDD1FCC57DE4F0990D881C02DD4642C
:101680002BC0C11590E4D907F0F4C11520E2D207B0
:1016900008F0C4C0C83ED105F8F0CE019A95811576
:1016A0009F41E0F68D2F0E94F909182FCE0199274E
:1016B0000E94480AC12FD0E0DC2FCC27CC27DF7155
:1016C000C82BD92B09C0CE0199270E94480ACC27E4
:1016D000DF70C82BD92BD06ACE01DF91CF911F913B
:1016E0000895C03882E5D807B8F5C03692E5D90725
:1016F00008F05BC0C03422E5D207C8F4C03282E5EE
:10170000D80708F04BC02C2F2695269590E2299FEC
:10171000900111248C2F8370C1E0D0E002C0CC0F67
:10172000DD1F8A95E2F7C22BD32BDD68D5CF2C2F96
:1017300026952695277080E2289F900111248C2FF2
:101740008370C1E0D0E002C0CC0FDD1F8A95E2F7C4
:10175000C22BD32BDC68C0CFC03C92E5D90760F424
:101760008C2F8F71C03AD245A8F5C82FD0E0DC2F5E
:10177000CC27C46FD06AB0CFCE01805C92458097F1
:1017800008F06CCFDC2FCC27CC27DF71C06FD06A7C
:10179000A3CFA497D064A0CFD0659ECFCF71D0E067
:1017A000DC2FCC27C16FD06A97CF2C2F269526959A
:1017B000277080E2289F900111248C2F8370C1E054
:1017C000D0E002C0CC0FDD1F8A95E2F7C22BD32BED
:1017D000DA6882CF0E94F909C82FD0E0DC2FCC272D
:1017E000CC27DF71D06278CF8C2F8F710E94F909DE
:1017F00055E0D695C7955A95E1F7CF70D0E0DC2F2C
:10180000CC27282F30E084FF05C044E0220F331F8F
:101810004A95E1F7C22BD32BD0695ECF8D2F8F7104
:101820000E94F909182FCE0199270E94480AC12F5A
:10183000D0E0DC2FCC27CC27DF71C82BD92BD2CF1F
:10184000809139028111109239020895982F909554
:101850008091CB0389238093CB0308958091CD049D
:1018600090918404981301C008958F5F8770FACF18
:10187000B0E0A0E0EEE3FCE00C94AD328C01E0902F
:10188000DC02F090DD0280913A0290913B02E82A5E
:10189000F92ACFE0D0E0CC24C394D12CBC2EC601D1
:1018A0000C2E02C0880F991F0A94E2F78E219F2107
:1018B000892B49F4219790F7B12C8B2DCDB7DEB74A
:1018C000E9E00C94C932B8018C2F0E94EA0A0E9408
:1018D000080B019779F3F1CFCF93DF93D82FC92F5E
:1018E0000E94380C6D2F7C2F0E94EA0A0E94080B80
:1018F000DF91CF910895983078F5863068F5E82F1C
:10190000F0E086E0989FE00DF11D11249E2F977066
:1019100083E0F695E7958A95E1F7EE0FFF1FEE0F4E
:10192000FF1FE950FE4F50E040E080E0219130E0A1
:10193000092E02C0369527950A94E2F721703327C5
:10194000042E01C0220F0A94EAF7822B4F5F5F4FEB
:101950004430510559F7089580E00895983098F57E
:10196000863088F5E82FF0E086E0989FE00DF11DC5
:1019700011248E2F877041E001C0440F8A95EAF749
:1019800083E0F695E7958A95E1F7EE0FFF1FEE0FDE
:10199000FF1FE950FE4F30E020E070E05191DF0181
:1019A0001197CB01022E02C0969587950A94E2F713
:1019B000817081958527842385278C932F5F3F4FE6
:1019C0002430310559F708959093DD028093DC02AD
:1019D000089521E030E002C0220F331F8A95E2F71C
:1019E000209530958091DC029091DD028223932333
:1019F0000E94E40C089590911802809589238093A9
:101A00001802282F277069F4891759F0909154040F
:101A100092FF07C08695869586950E94E90C1092E4
:101A20001802089521E030E002C0220F331F8A958A
:101A3000E2F78091DC029091DD02822B932B0E94D1
:101A4000E40C089590933B0280933A020895FC01C0
:101A500084818823B1F0878190850097A1F00E944E
:101A6000080B282F92959F709630B9F088F4925FFA
:101A70009F70923030F481E0203FA9F058F4283E66
:101A800058F080E009C0808191810E946C0CE9CF00
:101A90009A5FEECF243FA9F7089581E0283E20F019
:101AA000213F79F7F9CF08950895A6E0B0E0EBE57E
:101AB000FDE00C94B3329C01FC0187819085009776
:101AC000E1F486E0DE01119601900D928A95E1F72E
:101AD000F901258189819A81222399F0662389F071
:101AE0000E94380C182F682F89819A810E94AE0CB1
:101AF00069817A81812F0E94EA0A2696E3E00C949C
:101B0000CF320E947B0C182FF3CF9C019A95811540
:101B10009F4120F431FF02C082E0089580E00895E3
:101B2000CF93DF93682F81E06A3019F06D3031F484
:101B300080E00E94100EDF91CF9108958091DA0627
:101B40009091DB0626E0FC01A4EDB6E001900D9239
:101B50002A95E1F7603E08F458C026E0FC01119296
:101B60002A95E9F7C091DA06D091DB0646E050E00D
:101B7000BE0184ED96E00E94A3339E01245D3440B3
:101B8000892B41F1C90145E0969587954A95E1F782
:101B900041E050E0BA0102C0660F771F8A95E2F774
:101BA000CB016091D2047091D304862B972BB9019D
:101BB0006B5F7F4FE5E076956795EA95E1F702C0A8
:101BC000440F551F6A95E2F7842B952B9093D3040D
:101BD0008093D2042A5F3F4F4091D104642F70E07C
:101BE000C9010E949032481B463010F4240F311D69
:101BF000211572E0370710F030E020E02C523B4F07
:101C00003093DB062093DA0696CFF6E06F9FB001A3
:101C10001124655F784F46E050E00E949A33A2CFCE
:101C2000CF93382FE091DA06F091DB06E45DF440C3
:101C30002091D104622F70E0CF010E949032281BC6
:101C4000822F332361F066E00E94DB32C82FC1503F
:101C500010F4CF91089580E20E94900DF8CF9F017B
:101C6000280F311D2115324018F080E0F0E0E0E04F
:101C70008E0F9F2F911D8C529B4F9093DB0680936C
:101C8000DA06E7CF8091CB039091D103892B809323
:101C9000D201909139029923A1F0892B8093D2012E
:101CA000809178018823E1F18091530487FF38C047
:101CB0008EE1E4EDF1E090E08150A0F591110E94F9
:101CC000200C40E250E069E172E082ED91E00E9478
:101CD000A333892B21F180E2E2EDF1E0A9E1B2E04A
:101CE00001900D928A95E1F7E0914A04F0914B043E
:101CF0003097A9F080917801882359F0809153049E
:101D000087FF07C08091D2018093D30186E0809342
:101D1000D2010280F381E02D82ED91E009950895D2
:101D200086E0C7CF2191222339F29F5FC5CF882358
:101D300041F080959091D10389238093D1030E9433
:101D4000420E08958091CE03882329F082E20E94FA
:101D5000970E1092CE030895882339F09091D10305
:101D6000892B8093D1030E94420E0895882321F08D
:101D70000E94260C0E94420E0895882339F090910B
:101D8000CB03892B8093CB030E94420E08950F93BF
:101D90001F93CF93DF93EC01FC0101900020E9F742
:101DA0008F0101501109C017D10728F0DF91CF91A1
:101DB0001F910F91089589910E94900DF4CF0F9378
:101DC0001F93CF93DF938B01EA0190917A049430B3
:101DD00061F58093E9008FEF9091E800815095FDC7
:101DE00006C095ED9A95F1F700008111F5CF80912D
:101DF000E80085FF1AC00E94F706811111C080918A
:101E0000E80085FD06C08091E8008E778093E800A9
:101E1000F2CFF80181918F018093F100219779F73A
:101E20008091E8008E778093E800DF91CF911F9139
:101E30000F910895BC0143E050E082E00E94DF0E64
:101E40000895BC0146E050E082E00E94DF0E089554
:101E5000CF93DF93D82FC92F80917801811113C0C0
:101E600048E050E06D2F792F81E00E94DF0E80E284
:101E7000ED2FFC2FA8E5B4E001900D928A95E1F7D3
:101E8000DF91CF9108958091530487FF06C040E20F
:101E900082E050E06D2F7C2FE8CF48E081E0F9CF61
:101EA00081E08093E00080E28093D8001092C90026
:101EB0008FE19EE40197F1F700C0000087E090EB0E
:101EC000DC018093DC069093DD06A093DE06B093E0
:101ED000DF0688E19CE00FB6F894A8958093600037
:101EE0000FBE90936000FFCF60913B018091BD03D6
:101EF00080FF20C080913A0143E0849FC0011124FB
:101F0000855E9C4F539A2BB1277F3BB138605FB7FA
:101F1000F894FC01649FE00DF11D1124BF016817C6
:101F20007907D1F45FBF8FE594E00197F1F700C026
:101F30000000089580913C0190913D0123E0829F33
:101F4000F0011124E55EFC4F8917A0F61182108282
:101F500012828F5F3396F8CFFC014191CF01E8E008
:101F60003BB9000000C047FF2BB9440F000000C080
:101F700000C000C02BB900C0EA9591F7D0CFB0E007
:101F8000A0E0E5ECFFE00C94AC32F82EE92ED62E62
:101F9000C72E8A0180917202AA24A394B12C8A30A0
:101FA00018F48AE0A82EB12CC1E0D0E06D2D7C2D74
:101FB0008F2D9E2DF8010995811104C02196AC1634
:101FC000BD062CF4CDB7DEB7EAE00C94C832CC9F46
:101FD0009001CD9F300D300D112490E080E045E35D
:101FE0004A95F1F70000019682179307C1F7DECFFB
:101FF00080914802811110C08091D8008061809347
:10200000D8008AE18A95F1F700C08091D90080FF5D
:102010000AC081E08093480281E0909148029130AB
:1020200009F080E0089582E0809348020E94D8067B
:1020300010927A04F1CF0E94F80F882359F0E091B2
:102040004A04F0914B04309729F00190F081E02D83
:102050000995089580E00895A4E0B0E0E2E3F0E19E
:102060000C94B4320E94F80F882371F00E9451083A
:1020700069837A838B839C8369817A818B819C813C
:102080002496E2E00C94D0320E94510869837A834E
:102090008B839C838091730290917402A09175024E
:1020A000B091760229813A814B815C81280F391FDA
:1020B0004A1F5B1F29833A834B835C83DDCFB0E0EB
:1020C000A0E0E5E6F0E10C94AE326C017B0164E641
:1020D00070E088E70E94DD2FEC018601EC0CFD1C0E
:1020E000D7FD0CC0F801849164E670E00E944D3089
:1020F000EC010F5F1F4F0E151F0591F70E94CF30A7
:1021000081E0CD2B09F080E0CDB7DEB7E8E00C949C
:10211000CA328091C9039091CA03911103C091E022
:1021200089270895882369F062E070E08CED94E0DF
:102130000E945F10811103C08091C903089510921D
:10214000C9038091C903EBCFA5E0B0E0EAEAF0E172
:102150000C94B4328091C9038D838091CA03882383
:10216000F1F00E945108DC01CB0180549B42AE4F3C
:10217000BF4F8093C5039093C603A093C703B0934A
:10218000C8038D81811108C062E070E08AED94E09F
:102190000E945F10811108C08091C9038D838D81D9
:1021A0002596E2E00C94D03281E08093C903F4CF0D
:1021B000B0E0A0E0EEEDF0E10C94AA3249015A0142
:1021C0008B01D82FC92F0E94780964017501A401E1
:1021D000B50188E090E00E94EF339401A501B801B9
:1021E0008D2F9C2F00E20E947033622F84E290E0DA
:1021F0000E94DD33CDB7DEB7ECE00C94C632B0E020
:10220000A0E0E5E0F1E10C94AA32182FC62FD42FFC
:10221000922E0091BD0300FF50C08091BE03811338
:1022200008C08091BF03861304C08091C003841747
:1022300029F080911A03826080931A03E02FE695BB
:10224000F0E0E253FE4F808180931803802F8E7F51
:102250008230E9F4ED2FD93708F0E8E7F0E0E652F4
:10226000FC4FC1112FC0F4918F2EEF2F00FF0FC034
:1022700080913C0190913D0123E0829FD001112487
:10228000A55EBC4F891708F48FC00E94740F10938D
:10229000BE03C093BF03D093C003992071F0209177
:1022A000BD036091C1037091C203312FAE018091D3
:1022B000C3039091C4030E94D810CDB7DEB7ECE001
:1022C0000C94C632EC2EF12CE49126E0129F6001B2
:1022D00011242FEF30E0C601B9010E949032812F06
:1022E00090E0880F991FF5E5F69FA001F79F500D2C
:1022F0001124841B950BB82EBB0CB80EA9014E19E6
:102300005F09E49FC001E59F900D1124F92FCB9D3B
:10231000A0011124452F5527D901A41BB50BEA9F15
:10232000A001EB9F500D1124852ED901AB19B109E5
:102330005D01AE9CD001AF9CB00DBE9CB00D1124D0
:10234000AB2FBB272A1B3B0BE29FD001E39FB00DB5
:10235000112463307105D1F02CEFC21623E0D206B0
:1023600070F461307105B1F062307105B9F02FEF92
:10237000C216D10408F07ACF892EFB2F77CF6430B4
:10238000710579F066307105B9F370CFF52F8E2E97
:10239000E92F6CCFFE2FE52F892E68CF8B2EFE2FD5
:1023A000F7CF8E2EEB2F62CF1196EC931197FC9303
:1023B00012968C9212978F5F139664CFEDEBF3E039
:1023C000438121E1421B08F440E021E062818181E8
:1023D0000E94FF100895EDEBF3E0438121E1420FED
:1023E00008F44FEF21E0628181810E94FF1008957F
:1023F000EDEBF3E0628121E1621B08F460E021E093
:10240000438181810E94FF100895EDEBF3E062812A
:1024100021E1620F08F46FEF21E0438181810E9486
:10242000FF100895EDEBF3E0818121E043816281AB
:1024300088500E94FF100895EDEBF3E0818121E0C8
:1024400043816281885F0E94FF1008958091C103DB
:10245000882319F081508093C1032091BD033091EE
:10246000BE034091BF035091C0036091C1037091BE
:10247000C2038091C3039091C4030E94D8100895B1
:102480008091C103833018F48F5F8093C103209142
:10249000BD033091BE034091BF035091C0036091D2
:1024A000C1037091C2038091C3039091C4030E9441
:1024B000D81008952091BD0320FF24C02170226010
:1024C0002093BD0380911A03816080931A036623D1
:1024D00081F03091BE034091BF035091C0036091E1
:1024E000C1037091C2038091C3039091C4030E9401
:1024F000D81020E04091C0036091BF038091BE03DB
:102500000E94FF1008959091BD0396958FEF890F5B
:10251000913009F481E061E00E945A12089561E06F
:1025200081E00E945A120895EDEBF3E083E080838E
:1025300011828FEF828388E783831482A8E1B3E05E
:1025400012968C911297836012968C93758123E07A
:1025500030E04FEF58E760E0868197810E94D81005
:1025600008959091540492FB222720F9281779F0BE
:1025700080FB92F990935404609153047091540439
:1025800084E090E00E94FB3382E00E94FB0C0895FF
:10259000A6E0B0E0EEECF2E10C94AC328D837B016E
:1025A000A42EB22E3E836801DB018D919D910D908A
:1025B000BC91A02DBC01CD010E94310869837A83B2
:1025C0008B839C83643671058105910510F4AA20E4
:1025D00061F1BD810B2F0B2E000C110B88E0B802AE
:1025E000F0011124E050FF4F818192818F5A9D4F5D
:1025F000408150E0C416D50608F4A6016B2D7E81FB
:102600000E94B033C8010E941A328983882341F0A6
:102610000E945108D7016D937D938D939C931397DE
:1026200089812696EAE00C94C832B1E0B983F8CFEC
:10263000A1E0B0E0EEE1F3E10C94B2328091D90276
:10264000898341E090916502981301C040E001E068
:1026500010E09E012F5F3F4F6EE672E084E00E9423
:10266000C8122196E4E00C94CE32ABE0B0E0EBE38C
:10267000F3E10C94B23288E0EDEBF3E0DE01119669
:1026800001900D928A95E1F78091180390911903BA
:10269000A0911A0389879A87AB8741E08B858111C6
:1026A00001C040E00BE010E09E012F5F3F4F6AE663
:1026B00072E083E00E94C812811110921A032B96D7
:1026C000E4E00C94CE32A8E0B0E0E9E6F3E10C944B
:1026D000B3328091660290916702A0916802B09136
:1026E0006902BC01CD010E94310811E06436710518
:1026F0008105910578F10E942C10DC01CB01029636
:10270000A11DB11D89839A83AB83BC838091110184
:10271000909112018F5A9D4F20911001422F50E04D
:10272000253010F044E050E0BE016F5F7F4F0E9403
:10273000B03382E090E00E941A32182F882351F0C3
:102740000E9451086093660270936702809368024A
:1027500090936902812F2896E3E00C94CF32EF9298
:10276000FF921F93CF93DF93CDB7DEB729970FB6B4
:10277000F894DEBF0FBECDBF7B0190E080E00E94E9
:102780001A32182F882309F47DC080910301482F45
:1027900050E0882311F041E050E060910401709115
:1027A00005016F5A7D4FCE0105960E94B03380918E
:1027B0004D0290914E02A0914F02B0915002BC0187
:1027C000CD010E943108643671058105910540F400
:1027D00082E592E00E94C1069D81891709F452C0EA
:1027E00081E090E00E941A3281111BC010E08091BC
:1027F000490290914A02A0914B02B0914C02F7011C
:1028000080839183A283B383812F29960FB6F89496
:10281000DEBF0FBECDBFDF91CF911F91FF90EF9034
:10282000089580910B01482F50E0853010F044E06E
:1028300050E060910C0170910D016F5A7D4FCE01F7
:1028400001960E94B03382E592E00E94C1069D810C
:102850008913CCCF0E94510860934D0270934E02B1
:1028600080934F029093500289819A81AB81BC8101
:102870008093490290934A02A0934B02B0934C027A
:1028800011E0B5CF8091520290915302A091540271
:10289000B091550289839A83AB83BC831111E4CF35
:1028A000A6CFA8E0B0E0E7E5F4E10C94B43266EE20
:1028B0007EEF90E080E00E94FB3360E082E090E0F9
:1028C0000E94DD3360E083E090E00E94DD331092EF
:1028D0003B0210923A0260E074E184E090E00E94D2
:1028E000FB3360E086E090E00E94DD336FEF87E02D
:1028F00090E00E94DD3340E050E0BA0188E090E0D3
:102900000E94EF3360E084E290E00E94DD3360E0FB
:1029100087E190E00E94DD3360E08CE090E00E946F
:10292000DD3360E08DE090E00E94DD3319821A8291
:102930001B821C821D821E821F82188648E050E086
:1029400068E170E0CE0101960E94CD3340E050E096
:10295000BA0180E290E00E94EF3340E050E0BA011B
:102960008FE090E00E94EF3340E050E0BA0183E155
:1029700090E00E94EF332896E2E00C94D0321F9250
:102980000F920FB60F9211242F933F934F935F93A3
:102990006F937F938F939F93AF93BF93EF93FF9327
:1029A0008091E10082FF09C08091E20082FF05C0B2
:1029B0008091E1008B7F8093E1008091DA0080FFBD
:1029C00024C08091D80080FF20C08091DA008E7FE3
:1029D0008093DA008091D90080FF9BC080E189BD9F
:1029E00082E189BD09B400FEFDCF81E080937A04C5
:1029F00080915504811109C00E94D8060E94790770
:102A00008091E20084608093E2008091E10080FF89
:102A100017C08091E20080FF13C08091E2008E7F9A
:102A20008093E2008091E20080618093E2008091D7
:102A3000D80080628093D80019BC85E080937A0426
:102A40008091E10084FF29C08091E20084FF25C0CD
:102A500080E189BD82E189BD09B400FEFDCF80918E
:102A6000D8008F7D8093D8008091E1008F7E809385
:102A7000E1008091E2008F7E8093E2008091E2008D
:102A800081608093E20080917B04882309F447C031
:102A900084E080937A0480917A048091E10083FF3E
:102AA00027C08091E20083FF23C08091E100877FEF
:102AB0008093E10082E080937A0410927B048091FD
:102AC000E1008E7F8093E1008091E2008E7F809311
:102AD000E2008091E20080618093E20042E060E0E9
:102AE00080E00E9447078091F00088608093F000AA
:102AF000FF91EF91BF91AF919F918F917F916F91D6
:102B00005F914F913F912F910F900FBE0F901F90AB
:102B1000189519BC10927A041092550476CF8091C2
:102B2000E30087FD02C081E0B4CF83E0B2CF7894A8
:102B30001F921FB61F9211248F939F93AF93BF9341
:102B400080914F0490915004A0915104B09152048F
:102B50000196A11DB11D80934F0490935004A09342
:102B60005104B0935204BF91AF919F918F911F90E8
:102B70001FBE1F9018959C014FB7F89480914F0489
:102B800090915004A0915104B09152044FBF821B08
:102B9000930B08952FB7F89480914F0490915004AF
:102BA000A0915104B09152042FBF08958091CE039B
:102BB00081110FC01092CB030E94200C0E94CA15F5
:102BC00088579C4E9093CD038093CC0381E08093F3
:102BD000CE0308950E94CA15209114033091150365
:102BE000232B21F08093100390931103209116035F
:102BF00030911703232B21F080930E0390930F0342
:102C0000E0914A04F0914B04309749F082E08093C0
:102C100012030480F581E02D82E193E00995089587
:102C20001092CB0380917801E4EDF1E0882329F143
:102C30008091530487FF21C08EE1DF011D928A95A8
:102C4000E9F790E080E00E94F60890E080E00E94C2
:102C5000D0081092D1030E94420E86E0E2E1F3E038
:102C6000DF011D928A95E9F710920B0310920C0375
:102C700010920D030E94EA15089586E0DECFAAE2C5
:102C8000B0E0E5E4F6E10C94B3328CE794E0FC01AB
:102C900001962091F100208324E084389207B9F74F
:102CA00080917D04893009F456C0C8F4823009F45B
:102CB000B2C0833009F481C0813071F18091E800A5
:102CC00083FF7CC280917C0490917D049A3008F04F
:102CD00075C2E92FF0E0ED5EFB4C0C943C338A307A
:102CE00009F488C08B3051F780917C04813231F730
:102CF0008091800490918104892B01F78091E800F4
:102D0000877F8093E8000E94280780917E0480934B
:102D100078010E941016D2CF80917C04813A71F61E
:102D20008091E800877F8093E800809180049091F3
:102D30008104892B61F460E288E594E070E00E94F0
:102D4000D4078091E8008B778093E800B7CF60E0EC
:102D500090E080E0F3CF80917C04813209F0AECF27
:102D60008091800490918104029708F0A7CF809110
:102D7000E800877F8093E8008091E80082FF18C018
:102D80009091F3008091F200029731F48091F1006C
:102D9000813011F0863021F48091F1008093570446
:102DA0008091E8008B778093E8000E94280786CF07
:102DB00080917A048111E0CF81CF80917C04813AA7
:102DC00009F07CCF8091800490918104892B09F0D7
:102DD00075CF8091E800877F8093E8008091E800BC
:102DE00080FFFCCF809178018093F1008091E80012
:102DF0008E77D9CF80917C04813209F05FCF8091AA
:102E0000E800877F8093E8000E94280780917F0474
:102E10008093560453CF80917C04813A09F04ECFC1
:102E20008091E800877F8093E8008091E80080FF30
:102E3000FCCF80915604D8CF803899F0823809F0C1
:102E4000BDC1809180048F70873008F0B7C1809336
:102E5000E9008091EB0085FB882780F91092E9005A
:102E600006C08091780490917904911182609091CC
:102E7000E800977F9093E8008093F1001092F100B2
:102E80008091E8008E7796C1882309F484C182304E
:102E900009F094C180917E04811187C180918004E2
:102EA0008F702FEF280F263008F088C18093E9003B
:102EB0002091EB0020FF79C1933031F48091EB0039
:102EC00080628093EB0071C19091EB0090619093D0
:102ED000EB0021E030E001C0220F8A95EAF7209351
:102EE000EA001092EA008091EB008860EACF81113D
:102EF00065C110917E041F778091E3008078812B5B
:102F00008093E3008091E800877F8093E8000E942F
:102F100028078091E80080FFFCCF8091E300806863
:102F20008093E30082E0111183E080937A0446C12C
:102F30008058823008F042C140917E0450917F0455
:102F40004C3D83E05807A1F583E08A838AE28983B8
:102F50004FB7F894DE01139620E03EE051E2E32FF4
:102F6000F0E050935700E49120FF03C0E295EF702A
:102F70003F5FEF708E2F90E0EA30C0F0C7968D93E0
:102F80009D932F5F243159F74FBF8091E800877FD1
:102F90008093E8006AE270E0CE0101960E94D407B7
:102FA0008091E8008B778093E80008C1C096E7CF56
:102FB0002091800430918104852F992783309105D9
:102FC00009F160F48130910509F472C0029709F0AB
:102FD000F5C08BE390E0EAEEF5E029C0813291057F
:102FE00009F45AC0829709F0E9C02115310509F4A6
:102FF00069C02130310509F0E1C086EB90E0E0EFD7
:10300000F4E015C0CA0199274130B1F18230910531
:1030100009F43AC0892B09F0D1C0E7E5F6E0E49164
:103020008E2F90E0E7E5F6E0009709F4C7C0209105
:10303000E800277F2093E8002091820430918304E8
:103040008217930708F49C0140E02115310509F02F
:103050003EC041113CC08091E80082FDA1CF80912B
:103060007A04882309F49CCF853009F499CF8091A4
:10307000E80083FFF0CF94CFE5E4F6E0E4918E2FF3
:1030800090E0E5E4F6E0D0CFE7E3F6E0E4918E2FC0
:1030900090E0E7E3F6E0C8CF2115310571F021306B
:1030A000310509F08BC089E090E0E5E1F6E0BFCFA3
:1030B00082E190E0E5E2F6E0BACF89E090E0ECEF63
:1030C000F5E0B5CF84E490E0E6EAF5E0B0CF80919A
:1030D0007A04882309F464CF853009F461CF8091A4
:1030E000E80083FD5DCF8091E80082FDB4CF809140
:1030F000E80080FFAACF9091F3008091F2002115A3
:10310000310519F08830910550F041E0089709F039
:1031100040E08091E8008E778093E80096CF44915C
:103120004093F1003196215031090196E8CF803863
:1031300009F044C08091E800877F8093E800809187
:103140007B048093F1009CCE811138C010917E04E5
:103150001230A0F58091E800877F8093E8001093FB
:103160007B040E942807112311F084E005C08091A0
:10317000E30087FDFACF81E080937A0442E061ECBE
:1031800081E00E94470742E261EC82E00E9447072B
:1031900080917A0413C080917E04813079F481E0BB
:1031A000933009F080E0809379041092E9008091D7
:1031B000E800877F8093E8000E9428078091E8005C
:1031C00083FF0AC08091E800877F8093E8008091A8
:1031D000EB0080628093EB00AA96E3E00C94CF3280
:1031E0001F920F920FB60F9211242F933F934F937C
:1031F0005F936F937F938F939F93AF93BF93CF937F
:10320000DF93EF93FF93D091E900DF708091EC00A2
:10321000C82FC17080FDC0E81092E9008091F000D5
:10322000877F8093F00078940E943F161092E90007
:103230008091F00088608093F000CD2BCF70C09318
:10324000E900FF91EF91DF91CF91BF91AF919F91F5
:103250008F917F916F915F914F913F912F910F903F
:103260000FBE0F901F9018950E9410162FEF84E349
:103270009CE0215080409040E1F700C0000088E1D0
:103280009CE00FB6F894A895809360000FBE9093D1
:103290006000FFCF662309F45DC08D3C41F40E94BD
:1032A000B0098195809315030E94EA1508958E3C1C
:1032B00019F40E94B009F6CF8F3C31F40E94B00996
:1032C000819580931403F0CF803D19F40E94B009DA
:1032D000F8CF893D29F40E948E0980931603E4CF2C
:1032E0008A3D21F40E948E098195F7CF8B3D31F400
:1032F0000E948E09819580931703D6CF8C3D19F4D7
:103300000E948E09F8CF9FE2980F983070F4815D8B
:10331000990B21E030E001C0220F8A95EAF78091F5
:103320001303822B80931303BFCF8D3D31F4809123
:103330000D03816080930D03B7CF8E3D21F4809102
:103340000D038260F7CF8F3D09F0AECF80910D0362
:103350008460F0CF409114038D3C59F480911503A3
:1033600087FF0DC01092150341110BC010920B0383
:1033700008C08E3C81F48091150318169CF34423F9
:1033800081F08091160390911703892B09F08CCF5F
:1033900010920C0389CF8F3C49F447FFF0CF109275
:1033A0001403809115038111ECCFE0CF803D19F417
:1033B0001416ACF3E4CF90911603893D29F4191645
:1033C000F4F610921603DBCF8A3D19F497FFD7CF9E
:1033D000F8CF909117038B3D29F497FFD0CF10922F
:1033E0001703CDCF8C3D19F41916CCF3C8CF9FE24B
:1033F000980F983090F4815D990B21E030E0B9018D
:1034000002C0660F771F8A95E2F7CB0180959091F5
:103410001303892380931303B2CF8D3D31F4809140
:103420000D038E7F80930D03AACF8E3D21F48091F2
:103430000D038D7FF7CF8F3D09F0A1CF80910D0354
:103440008B7FF0CF882399F19CEF980F913A40F44D
:10345000682F82ED91E00E946E080E94420E08954E
:1034600090E2980F983050F4877091E001C0990F66
:103470008A95EAF7892F0E94260CEFCF9BE5980FDB
:10348000933028F490E080E00E94F608089598E5D3
:10349000980F9B3128F490E080E00E94D0080895B6
:1034A00093E3980F933118F460E00E944A1908954D
:1034B000CF93C82F8823D1F18CEF8C0F813AC0F5C0
:1034C00080917801882311F18091530487FF1EC0F9
:1034D000EC2FE695E695E695F0E0EE52FE4F828100
:1034E00090E04C2F477021E030E002C0220F331FE4
:1034F0004A95E2F782239323892B89F06C2F82ED82
:1035000091E00E946E080E94420E09C0E4EDF1E0D5
:103510008191C81799F321E0EA3DF207C9F76C2FB2
:1035200082ED91E00E949A080E94420ECF91089588
:1035300080E28C0F883068F4C77021E030E001C071
:10354000220FCA95EAF78091CB03822B8093CB039D
:10355000EBCF8BE58C0F833038F42C2F2452330BB8
:10356000C9010E94F608E2CFE8E5EC0FEB3150F418
:10357000F0E0EE0FFF1FEC57FE4F808191810E941B
:10358000D008D4CF83E38C0F833180F661E08C2F99
:103590000E944A19CBCF0F931F93CF93C82F10E0EF
:1035A00000E0893311F400E510E08C2F0E94581AD6
:1035B0000115110539F48C2F0E94221ACF911F9109
:1035C0000F9108958FE99FE00197F1F700C0000087
:1035D00001501109EDCFB0E0A0E0E1EFFAE10C9469
:1035E000AC32EC018AE0A82EFE012491222309F4DA
:1035F00097C0213009F03EC031968491813031F47A
:103600002296FE0184910E94CB1A07C0823039F4C1
:103610002296FE0184910E94581A2196E5CF8330AC
:1036200031F42296FE0184910E94221AF6CF843052
:1036300009F074C02296FE01249190E080E0FE0122
:1036400031962053330B2A30310548F0019728F387
:10365000EFE9FFE03197F1F700C00000F7CFA89E37
:10366000A001A99E500D1124C901840F951F24911A
:10367000EF01E5CFE22FF0E0E557F94FB490822F4C
:1036800086958695869590E0FC01E558F94FE49083
:103690002770F12C022E02C0F594E7940A94E2F709
:1036A00031E0E322FF24FC01E559F94FC490D12C0D
:1036B000022E02C0D594C7940A94E2F7E1E0CE222C
:1036C000DD24FC01E55AF94F049110E002C0159584
:1036D00007952A95E2F701701127E114F10419F01A
:1036E00081EE0E94581AC114D10419F086EE0E948E
:1036F000581A8B2D0E94CB1AC114D10419F086EEF2
:103700000E94221AE114F10419F081EE0E94221A9B
:103710000115110509F481CF8CE275CFEF017DCF42
:10372000CDB7DEB7EAE00C94C832FF920F931F9337
:10373000CF93DF93C62FD42F122FFC0185818823CE
:10374000A9F06093D0040E94CA159093CF0480938F
:10375000CE04C77081E001C0880FCA95EAF70E94C5
:10376000BD0ECDB7DEB7E5E00C94CD328091D0042C
:10377000681330C08091CE049091CF040E94BB1595
:103780008639910538F500E20D0FCD17A9F0C77005
:10379000FF24F3948F2D01C0880FCA95EAF70E9489
:1037A000B60E083048F48D2F877001C0FF0C8A9543
:1037B000EAF78F2D0E94BD0E812F0E94CB1A083090
:1037C00080F6D77081E001C0880FDA95EAF70E9491
:1037D000B60EC7CFC77081E001C0880FCA95EAF75F
:1037E000F6CFCF92DF92EF92FF921F93CF93DF93AA
:1037F000EC01F12CE12CC99719F480E5E82EF12CAD
:103800006E0180EEC81AD108CE010E94850D182FD6
:1038100098E0C916D104D0F40E94BD0E8C2F0E94EE
:10382000581AE114F104A9F48C2F0E94221A88E09E
:10383000C816D104C0F4812F0E94B60EDF91CF913B
:103840001F91FF90EF90DF90CF9008950E94AC0EF3
:10385000E5CF8FE99FE00197F1F700C0000091E00C
:10386000E91AF108DECF812F0E94970EE7CFA7E17A
:10387000B0E0EDE3FCE10C94AA321D861C86FE014B
:103880003E9686E0DF011D928A95E9F78CEBE82EE3
:1038900081E0F82E10E000E0CC24C394D12C26EC7B
:1038A000A22E21E0B22EF70181917F018F3F09F412
:1038B00045C0F894E82FE295EF70F0E021A18F70F9
:1038C000A60102C0440F551F8A95E2F7CA01922F44
:1038D000982B91A392A18095892382A3789400C00C
:1038E000E0ECF1E031E0912C21912F3F09F470C020
:1038F000A22FA295AF70B0E090968C9190E02F70BF
:1039000002C0959587952A95E2F780FD61C0832FC7
:10391000982A330FAE16BF0639F7F7013197808129
:103920008F3F11F00E94E00950EA5A95F1F7ECE060
:10393000F0E0EC0FFD1FE00FF11F90820F5F1F4FB3
:103940000430110509F0AFCF48E050E0BE01645FDC
:103950007F4F87E792E00E94A3339C01892B49F0B7
:1039600088E0FE013C96A7E7B2E001900D928A95AF
:10397000E1F700918002232B69F181E080934002FE
:103980000E94CA1590933F0280933E0280913E02AE
:1039900090913F020E94BB15059700F110E00E5771
:1039A0001D4F44E050E067E772E0C8010E94A33376
:1039B000E12C892B51F084E0E7E7F2E0D801019097
:1039C0000D928A95E1F7EE24E3941092400207C02D
:1039D00080E09ECF809140028111D8CFE12C0E94DF
:1039E000F80FF82EE0918002882309F489C01A822A
:1039F00019821C821B820E2F10E00E571D4F8091E2
:103A000072028A3008F046C04FEA53E1BE016F5F90
:103A10007F4FC8010E94BF0F882309F460C043E6AE
:103A200053E1BE016F5F7F4FC8010E94BF0F882323
:103A300009F455C045E353E1BE016F5F7F4FC801F4
:103A40000E94BF0F882309F44AC048E153E1BE0138
:103A50006F5F7F4FC8010E94BF0F882309F43FC0EA
:103A60001092720280917F0290E044E050E0BE012B
:103A70006F5F7F4F8E579D4F0E94A33321E02093AD
:103A80004702892BF1F4F12C8F2D8E296796ECE0FB
:103A90000C94C63280914102909142020E94BB1563
:103AA000843F914008F0B0CF80914702882359F3BA
:103AB00084E0FE013196DF011D928A95E9F71092AC
:103AC0004702E0917F02F0E0EE57FD4F89819A8135
:103AD000AB81BC8180839183A283B383D5CF809156
:103AE00072028F3F31F08F5F809372028A3008F448
:103AF000B9CF0E94CA159093420280934102D4CF5D
:103B0000F0E0EE57FD4F80819181A281B3818093D7
:103B1000520290935302A0935402B093550282E54F
:103B200092E00E94C10680935102809056029090CC
:103B30005702A0905802B090590280914302909190
:103B40004402A0914502B091460288169906AA0641
:103B5000BB06D1F08092430290924402A0924502AB
:103B6000B09246020E94F80F81110EC00E945108C7
:103B7000861A970AA80AB90A809273029092740270
:103B8000A0927502B09276028BE0EAE5F2E0DE01E7
:103B9000119601900D928A95E1F780915A028695CF
:103BA00000915B02D0905C02C0905D0210916402B3
:103BB000109264021123D1F010FF10C029812170EE
:103BC000982F990F292B29839091BD0320FF13C0B3
:103BD00091609093BD0360E00E945A1211FF06C0ED
:103BE00020E04C2D6D2D802F0E94FF1080916502EA
:103BF0008093D90249CF9E7F9093BD0380911A0391
:103C0000816080931A030E94740FE8CFB0E0A0E0B7
:103C1000ECE0FEE10C94AC328C01FC018481882341
:103C200009F47AC061E0C8010E94550DEC01F80169
:103C30004581442309F408C59C013A95992721152B
:103C4000FFE43F0738F090E080E0CF3FD10509F076
:103C500008F4CE01BC01645071096432710518F09A
:103C60008B970E9780F4E0919902F0E0EE0FFF1F22
:103C7000E256FD4F808191818F3F5FE7950719F0F4
:103C8000019691838083F80181818093E102808194
:103C90008093E00280E280933201D093DF02C093F0
:103CA000DE02CE0190528115904268F0CE01905410
:103CB00081159041B0F5F8018681807F49F4211586
:103CC0003F41B8F505C0F8018681807F09F4C0C482
:103CD000FE01FF27ED33F10528F4E452FF4FE49194
:103CE000E0933201C337FCE7DF0709F0B1C48091EC
:103CF000CE03882301F10E94A20E809118028770E2
:103D000059F0F8018581882339F08091540482FFAD
:103D100003C082E00E94FB0CCDB7DEB7EAE00C9452
:103D2000C83221153F41A0F2CE01805A92458097BA
:103D3000C8F2FE01CFCF0E94D615DFCF1092F4015A
:103D4000B3C4E090CB03F09039020E94CA158857A3
:103D50009C4E9093CD038093CC03F80185818823FA
:103D600009F4A2C48F2D8E298D7909F066C0C11582
:103D7000F0E5DF0758F5C11520E4D20708F060C070
:103D8000C63ED10509F48CC0CE01905281159042F7
:103D900060F5F8018681807F09F441C0CE01992742
:103DA0001092D1038D32910569F008F054C0883229
:103DB000910508F04BC08E31910508F049C0049779
:103DC0004A97D8F582E08093D10342C0C43BF2E524
:103DD000DF0709F465C098F4C03452E5D50738F41C
:103DE000C11582E5D80708F05FC4CE01D9CFCE0156
:103DF000805692458034910508F456C4F6CFC03EF3
:103E000092E5D90728F4C03CE2E5DE0770F34CC424
:103E1000CE0187579C47029708F446C4E6CF8D2F02
:103E20008F718431E9F138F48D2F8F70823029F44D
:103E30001092D10302C08631D9F30E94A20E34C47D
:103E4000F8018681807F09F0A9CF2EC48A97A9F74F
:103E50000E94420E29C48C349105D1F38D329240D8
:103E6000B9F3EBCF26E241EE61EEC8010E94951B4B
:103E700044CF27E245EE65EEF8CF26E241EE60EE54
:103E8000F4CF27E245EE64EEF0CF26E241EE62EE9B
:103E9000ECCF27E245EE66EEE8CF28E241E0EBCF3B
:103EA000F8018581882309F420C41092D004CE0142
:103EB0009057839708F003C484E090E00E94C733D2
:103EC0009093540480935304FE01E150F047E23292
:103ED000F10520F4E35EFB4C0C943C3380915304D9
:103EE000816080935304609153047091540484E082
:103EF00090E00E94FB330E941016FFCE8091540484
:103F0000886080935404EFCF809153048260E9CF9E
:103F1000809153048460E5CF809153048860E1CFA1
:103F2000809154048160EDCF809154048260E9CF88
:103F3000809153048061D5CF809153048062D1CFAA
:103F4000809153048064CDCF0E9410168091530459
:103F50008068C7CF809153048C60C3CF8091540494
:103F60008360CFCF809153048E7FBBCF8091540468
:103F7000877FC7CF809153048D7FB3CF8091530447
:103F80008B7FAFCF80915304877FABCF8091540458
:103F90008E7FB7CF809154048D7FB3CF809153042F
:103FA0008F7E9FCF809153048F7D9BCF8091530450
:103FB0008F7B97CF0E941016809153048F7791CFFB
:103FC00080915304837F8DCF809154048C7F99CF4F
:103FD0008091530482FB992790F921E0922790FB6E
:103FE00082F990FB83F97DCF80915404982F9095AE
:103FF00091708E7F892B90FB81F983CF9091530430
:10400000892F8F7B96FF80646CCF0E941016909151
:104010005304892F97FB87F9805863CF61E08EE0C6
:1040200090E00E94DD335FCF60E0F9CF90915304C0
:10403000892F8F7E94FF806154CF90915304892FF4
:104040008E7F90FF81604DCF90915404892F877FA0
:1040500093FF886056CF8091BD0380FF1CC0282F3E
:104060002E7F2093BD033091BE034091BF0350913A
:10407000C0036091C1037091C2038091C30390910A
:10408000C4030E94D81080911A03816080931A03A0
:104090000E94740F32CE81608093BD0361E08695EB
:1040A0000E945A122ACE43E852E16FE872E10E9460
:1040B000710923CE4FE852E163E872E1F8CF42E1A3
:1040C00052E16CE172E1F3CF4CE152E162E172E165
:1040D000EECF48EF51E165E072E1E9CF45E052E112
:1040E00068EF71E1E4CF4EED51E16BEE71E1DFCFAE
:1040F0004BEE51E16EED71E1DACF46E252E160E460
:1041000072E1D5CF40E452E166E272E1D0CF61E0E6
:1041100081E0C6CFCB35FCE7DF0708F04EC0C130E9
:104120002CE7D20709F46EC0C3305CE7D50709F469
:1041300063C0C115DC4709F452C0F801878190853E
:10414000009709F463C00E94080BD82FC92FF8010B
:10415000A580E680E2942FE0E22280911802877029
:10416000F1F0BA2CAA20E1F0892F807F803451F041
:1041700080E28D0F883098F0E11004C0892F807E96
:10418000803269F08091540482FF09C082E00E946D
:10419000FB0C809118028770BB24B3948111B12C61
:1041A0008C2F82958F70C82ED12C8C3008F0A5C032
:1041B000F601E15CFB4C0C943C33CB359CE7D90712
:1041C00019F1CC35DC4709F0B8CF8091540482FB5B
:1041D000882780F991E089270E94B112AECF0E9412
:1041E0001016FFEF24E35CE0F15020405040E1F76F
:1041F00000C000000E94500F6FEF7FEF90E080E062
:104200000E94FB330E94341980E0E6CF8581E08074
:10421000F180882369F0C7010E94380CC82F682FED
:10422000C7010E94AE0CB7018C2F0E94EA0A8BCF07
:10423000C7010E947B0CC82FF6CFFC2FFF70FF2E0A
:10424000C07F19F0F29490EFF922AA20B9F0FF2074
:1042500069F080E28D0F883010F0D11109C0809193
:10426000CB03F82AF092CB030E94420E8D2F43C05D
:104270008091D103F82AF092D103F6CF8D2F0E94BE
:10428000221AFF20D1F180E28D0F883010F0D11179
:1042900004C08F2D0E94260C06C0F0948091D1039B
:1042A000F822F092D1030E94420E27C02C2F2F70CB
:1042B000F22EC07FC03219F0F29480EFF822DD2395
:1042C00051F0D13009F473C0AA2009F47FC0EE2068
:1042D00009F442C0CBCF8091540482FD39C0AA209A
:1042E00089F1FF2039F08091CB03F82AF092CB03BB
:1042F0000E94420E80E00E94581A98E0C91AD10824
:10430000E4E0CE16D10410F40E941B10BB20A9F0EB
:104310008091180280FD11C0F8011582869586955E
:1043200086950E94120DC8010E94061E80911802F7
:104330008695869586950E94E90C60E0C8010E94EA
:10434000550DEACC80E00E94221AFF20B1F2A1CFE5
:10435000AA2099F0E11004C08F2D0E94BD0ECDCF90
:1043600051E0E512CACF809139029F2D9823F916AA
:1043700021F2F82AF0923902C0CFE110BECF8F2D82
:104380000E94B60E909139028F2D892329F08F2D2E
:1043900080958923809339028091F6019F2D98237F
:1043A00009F4ABCFF094F822F092F601A6CFAA2040
:1043B00029F085E08E1508F4A0CFCECF94E09E15AD
:1043C00008F49BCF8F2D0E94B60E97CFEE20D1F32D
:1043D000D93349F4EFEFF7EE23E0E150F04020400D
:1043E000E1F700C000008D2F0E94221A86CF8C2F8B
:1043F00086958695837069F0813009F07ECF8D2F88
:104400009C2F9370A11002C080E090E00E94D00821
:1044100074CF8D2F9C2F9370A11002C080E090E08C
:104420000E94F6086ACF6A2D8D2F0E944A1965CF27
:104430008C2F837009F040C0A1105FCF4D2F4295A3
:1044400046954770440F440F2D2F2F7030E0042EF7
:1044500002C0220F331F0A94E2F790E080E0D4FFFD
:1044600009C08FE090E002C0880F991F4A95E2F7DB
:1044700080959095C695C695C370C230A1F0C330A3
:1044800079F040913A0250913B02C13039F0822BD1
:10449000932B842395230E94220D2FCF242B352B81
:1044A000822B932BF8CF822B932B20913A023091C1
:1044B0003B0282279327EFCF8695AA2011F08C2FFD
:1044C0008170882309F419CF4D2F42954695477086
:1044D000440F440F2D2F2F7030E0042E02C0220F06
:1044E000331F0A94E2F790E080E0D4FF09C08FE028
:1044F00090E002C0880F991F4A95E2F78095909549
:10450000C695C695C370C230A1F0C33079F0409112
:10451000DC025091DD02C13039F0822B932B8423D1
:1045200095230E94E40CE9CE242B352B822B932B70
:10453000F8CF822B932B2091DC023091DD02822771
:104540009327EFCFCF70AA2029F08C2F0E94120D55
:104550008D2F03CF8D2F0E94B60E8C2F0E94E90C59
:10456000CCCED23F71F160F4D03FB9F0D13F81F0B1
:10457000AA2009F459C0E11079CE8C2F8F7125C083
:10458000D33F31F1D43FA1F78091540482FD2EC076
:104590008C2F8F71AA2011F318C0AA2069F054E063
:1045A0005E1508F4AACECF7181E090E002C0880FBA
:1045B000991FCA95E2F7BFCF85E08E1508F49DCE0E
:1045C000F2CF8C2F8F71A110C9CF0E94120D95CE02
:1045D00090E080E0AA2009F4A4CFCF7181E090E0C0
:1045E00002C0880F991FCA95E2F79BCFAA2089F0D5
:1045F000CF718C2F0E94120D8091540482FF07C04E
:10460000E8E0CE9FC00111248360809318028C2FB4
:10461000DCCF81E00E94FB0CF1E0FE1508F06DCECE
:1046200082E00E94FB0C69CEEE2059F0D93309F0EC
:10463000DACE2FEF57EE83E0215050408040E1F773
:10464000D0CE8C2F8F718ACF83379C4709F455CBFE
:104650008091CE03811175CB442331F1C13ED10548
:1046600029F0C23A22E5D20709F068CB8091F40123
:10467000882371F0F801828193812091F2013091B9
:10468000F301821B930B8F3F9F4710F00E94D615BA
:1046900081E08093F401F801828193818A569F4FD3
:1046A0009093F3018093F201FE01E851FC47E7305B
:1046B000F10508F0F5CBE55BFB4C0C943C33C631BF
:1046C0005CE7D50701F58091CB038A7A91E009F484
:1046D00090E09093F50169E2811165E382ED91E04C
:1046E0000E949A080E94420E08CBC6318CE7D80778
:1046F00089F48091F50169E2811165E382ED91E031
:104700000E946E08EFCFCA35ECE7DE0709F002CD54
:1047100081E062CD8091CB038272FE01E052F847C6
:10472000E531F10508F009CDEE5AFB4C0C943C3311
:10473000CF93DF9380911502807F09F04DC0809167
:104740001402882309F448C0E091CD0450918404F8
:10475000C0911002D0910F0260911102709112026B
:1047600049E05E17C9F18E2F90E0E49FF00111241B
:10477000EB57FB4F2481222391F1489FF001499F81
:10478000F00D1124DF01AB57BB4F11962C911197FF
:104790002C1325C02C912D1322C015962C91159702
:1047A00021111DC012962D913C91261B370B2639E5
:1047B0003105A8F4809115028F70806180931502F5
:1047C000E557FB4F80818F70806180838FE092E09E
:1047D0000E94061E0E942E0CDF91CF910895FC01CD
:1047E0003196E770BECFAFE0B0E0E9EFF3E20C94B2
:1047F000AA328C0186E0F801DE011A9601900D9232
:104800008A95E1F7F8018481E5809FE0A92E92E086
:10481000B92E90911302911128C0882319F1EE202E
:10482000F1F0C8010E94270DF82E8823C1F089E01D
:10483000F801D50101900D928A95E1F7809113025C
:10484000813031F480910F02909110020E946C0C23
:104850000E9498238F2D2F96ECE00C94C632C8014D
:104860000E94061EFF24F394F5CFD080C180828081
:104870009380F09014022091110230911202A40151
:10488000421B530BFF2009F4EAC04639510508F0DA
:10489000B6C08823F9F29091100280911502282F5A
:1048A000207F09F05FC0C9121DC090910F02D9127C
:1048B00019C0409116025091170227813085421786
:1048C000530781F4E11048C08F7080618093150216
:1048D0008FE092E00E94061E80911502F801868307
:1048E000F12CB8CFE11038C06C2D8D2D0E94A3069D
:1048F0006C2D8D2D0E94A306E82E8111F1CFDA8652
:10490000CB868A859B850E946C0C292F22952F705F
:10491000903458F49F70223088F0992399F0F80170
:104920009681907F79F4FE2C95CF2A5F2F702230EC
:1049300068F0C8010E94061EEF2CF5CF992311F0F4
:10494000882389F3805E883070F3F3CF803F58F37B
:10495000815F833040F3EDCF8091150281608093B9
:104960001502BECFC9121CC090910F02D91218C0F7
:104970004091160250911702278130854217530744
:1049800079F4E1100DC08683C8010E94061E89E0FB
:10499000F801AFE0B2E001900D928A95E1F75ACFAD
:1049A000C8010E94270D882309F459CFEE2009F48D
:1049B00056CF809115028032B8F020910F023091CD
:1049C00010023A8329839C828B82909113029D83EB
:1049D0001E828F8380911602909117029987888793
:1049E000CE0101960E94061E89E0F801AFE0B2E018
:1049F00001900D928A95E1F70E94982333CF909110
:104A00001502292F207F51F48FE092E00E94061EAC
:104A100089E0F50111928A95E9F762CF882309F4BC
:104A200019CF809110028C11BBCF80910F02D81248
:104A3000B7CF409116025091170227813085421757
:104A4000530709F0ADCFE110ABCF9683C8010E94A8
:104A5000061E89E0F50111928A95E9F7FBCE4639E9
:104A60005105B8F7882309F4FDCEFE2CEE2009F499
:104A7000F6CE809110028C111FC080910F02D812C7
:104A80001BC020911602309117028781908528174C
:104A9000390791F48091150280FD79CF982F907F8E
:104AA00009F475CF8683903F09F46ECF982F907FDD
:104AB000905F8F70892B67CFC8010E94270D8111ED
:104AC00093CF80911502816080931502C8010E94E6
:104AD000061EC0CEA2E1B0E0E0E7F5E20C94B232EF
:104AE0000A871B872C873D874E875F87688B798B6A
:104AF0008A8BCE010A960E94F32381110CC089E0B3
:104B0000FE013A96DE01119601900D928A95E1F729
:104B10004E8541110BC019E08091CD049091840421
:104B2000891332C06296E4E00C94CE322091840462
:104B300030E0C9010196877099275091CD0458172C
:104B40001906A1F04D8399E0929FD001939FB00D7B
:104B50001124AB57BB4FFE01319601900D929A95EF
:104B6000E1F7809384040E942E0CD5CF0E9410168A
:104B7000109284041092CD0489E0EFE0F2E0DF01AE
:104B80001D928A95E9F7C7CF819FC00111248B57E9
:104B90009B4F0E94F323882329F28091CD0490E05B
:104BA0000196877099278093CD04B6CFEF92FF923C
:104BB0000F931F93CF93DF938091D303882361F0EA
:104BC000A091D2038DE0F82E8091D303A81748F06E
:104BD0001092D3031092D203CDB7DEB7E6E00C9467
:104BE000CC32EE24E394EA0EE092D203CA2FD0E056
:104BF000AF9DD0011124AC52BC4F14968C911497E8
:104C0000882311F1FD0187819085892B09F051C01E
:104C10000184F285E02DEF3FFE0709F44AC0E83039
:104C2000F10540F4E959FB4C0C943C338DEE94E0D3
:104C30000E94EB1AFC9EF001FD9EF00D1124EC5237
:104C4000FC4F14821092D103AE2DBECF8AEE94E0B9
:104C5000EFCF87EE94E0ECCF84EE94E00E94EB1A65
:104C600080E590E00E94F11BE5CF81EE94E0F6CF65
:104C70008EED94E0F3CF89E290E00E94F11B83E394
:104C800092E00E94F11B8AE190E00E94F11B84E116
:104C900090E0E8CF83E392E00E94F11B81EE90E088
:104CA0000E94F11B84E390E00E94F11B8CE190E0F4
:104CB000D9CF0C9111961C91119712962C911297A5
:104CC00013963C91139714964C91149715965C91FA
:104CD000159716966C91169717967C9117971896BC
:104CE0008C910E946A25A6CF109247041092460428
:104CF0001092770180914504809344040E944809F2
:104D00000E94D6250895B0E0A0E0E9E8F6E20C9410
:104D1000A432C0914404E7E0FE2E01E010E0FDE083
:104D20002F2EEE24E394809145048C1309C00E9439
:104D3000D6250E944809CDB7DEB7E2E10C94C03217
:104D4000D0E0FE01EE0FFF1FE45CFB4F80819181FC
:104D5000F89EF001F99EF00D1124E15CFE4F2481D4
:104D600021115AC03090D303A4EDB3E030E020E02D
:104D7000412C5F01231508F04DC01B966D907C906F
:104D80001C97F501808091804FEF5FEF512CC52C6F
:104D9000D12CF601EE0FFF1FE80DF91D65917491FE
:104DA0006616770609F4A601672B11F05394EFCF2E
:104DB0004F3F5407B9F1B80102C0660F771F4A95FB
:104DC000E2F7462AA801052C02C0440F551F0A9499
:104DD000E2F7415051094416150609F5229EF001EB
:104DE000239EF00D1124EC52FC4FF89ED001F99E49
:104DF000B00D1124A15CBE4F12962D913C911397DA
:104E00003087278374E074831082118292878187B0
:104E10001596EC920E941C092196C37084CF1496BB
:104E20001C9214972F5F3F4F1D96A4CFAEE1B0E0C8
:104E3000ECE1F7E20C94A4324B8B5C8B6D8B7E8B98
:104E40008F8B988F91111092D103188A198A1A8A20
:104E500086E0FE017396DE011A9601900D928A9506
:104E6000E1F78E85882389F061E0CE010A960E94E1
:104E7000550D6C018F8520E5C2162CE7D20689F40A
:104E8000882329F181E0809377010A851B852C8591
:104E90003D854E855F85688979898A890E946A2562
:104EA000C8C031E5C3163CE7D30629F4882379F05E
:104EB0000E947426EACF42E5C4164CE7D40639F4C2
:104EC000882329F0809177018111F2CFDBCFFFE3B6
:104ED000EF2EF1E0FF2E512CB12CA12C88248394CD
:104EE000912CB7E04B2ECE0101969A8F898F3324F7
:104EF0003394F7014081518166246A94762C60E0F6
:104F0000262F30E0F901EE0FFF1FE40FF51F85910A
:104F10009491C816D90609F43901892B11F06F5FF5
:104F2000EFCF10E0FFEF6F167F0609F443C0F701E3
:104F3000448110917701812F411180E0182F117069
:104F4000F701258086819F85992309F4F2C01123FA
:104F500009F4EFC0211014C09401062C01C0220FE7
:104F60000A94EAF7822B86838091CF039091D00335
:104F7000C29730F422E330E03093D0032093CF0384
:104F8000C40102C0880F991F6A95E2F70197F701E3
:104F900026812817190671F48091460490914704E0
:104FA000009709F44AC00E94BB15C39708F445C096
:104FB000F7013482512AFFEFAF1ABF0A27E0E20E51
:104FC000F11C38E0A316B10409F093CF8F85882334
:104FD00009F40BC1552009F408C10E94CA15909329
:104FE0004704809346048091D303883010F591E004
:104FF000980F9093D30399E0FE013A96DE01119643
:1050000001900D929A95E1F74DE0849FC001112423
:105010008C529C4F29E0FE013196DC0101900D92EB
:105020002A95E1F72FEF3FEFFC0132872187D486E5
:10503000C3866E96E2E10C94C03280914404609184
:105040004504982FF0E0E0E0861314C090934404E8
:10505000EE15FF0509F4AECF90E0FC01EE0FFF1F47
:10506000E45CFB4FB182A082019683709927809304
:105070004504A0CF682E712CF301EE0FFF1FE45CF6
:10508000FB4F20813181429ED001439EB00D1124FF
:10509000A15CBE4F2D913C9111973E8F2D8F00E06A
:1050A00070E0212CE22DF0E0EE0FFF1F2D8D3E8DE4
:1050B000E20FF31F2591349121153105E1F0F7013D
:1050C0000190F081E02DFC8FEB8F70E005C024177C
:1050D000350709F4012F7F5FE72FF0E0EE0FFF1F88
:1050E0004B8D5C8DE40FF51F459154914115510591
:1050F00071F72394D7CF0023C9F0F701721508F098
:10510000FD013482EE16FF0621F490934404102F23
:1051100051CF891305C0AE17BF0711F49F5F93707D
:1051200093012F5F3F4F822F83708ECFF0E0E0E03E
:10513000F7CF90E021101FC0940102C0220F331F4F
:105140006A95E2F7215031098217930731F444231D
:1051500009F449C0C5010E941C09C401062C01C004
:10516000880F0A94EAF7982F9095F7018681892392
:105170008683122D1FCFAC01062C02C05595479592
:105180000A94E2F79C012150310982239323892B51
:1051900031F540FF24C0F70182819381892BE1F032
:1051A000E98DFA8D242D11922A95E9F70E94CA15EE
:1051B000282F8B839C8334E03D83F7018281938188
:1051C000782F8887998709811A813C8144E05E8124
:1051D0006F81892F0E946A25F7011582BECFF42FB7
:1051E000F1702F2EBACF212EB8CF90914404809128
:1051F0004504981729F00E94832651101ACF45CEF6
:105200000E94D62510924704109246040E94480935
:10521000F4CFA6E0B0E0EFE0F9E20C94B2320E94E5
:10522000CA158C0180913C0290913D028017910734
:1052300081F019821A820E94CA15682F49815A8109
:10524000792F80E090E00E94162710933D02009392
:105250003C022696E4E00C94CE321F921FB61F92B9
:1052600011248F939F93AF93BF9380914E0481112C
:1052700013C080914F0490915004A0915104B091BB
:1052800052044196A11DB11D80934F049093500488
:10529000A0935104B0935204BF91AF919F918F910D
:1052A0001F901FBE1F901895CDB7DEB762970FB63F
:1052B000F894DEBF0FBECDBF85B7806885BF85B7C8
:1052C000806885BF84B7877F84BF0FB6F894A895A0
:1052D00080916000886180936000109260000FBE32
:1052E00080E890E00FB6F89480936100909361009D
:1052F0000FBE8EED99E09093D1018093D0010E9472
:10530000D8060E9479078091E20084608093E200D1
:10531000789480917A048823A1F01091E9001F709D
:105320009091EC00892F817090FD80E8182B1092ED
:10533000E9008091E80083FD0E943F161F701093E2
:10534000E90082E084BD93E095BD9AEF97BD80931C
:105350006E001092730210927402109275021092F5
:1053600076020E94F80F80932801809128018823FB
:1053700009F475C010923A018BE180933B010E94C1
:10538000F80F81110E942D31809128018091280110
:1053900094E0811190E09093800284E0891B8093D7
:1053A0007F0284E90E94E00986E60E94E00987E91D
:1053B0000E94E00986EC0E94E00900EC11E0D801AF
:1053C0008D918D018F3F11F00E94E009B1E0063C04
:1053D0001B07A9F788E0E2E8F2E0DF01282F1D9221
:1053E0002A95E9F7E7E7F2E0DF011D928A95E9F7F0
:1053F00090E080E00E94C733863E9E4F11F00E94ED
:10540000511482E090E00E94B93380938A0284E0D4
:1054100090E00E94C73390935404809353040E94F9
:10542000371CEFEFF6E721E0E150F0402040E1F7D4
:1054300000C000000E94371C0E94F80FE4E08111B8
:10544000E0E0F0E0EE57FD4F808181FF0CC06FEF90
:105450007FEF90E080E00E94FB330E94500F8BE1D1
:1054600080933A018ACF83E090E00E94B93390E0C4
:105470000E94220D0E94F80F83E08093020380E2D5
:105480008093D1040E94D72F6BE070E08FE492E00C
:105490000E945F10882309F443C08091020365E0F5
:1054A00070E081FD27C18AE492E00E945F108823AA
:1054B000B9F16DE070E088E392E00E945F1088230C
:1054C00079F10E9451086B877C878D879E87DC016C
:1054D000CB0180549B42AE4FBF4F8093C503909346
:1054E000C603A093C703B093C803E4EDF4E080E0E3
:1054F00092E0DF019C011D9221503040E1F7F093D2
:10550000DB06E093DA068FEF9FEF9093D30480934E
:10551000D20481E08093CA038093C90310920303ED
:1055200080918102811176C090E080E00E94C733B3
:10553000863E9E4F21F00E9451140E94941288E0F2
:1055400090E00E94C1336B017C0184E290E00E94F4
:10555000B933282F30E040E050E060E070E080E0B8
:1055600090E000E20E945533260137012C293529AD
:105570004E2957292093BD033093BE034093BF03A8
:105580005093C0036093C1037093C2038093C3031D
:105590009093C40380911A03836080931A032E7F33
:1055A00061F50E94941288E090E00E94C1336B0183
:1055B0007C0184E290E00E94B933282F30E040E083
:1055C00050E060E070E080E090E00E9455332601FA
:1055D0003701C22A35294E295729C092BD0330937D
:1055E000BE034093BF035093C0036093C103709305
:1055F000C2038093C3039093C4030E9478098091EF
:10560000BD0380FF04C060E086950E945A1281E0CD
:10561000809381020E94F80F811102C00E943031F4
:1056200089E291E090934B0480934A04E4E68E2E45
:10563000912CA12CB12C80917A0400E112E18530EB
:1056400009F494C00E94371C0BE812E072E8E72EC0
:1056500072E0F72ED701F80191918D9123E932E0A4
:105660002E173F0709F48CC09817B1F30E94F80F6A
:10567000482ED12C33243394D701CD907D01F801ED
:1056800051908F015C1429F15C24712C6624639481
:10569000852D8621B1F04420A1F07982DA820E9422
:1056A000CA159C838B833D8291E08C2D862109F461
:1056B00090E09E8349815A816B817C818D810E941B
:1056C00016277394660CF6E07F12E2CFF80131974B
:1056D000C082D39428E0D212CFCF0E942C106093C6
:1056E000D1027093D2028093D3029093D40231E01E
:1056F0003B874BC085E492E0D8CE80917A04843019
:1057000031F10E94891010924E0448E150E080E48B
:105710000FB6F894A895409360000FBE8093600088
:1057200083B7817F846083BF83B7816083BF7894B0
:10573000889583B78E7F83BF0FB6F894A895809124
:105740006000886180936000109260000FBE8091BD
:105750007904882359F00E94371CE2E8F2E0819135
:10576000811105C492E0EA38F907C9F780917A04FB
:10577000853009F4C2CF0E9410160E941B1062CF20
:10578000981374CF0E9409291B860E94F80F882362
:1057900009F4F5C080917701882301F180914604D6
:1057A000909147040097D1F00E94BB152091CF0340
:1057B0003091D0032817390788F4909144048091E0
:1057C0004504981709F459C20E9483261092D00309
:1057D0001092CF031092470410924604C0909E028C
:1057E000D0909F020D2C000CEE08FF0810913101A3
:1057F000212F30E0EEE9F2E081E090E032962817C8
:1058000039070CF043C280919A0290919B02A091BB
:105810009C02B0919D02BC01CD010E9431082B0178
:105820003C0199EC491651046104710414F1809112
:10583000990290E0019669E170E00E94E73280935E
:105840009902880F991FFC01E256FD4F11821082C8
:10585000812F183108F087E18F5F809331010E941A
:10586000510860939A0270939B0280939C029093DC
:105870009D02A2E0CA16D104E104F1040CF412C2A4
:10588000A0E6BAEEA70196010E9442336F837887A3
:1058900089879A87B8EC1B9F90011124032E000C76
:1058A000440B550B240D351D461D571DA5E0B0E0DA
:1058B0000E9442336F87788B898B9A8B6F817885B2
:1058C00089859A852F85388949895A890E94FB32B2
:1058D00069017A01E1EFCE16D104E104F1042CF064
:1058E00050EFC52ED12CE12CF12C20919502309156
:1058F00096024091970250919802CA01B9010E9404
:1059000031082B013C0135E6431651046104710452
:1059100084F00E94510860939502709396028093E0
:105920009702909398028091D90280939402C0923A
:10593000930210919402A0919302A11BBB0BA301AF
:1059400092010E944D336F83788789879A87A501DA
:1059500094010E941D33120F1093D9028091CE033F
:10596000882369F00E94CA152091CC033091CD03A1
:10597000821B930B8F3F9F4710F40E94A20E8091D1
:10598000CA03882309F487C080910403909105031A
:105990000E94BB15C29708F454C00E94CA15909388
:1059A00005038093040360E080E00E945A0980911F
:1059B000D90290E09093DB028093DA020E941B10E0
:1059C0000E94F80F882309F4CEC165E080E00E94B0
:1059D0005A098091D1029091D202A091D302B09144
:1059E000D4028F839887A987BA870E94F80F8823EB
:1059F00009F45CC16F81788589859A850E94310898
:105A0000462F572FBC01413C544D6140710508F4AD
:105A10005EC1209106033091070340910803509125
:105A20000903CA01B9010E9431086F837887898709
:105A30009A87613C744D8140910508F448C10E94E9
:105A400089108091D2049091D304892B09F0ACC1C4
:105A50008091C9038823F9F00E9451086F837887E9
:105A600089879A878091C5039091C603A091C70347
:105A7000B091C8032F81388549855A85281B390B79
:105A80004A0B5B0BDA01C9018F3F9F4FAF4FBF47F6
:105A900010F40E9489104B8541110E94A41086E0E9
:105AA000E2E1F3E0DE01119601900D928A95E1F7B3
:105AB000D0901303F090140310911503E090160397
:105AC00000911703109214031092150310921603FD
:105AD00010921703812F8F2909F445C0809110037C
