:100000000C9423060C945B060C945B060C944A310A
:100010000C945B060C945B060C945B060C945B06DC
:100020000C945B060C945B060C94BC140C94ED18B9
:100030000C9404290C945B060C945B060C945B06F0
:100040000C945B060C945B060C945B060C945B06AC
:100050000C945B060C9494150C945B060C945B0654
:100060000C945B060C945B060C945B060C945B068C
:100070000C945B060C945B060C945B060C945B067C
:100080000C945B060C945B060C945B060C945B066C
:100090000C945B060C945B060C945B060C945B065C
:1000A0000C945B060C945B060C945B060500110037
:1000B00000000A000B00000017001C0000001A00DE
:1000C000140000000D000E0000000D000B000000E9
:1000D0000E000F000000202020206162636465662E
:1000E0006768696A6B6C6D6E6F7071727374757628
:1000F0007778797A3132333435363738393052457A
:1001000042545F2D3D5B5D5C233B27602C2E2F20EE
:1001100020202B0014001A000800150017002900E9
:1001200004281624072209210A00E0001D001B00F4
:10013000060019000500000000000000E300E100D7
:100140002C412A00130012000C0018001C0034007F
:1001500033000F240E220D210B00E200380037007F
:1001600036001000110000000000000029002A00E5
:10017000284201001E021F02200221022202010069
:100180000100010001000100010001001D011B012F
:1001900006011901E3000000000000000100010059
:1001A00001004C0027022602250224022302350208
:1001B00030022F022E022D023102350030002F00B6
:1001C0002E002D00310000000000000001000100A1
:1001D000010001001E001F0020002100220001007C
:1001E000AA00A900AC00AE00AB0001001B701870A3
:1001F0003C003E003E000000000000000100010045
:1002000001002A00270026002500240023004C00BE
:1002100044004F0052005100500001004500010011
:1002200001000100010000000000000001000100C9
:10023000010000DA028178D9F1DB20A4A62EAF00FC
:10024000A0C0D30000A1C8D30000AED580A81F4035
:100250008D14200000000000E0100808C8B0808065
:10026000808080808040403C14040890180408B0CE
:1002700040800000000000000102C4A4FC00000057
:10028000008000000000000000000080C858282AFC
:10029000100F000000000000000E09040404040216
:1002A000030201010202040810262B320405060095
:1002B00000000000000000E01010F000000000004E
:1002C000000000808080782808102030081020402E
:1002D000800000000000000304081011F901010172
:1002E00001010100000000000000000110B05055A5
:1002F000201F000000000000000000000001020CB0
:1003000010202837021E2020180C141E01000000A7
:1003100000000000000000000000000000000000DD
:100320000000E01C02050224040402A91EE00000F3
:1003300000000000000000000000E0100868100845
:100340000403000000000000000206827C0300009D
:10035000000000000000000000000102040C10106A
:10036000202020283E1C20203E0F111F00000000EE
:10037000000000000000000000000000000000007D
:100380000000E01C02050224040402A91EE0000093
:10039000000000000000000000E090081860100855
:1003A000040300000000000000020E827C03000035
:1003B000000000000000000000000102040C10100A
:1003C000202020283E1C20203E0F111F000000008E
:1003D0000000000000010101010101010101020210
:1003E00002020202020202030303030303030304E3
:1003F00004040404040405050505050606060606AE
:10040000070707070708080808090909090A0A0A67
:100410000B0B0B0C0C0C0D0D0D0E0E0E0F0F0F1009
:100420001011111112121313141415151616171793
:10043000181819191A1A1B1B1C1D1D1E1E1F2020FF
:10044000212222232424252626272829292A2B2C49
:100450002D2D2E2F30313232333435363738393A6C
:100460003B3C3D3E3F404142434445464748494A64
:100470004C4D4E4F50515354555658595A5B5D5E32
:100480005F616264656668696B6C6D6F70727375CD
:1004900077787A7B7D7E8082838587888A8C8E8F31
:1004A00091939596989A9C9EA0A2A3A5A7A9ABAD5F
:1004B000AFB1B3B5B7BABCBEC0C2C4C6C9CBCDCF4D
:1004C000D1D4D6D8DBDDDFE2E4E7E9EBEEF0F3F5FB
:1004D000F8FAFDFF00AF00AE5B5D007B7D002829D0
:1004E000003D3E003D3C003E3D0005010902A101EA
:1004F00085020901A1000509190129081500250136
:100500009508750181020501093009311581257FA2
:1005100095027508810609381581257F95017508B2
:100520008106050C0A38021581257F950175088121
:1005300006C0C005010980A101850319012AB70081
:10054000150126B700950175108100C0050C090141
:10055000A101850419012AA002150126A002950116
:1005600075108100C005010906A10185060507195E
:10057000E029E71500250195087501810205071995
:100580000029EF1500250195F07501810205081974
:10059000012905950575019102950175039101C029
:1005A00005010906A101050719E029E71500250144
:1005B00095087501810295017508810105071900EB
:1005C00029FF150026FF009506750881000508190A
:1005D0000129051500250195057501910295017503
:1005E000039101C009023B00020100A0FA090400C6
:1005F000000103010100092111010001224400074B
:10060000058103080001090401000103000000093D
:10061000211101000122B60007058203200001120A
:100620000100020000000853460100010001020021
:10063000010C0343006F0072006E006500000010A3
:100640000366006F006F007300740061006E0000AD
:100650000004030904000000000000000000000086
:10066000000000000000000000000000000000008A
:100670000000000000000000007E0F00D4FFFFFF1C
:10068000C70000007800000000000000002A2B28AE
:10069000000000000000000000000000000000005A
:1006A00029000000002C1E34202122243426272576
:1006B0002E362D3738271E1F2021222324252633AE
:1006C00033362E37381F0405060708090A0B0C0DB0
:1006D0000E0F101112131415161718191A1B1C1DC2
:1006E0002F3130232D350405060708090A0B0C0DA0
:1006F0000E0F101112131415161718191A1B1C1DA2
:100700002F3130354C0000000000003E5B4F5B3E57
:10071000003E6B4F6B3E001C3E7C3E1C00183C7E36
:100720003C18001C577D571C001C5E7F5E1C00009F
:10073000183C180000FFE7C3E7FF0000182418006A
:1007400000FFE7DBE7FF0030483A060E0026297974
:10075000292600407F05050700407F05253F005AF8
:100760003CE73C5A007F3E1C1C0800081C1C3E7FD6
:100770000014227F2214005F5F005F5F0006097F84
:10078000017F00006689956A006060606060009487
:10079000A2FFA2940008047E04080010207E20100E
:1007A0000008082A1C0800081C2A0808001E10104F
:1007B0001010000C1E0C1E0C0030383E38300006A5
:1007C0000E3E0E060000000000000000005F00006A
:1007D00000000700070000147F147F1400242A7F04
:1007E0002A12002313086462003649562050000084
:1007F0000807030000001C224100000041221C00E9
:10080000002A1C7F1C2A0008083E0808000080708F
:1008100030000008080808080000006060000020A0
:1008200010080402003E5149453E0000427F40004E
:10083000007249494946002141494D3300181412BC
:100840007F10002745454539003C4A494931004160
:100850002111090700364949493600464949291EF0
:1008600000000014000000004034000000000814E4
:100870002241001414141414000041221408000230
:1008800001590906003E415D594E007C1211127C4F
:10089000007F49494936003E41414122007F4141A4
:1008A000413E007F49494941007F09090901003E55
:1008B00041415173007F0808087F0000417F4100DB
:1008C000002040413F01007F08142241007F40404A
:1008D0004040007F021C027F007F0408107F003E22
:1008E0004141413E007F09090906003E4151215E18
:1008F000007F091929460026494949320003017F32
:100900000103003F4040403F001F2040201F003FA8
:100910004038403F00631408146300030478040364
:10092000006159494D4300007F41414100020408E4
:10093000102000004141417F0004020102040040F8
:100940004040404000000307080000205454784015
:10095000007F284444380038444444280038444444
:10096000287F0038545454180000087E09020018EB
:1009700024241C78007F080404780000447D400093
:10098000002040403D00007F102844000000417FCF
:100990004000007C04780478007C08040478003867
:1009A00044444438007C1824241800182424187C5B
:1009B000007C080404080048545454240004043FF4
:1009C0004424003C4040207C001C2040201C003C73
:1009D0004030403C004428102844004C9090907CCB
:1009E000004464544C440000083641000000007785
:1009F0000000000041360800000201020402003C31
:100A00002623263C0000000000000000000000003B
:100A10000000000000C0E0F0F8F81800C0F0FCFE94
:100A2000FFFFFFFFFFFFFF7E00000000000000004F
:100A30000080C0E0E0E0E0E0E0E0E0C08000000036
:100A40000080C0E0E0E0E0E0E0E0E0C08000000026
:100A5000E0E0C0C0E0E0E0E00000E0E0C0C0E0E0D6
:100A6000E0E0E0C0800000000080C0E0E0E0E0E006
:100A7000E0E0E0C080000000000000000000000096
:100A8000000000E0F0F0F0E0ECEEF7F37020007C06
:100A90007C7C7E007E7E7E7F7F7F000080C0E07E4B
:100AA0005B4F5BFEC00000C000DCD7DEDEDED7DCC3
:100AB00000C0000000000000000000000000000076
:100AC0000000000000000000000000000000F8FC32
:100AD000FEFFE000FFFFFFFFFFFF80FFFFFFFFFFC4
:100AE000FFFFFFFF1F0701000000000000000000E3
:100AF000FFFFFF8100000000000081C3C3C30000AE
:100B0000FFFFFF8100000000000081FFFFFF0000E9
:100B1000FFFFFF01000000000000FFFFFF010000D9
:100B2000000001FFFFFF0000FFFFFF9D1C1C1C1CBD
:100B30001C1C9DDFDFDF0000000000000000000043
:100B40000000000F1F3F7F7F7F7F7F3F1E0C001F35
:100B50001F1F3F003F3F3F7F7F7F00307B7F78300C
:100B6000202030787F3B0003000F7F0F0F0F7F0F97
:100B70000003000000000000000000000000000072
:100B80000000000000000000000000000000030F53
:100B90001F3F3F3F3F1F1F3F3F7F7F7F3F3F1F3F25
:100BA0007F7F7F7F7C7878381C0F0000000000007A
:100BB00000010307070707070707070301000000F5
:100BC00000010307070707070707070301000000E5
:100BD00007070700000000000000070707000000EB
:100BE00000000007070700000001030707070707C9
:100BF00007070703010000000000000000000000DC
:100C000000000000000000000000000000000000E4
:100C100000000000000000000000000000000000D4
:100C200000000000000000000000000000000000C4
:100C300000000000000000000000000000000000B4
:100C400000000000000011241FBECFEFDAE0DEBF7D
:100C5000CDBF04B603FE18C08091D6069091D7068A
:100C6000A091D806B091D9068730904BA740B04BE1
:100C700059F41092D6061092D7061092D806109208
:100C8000D906E0E0F8E3099511E0A0E0B1E0EAE878
:100C9000F8E602C005900D92AA3CB107D9F726E00C
:100CA000AAECB1E001C01D92A63DB207E1F70E9497
:100CB0002B290C94E8330C940000CF93DF93209100
:100CC000D4063091D506A9014E5C54402E563440CE
:100CD00021303240C0F020E032E0241B350B60911F
:100CE000CC047091CD04FC01CA01240F351FC1E072
:100CF000D0E08217930750F07093CD046093CC043A
:100D0000DF91CF91089520E630E0E9CF4491DC01F6
:100D1000A253BB4F5C91451781F04C93AC01A5E009
:100D200056954795AA95E1F7DE0102C0AA0FBB1FB1
:100D30004A95E2F7AD016A2B752B01963196D9CF12
:100D4000982FE091C70440917E0459E0E41302C05B
:100D500080E008952E2F30E05E9FF0011124E158CD
:100D6000FB4F8181681306C08081981303C0858181
:100D70008111EFCFF9013196E770E8CFFC01AC01AA
:100D80004C5F5F4F8FEF91E32191822728E030E0A5
:100D900087FF09C0880F892721503109C9F7E41757
:100DA000F50791F70895880FF7CFE8EDF0E080811F
:100DB0008E7F80831092E2001092DA001092E100A0
:100DC000A0EEB0E08C9181608C9380818F778083DE
:100DD00019BCA7EDB0E08C918E7F8C9380818F7EC3
:100DE000808310924F0408952091E4003091E50033
:100DF00095E6A9012091EC00822F817020FF06C0AA
:100E00008091E80080FF06C080E008952091E8000E
:100E100022FD1AC080917404882389F0853089F0FE
:100E20008091EB0085FD0FC02091E4003091E5003A
:100E300042175307F9F29150E1F684E0089582E0F9
:100E4000089583E0089581E008958091760487FFF6
:100E500013C08091E80082FF06C08091E8008B7784
:100E60008093E80004C0809174048111F2CF08954A
:100E7000809174048823D9F38091E80080FFF8CF33
:100E80008091E8008E77ECCF982F9093E900242F83
:100E9000762F50E0891731F07091EC002091ED0031
:100EA0005091F00021FD07C09F5F973071F780934C
:100EB000E90081E008953091EB003E7F3093EB0034
:100EC0003091ED003D7F3093ED003091EB003160CB
:100ED0003093EB007093EC002093ED005093F00002
:100EE0002091EE0027FDE0CF80E00895B0E0A0E083
:100EF000ECE7F7E00C948532C8EDD0E088818F7E76
:100F00008883E7EDF0E080818160808384E082BFA8
:100F100081E080934F0488818E7F888302EE10E009
:100F2000F80110821092DA0081EEC82ED12CF60161
:100F3000108288818F778883888180688883888100
:100F40008F7D888319BC10927404109275041092DE
:100F500073041092720490EEE92EF12CF701808157
:100F60008B7F808388818160888342E060E080E0BD
:100F70000E944407F60180818E7F8083F801808182
:100F800081608083808188608083F70180818E7F8B
:100F90008083888180618883CDB7DEB7E8E00C94D8
:100FA000A132FC01CB0120917C0430917D042617F5
:100FB000370790F0009729F42091E8002E772093CE
:100FC000E80040E0009751F4411108C08091E8002A
:100FD00082FF31C080E00895C901F3CF20917404ED
:100FE0002223A9F12530A9F12091E80023FD2DC08D
:100FF0002091E80022FDEACF2091E80020FFE2CF17
:101000003091F3002091F200009719F0283031055B
:1010100058F041E02830310509F040E02091E80027
:101020002E772093E800CECF41914093F1000197B5
:101030002F5F3F4FE9CF80917404882341F08530C2
:1010400041F08091E80083FFC1CF81E0089582E004
:10105000089583E00895809151040895A4E0B0E0DC
:10106000E4E3F8E00C948932462F572FBC012FB7E8
:10107000F8948091490490914A04A0914B04B09156
:101080004C042FBF8C019D01041B150B260B370B45
:10109000C901B8012496E4E00C94A532A4E0B0E0C4
:1010A000E4E5F8E00C948B328FB7F8942091490472
:1010B00030914A0440914B0450914C0429833A8367
:1010C0004B835C838FBF69817A818B819C8124965D
:1010D000E2E00C94A7329C01809171018823C9F051
:1010E00080914D0487FF15C0E62FE695E695E695BD
:1010F000603FE0F4E20FF32FF11D677081E090E0B4
:1011000001C0880F6A95EAF78095928189238283CE
:101110000895F9013296285F3F4F8191681303C00B
:10112000DF0111971C92E217F307B9F708959C01AC
:10113000809171018823C1F080914D0487FF14C014
:10114000E62FE695E695E695603FF8F4E20FF32F7B
:10115000F11D677021E030E001C0220F6A95EAF7C7
:101160008281822B82830895F90132968FEF90E07D
:101170004191641751F08F3F19F4411101C0892F3B
:101180009F5F9630A9F78F3F09F40895280F311D0E
:1011900087FD3A95F90162830895A3E0B0E0E3ED9D
:1011A000F8E00C948B329C018091460490914704A6
:1011B00082179307A1F03093470420934604E091EF
:1011C0004404F0914504309751F084E089833B83D7
:1011D0002A830680F781E02DCE010196099523969A
:1011E000E2E00C94A732A3E0B0E0E9EFF8E00C9461
:1011F0008B329C01809142049091430482179307A3
:10120000A1F03093430420934204E0914404F09110
:101210004504309751F083E089833B832A8306801D
:10122000F781E02DCE01019609952396E2E00C941A
:10123000A732AC0130913E0460913F04232F62132A
:1012400001C00895822F90E0FC01EE0FFF1FEA5CC1
:10125000FB4F0190F081E02DE417F50791F467E072
:10126000649FF001659FF00D1124E15CFE4F41E0A9
:1012700044832313E6CF01968370992780933E041D
:1012800008950196282F2370DACF1092CA03109286
:10129000C903EFE3F1E080E791E02581211102C06D
:1012A0001482168237968E179F07B9F708952091FA
:1012B000CB0436E0839FC0011124629F800D911DF5
:1012C0001124811522E0920714F090E080E082530F
:1012D0009B4F9093D5068093D4060895FA018823F6
:1012E00011F009950895FB01FCCF8091B703982F69
:1012F0009E7F71F48091B703817082608093B70301
:101300008091BA03893718F088E78093BA0308956B
:10131000843080F7F5CF8091070380FD16C081FDF2
:1013200016C082FD16C0809106038823A1F0883282
:1013300080F428E0829FC001112468E270E00E94DE
:10134000BE32862F672B39F0089582E0089584E03D
:10135000089588E0089581E008958091070380FD55
:1013600014C081FD14C082FD16C08091050388233E
:1013700081F08E3180F420E5829FC00111246EE15E
:1013800070E00E94BE32862F089584E1089588E2BD
:10139000089588E0089580E50895282F35EB23030C
:1013A000C001112497FF04C080589109892F089526
:1013B00080589F4FFBCF80E00895F894E82FE29586
:1013C000EF70F0E041A18F7021E030E0B90102C080
:1013D000660F771F8A95E2F7CB01962F909594239D
:1013E00091A392A1892B82A37894089590914D04A2
:1013F00092FF10C041E0282F2471243009F040E012
:1014000031E0282F2871283009F030E0431711F01F
:101410002CE0822793FF10C041E0282F2471243153
:1014200009F040E031E0282F2871283109F030E040
:10143000431711F02CE0822730914E0430FF10C08A
:1014400051E0282F2171213009F050E041E0282F90
:101450002871283009F040E0541711F029E0822764
:1014600031FF10C041E0282F2171213109F040E007
:1014700031E0282F2871283109F030E0431711F0AE
:1014800029E0822794FD877E0895803E9105C1F171
:10149000C8F48133910509F47DC048F4893291057F
:1014A00009F46DC08A32910509F47BC0089589332F
:1014B0009105D1F082389105B9F08533910509F491
:1014C00059C00895843E9105C1F138F4823E9105DA
:1014D00021F1833E910531F10895863E9105C1F1D8
:1014E000873E9105E1F1089520914D04237009F0A4
:1014F00065C020914E0423FF14C089E290E0089556
:1015000020914D0420FD43C030914E0430FF09C0AE
:1015100024FF4EC090E080E0089520914D0422FD0C
:10152000F7CF089520914D0422FD45C030914E041F
:1015300030FD44C024FFF5CFEDCF20914E0421FFB4
:10154000F0CF80914D0484FDE5CF87EE90E00895C3
:1015500020914D0423FFE5CF24FDDCCFF6CF209171
:101560004D0423FD2EC030914E0431FFE3CF84EEB5
:1015700090E0089520914D0425FFD3CFBECF209158
:101580004D0425FD21C020914E0423FFCACF89E3DD
:1015900090E0C7CF20914D0426FFC3CF8AE290E0B0
:1015A000089520914D0426FFBCCF81E390E008957B
:1015B00083EE90E0089582EE90E0089580EE90E052
:1015C000089586EE90E0089585E390E008957830E0
:1015D000B8F46630A8F48330B0F4E62FF0E096E07B
:1015E000799FE00DF11D112490E3899FE00DF11D1D
:1015F0001124EE0FFF1FEE5EFE4F8591949108952A
:1016000080E090E0089581E0FCCF1F93CF93DF93BB
:101610000E94450AEC018115924508F05FC0C11592
:1016200080E5D80708F0DDC0C03ED10538F5CD3CD7
:10163000D10508F0AEC0C83AD10580F4C53AD1054D
:1016400008F0A4C0C130D10509F443C0CE0104970D
:10165000813A9105F0F1D0E0C0E03BC0CE01885A5C
:1016600091094B97C0F7C85AD0E0CC0FDD1FC35883
:10167000DE4F0990D881C02DD4642BC0C11590E4F1
:10168000D907F0F4C11520E2D20708F0C4C0C83E63
:10169000D105F8F0CE019A9581159F41E0F68D2F86
:1016A0000E94F609182FCE0199270E94450AC12FE2
:1016B000D0E0DC2FCC27CC27DF71C82BD92B09C079
:1016C000CE0199270E94450ACC27DF70C82BD92B61
:1016D000D06ACE01DF91CF911F910895C03882E585
:1016E000D807B8F5C03692E5D90708F05BC0C0341A
:1016F00022E5D207C8F4C03282E5D80708F04BC013
:101700002C2F2695269590E2299F900111248C2F4D
:101710008370C1E0D0E002C0CC0FDD1F8A95E2F7F4
:10172000C22BD32BDD68D5CF2C2F2695269527707D
:1017300080E2289F900111248C2F8370C1E0D0E0BB
:1017400002C0CC0FDD1F8A95E2F7C22BD32BDC68D9
:10175000C0CFC03C92E5D90760F48C2F8F71C03A9E
:10176000D245A8F5C82FD0E0DC2FCC27C46FD06AB3
:10177000B0CFCE01805C9245809708F06CCFDC2F13
:10178000CC27CC27DF71C06FD06AA3CFA497D064D9
:10179000A0CFD0659ECFCF71D0E0DC2FCC27C16F1A
:1017A000D06A97CF2C2F26952695277080E2289F08
:1017B000900111248C2F8370C1E0D0E002C0CC0FC7
:1017C000DD1F8A95E2F7C22BD32BDA6882CF0E9405
:1017D000F609C82FD0E0DC2FCC27CC27DF71D062F0
:1017E00078CF8C2F8F710E94F60955E0D695C7955A
:1017F0005A95E1F7CF70D0E0DC2FCC27282F30E0CE
:1018000084FF05C044E0220F331F4A95E1F7C22B45
:10181000D32BD0695ECF8D2F8F710E94F609182FC0
:10182000CE0199270E94450AC12FD0E0DC2FCC279A
:10183000CC27DF71C82BD92BD2CF809133028111F5
:10184000109233020895982F90958091C5038923B3
:101850008093C50308958091C70490917E049813E6
:1018600001C008958F5F8770FACFB0E0A0E0EBE38E
:10187000FCE00C9484328C01E090D602F090D70208
:101880008091340290913502E82AF92ACFE0D0E025
:10189000CC24C394D12CBC2EC6010C2E02C0880FC0
:1018A000991F0A94E2F78E219F21892B49F42197F1
:1018B00090F7B12C8B2DCDB7DEB7E9E00C94A032B8
:1018C000B8018C2F0E94E70A0E94050B019779F35B
:1018D000F1CFCF93DF93D82FC92F0E94350C6D2FF6
:1018E0007C2F0E94E70A0E94050BDF91CF9108959B
:1018F000983078F5863068F5E82FF0E086E0989F1C
:10190000E00DF11D11249E2F977083E0F695E79569
:101910008A95E1F7EE0FFF1FEE0FFF1FEF50FE4F0E
:1019200050E040E080E0219130E0092E02C0369581
:1019300027950A94E2F721703327042E01C0220F65
:101940000A94EAF7822B4F5F5F4F4430510559F7F5
:10195000089580E00895983098F5863088F5E82F4E
:10196000F0E086E0989FE00DF11D11248E2F877026
:1019700041E001C0440F8A95EAF783E0F695E795C8
:101980008A95E1F7EE0FFF1FEE0FFF1FEF50FE4F9E
:1019900030E020E070E05191DF011197CB01022E81
:1019A00002C0969587950A94E2F781708195852704
:1019B000842385278C932F5F3F4F2430310559F7BF
:1019C00008959093D7028093D602089521E030E0E5
:1019D00002C0220F331F8A95E2F72095309580913F
:1019E000D6029091D702822393230E94E10C08959E
:1019F000909112028095892380931202282F2770DC
:101A000069F4891759F090914E0492FF07C08695AA
:101A1000869586950E94E60C10921202089521E0A8
:101A200030E002C0220F331F8A95E2F78091D60280
:101A30009091D702822B932B0E94E10C08959093F2
:101A40003502809334020895FC0184818823B1F02B
:101A5000878190850097A1F00E94050B282F929511
:101A60009F709630B9F088F4925F9F70923030F496
:101A700081E0203FA9F058F4283E58F080E009C0EA
:101A8000808191810E94690CE9CF9A5FEECF243F5B
:101A9000A9F7089581E0283E20F0213F79F7F9CF9A
:101AA00008950895A6E0B0E0E8E5FDE00C948A32E0
:101AB0009C01FC01878190850097E1F486E0DE01BE
:101AC000119601900D928A95E1F7F901258189819E
:101AD0009A81222399F0662389F00E94350C182FF1
:101AE000682F89819A810E94AB0C69817A81812F4C
:101AF0000E94E70A2696E3E00C94A6320E94780C36
:101B0000182FF3CF9C019A9581159F4120F431FF46
:101B100002C082E0089580E00895CF93DF93682F9C
:101B200081E06A3019F06D3031F480E00E940D0ED2
:101B3000DF91CF9108958091D4069091D50626E04B
:101B4000FC01AEECB6E001900D922A95E1F7603E03
:101B500008F458C026E0FC0111922A95E9F7C091DB
:101B6000D406D091D50646E050E0BE018EEC96E05A
:101B70000E947A339E012E5C3440892B41F1C901C9
:101B800045E0969587954A95E1F741E050E0BA0126
:101B900002C0660F771F8A95E2F7CB016091CC04F3
:101BA0007091CD04862B972BB9016B5F7F4FE5E0D9
:101BB00076956795EA95E1F702C0440F551F6A953F
:101BC000E2F7842B952B9093CD048093CC042A5F6D
:101BD0003F4F4091CB04642F70E0C9010E946732EF
:101BE000481B463010F4240F311D211572E03707D1
:101BF00010F030E020E022533B4F3093D506209385
:101C0000D40696CFF6E06F9FB00111246B5F784F3A
:101C100046E050E00E947133A2CFCF93382FE0917D
:101C2000D406F091D506EE5CF4402091CB04622FEF
:101C300070E0CF010E946732281B822F332361F0AE
:101C400066E00E94B232C82FC15010F4CF910895BF
:101C500080E20E948D0DF8CF9F01280F311D2115C4
:101C6000324018F080E0F0E0E0E08E0F9F2F911DF1
:101C700082539B4F9093D5068093D406E7CF8091F3
:101C8000C5039091CB03892B8093CC0190913302B3
:101C90009923A1F0892B8093CC0180917101882335
:101CA000E1F180914D0487FF38C08EE1EEECF1E068
:101CB00090E08150A0F591110E941D0C40E250E08F
:101CC00063E172E08CEC91E00E947A33892B21F180
:101CD00080E2ECECF1E0A3E1B2E001900D928A9594
:101CE000E1F7E0914404F09145043097A9F0809128
:101CF0007101882359F080914D0487FF07C08091BE
:101D0000CC018093CD0186E08093CC010280F381E9
:101D1000E02D8CEC91E00995089586E0C7CF2191E4
:101D2000222339F29F5FC5CF882341F0809590919F
:101D3000CB0389238093CB030E943F0E08958091AB
:101D4000C803882329F082E20E94940E1092C803EF
:101D50000895882339F09091CB03892B8093CB038E
:101D60000E943F0E0895882321F00E94230C0E94B8
:101D70003F0E0895882339F09091C503892B8093F5
:101D8000C5030E943F0E08950F931F93CF93DF93D7
:101D9000EC01FC0101900020E9F78F0101501109CD
:101DA000C017D10728F0DF91CF911F910F910895AF
:101DB00089910E948D0DF4CF0F931F93CF93DF93E2
:101DC0008B01EA0190917404943061F58093E900ED
:101DD0008FEF9091E800815095FD06C095ED9A95A2
:101DE000F1F700008111F5CF8091E80085FF1AC05E
:101DF0000E94F406811111C08091E80085FD06C0A3
:101E00008091E8008E778093E800F2CFF80181910D
:101E10008F018093F100219779F78091E8008E7708
:101E20008093E800DF91CF911F910F910895BC013D
:101E300043E050E082E00E94DC0E0895BC0146E0E1
:101E400050E082E00E94DC0E0895CF93DF93D82FFC
:101E5000C92F80917101811113C048E050E06D2FAE
:101E6000792F81E00E94DC0E80E2ED2FFC2FA2E5AD
:101E7000B4E001900D928A95E1F7DF91CF9108953A
:101E800080914D0487FF06C040E282E050E06D2F54
:101E90007C2FE8CF48E081E0F9CF81E08093E0003B
:101EA00080E28093D8001092C9008FE19EE40197F0
:101EB000F1F700C0000087E090EBDC018093D606CC
:101EC0009093D706A093D806B093D90688E19CE0FA
:101ED0000FB6F894A895809360000FBE90936000B1
:101EE000FFCF60913B018091B70380FF20C08091BC
:101EF0003A0143E0849FC00111248B5E9C4F539AAA
:101F00002BB1277F3BB138605FB7F894FC01649F29
:101F1000E00DF11D1124BF0168177907D1F45FBFEF
:101F20008FE594E00197F1F700C0000008958091DB
:101F30003C0190913D0123E0829FF0011124EB5E72
:101F4000FC4F8917A0F61182108212828F5F3396A0
:101F5000F8CFFC014191CF01E8E03BB9000000C09F
:101F600047FF2BB9440F000000C000C000C02BB9D0
:101F700000C0EA9591F7D0CFB0E0A0E0E2ECFFE03E
:101F80000C948332F82EE92ED62EC72E8A0180912A
:101F90006C02AA24A394B12C8A3018F48AE0A82EEB
:101FA000B12CC1E0D0E06D2D7C2D8F2D9E2DF80140
:101FB0000995811104C02196AC16BD062CF4CDB74D
:101FC000DEB7EAE00C949F32CC9F9001CD9F300D9C
:101FD000300D112490E080E045E34A95F1F70000D0
:101FE000019682179307C1F7DECF809142028111DB
:101FF00010C08091D80080618093D8008AE18A95D2
:10200000F1F700C08091D90080FF0AC081E0809381
:10201000420281E090914202913009F080E00895FF
:1020200082E0809342020E94D50610927404F1CFA0
:102030000E94F50F882359F0E0914404F091450483
:10204000309729F00190F081E02D0995089580E006
:102050000895A4E0B0E0EFE2F0E10C948B320E942E
:10206000F50F882371F00E944E0869837A838B8371
:102070009C8369817A818B819C812496E2E00C9417
:10208000A7320E944E0869837A838B839C83809158
:102090006D0290916E02A0916F02B0917002298141
:1020A0003A814B815C81280F391F4A1F5B1F2983AE
:1020B0003A834B835C83DDCFB0E0A0E0E2E6F0E161
:1020C0000C9485326C017B0164E670E088E70E9425
:1020D000B42FEC018601EC0CFD1CD7FD0CC0F801FF
:1020E000849164E670E00E942430EC010F5F1F4F82
:1020F0000E151F0591F70E94A63081E0CD2B09F047
:1021000080E0CDB7DEB7E8E00C94A1328091C30344
:102110009091C403911103C091E089270895882309
:1021200069F062E070E086ED94E00E945C1081113D
:1021300003C08091C30308951092C3038091C30329
:10214000EBCFA5E0B0E0E7EAF0E10C948B328091B0
:10215000C3038D838091C4038823F1F00E944E084D
:10216000DC01CB0180549B42AE4FBF4F8093BF0335
:102170009093C003A093C103B093C2038D818111DA
:1021800008C062E070E084ED94E00E945C10811170
:1021900008C08091C3038D838D812596E2E00C9465
:1021A000A73281E08093C303F4CFB0E0A0E0EBED71
:1021B000F0E10C94813249015A018B01D82FC92FCB
:1021C0000E94750964017501A401B50188E090E0E1
:1021D0000E94C6339401A501B8018D2F9C2F00E207
:1021E0000E944733622F84E290E00E94B433CDB75F
:1021F000DEB7ECE00C949D32B0E0A0E0E2E0F1E16B
:102200000C948132182FC62FD42F922E0091B70331
:1022100000FF50C08091B803811308C08091B903BA
:10222000861304C08091BA03841729F080911403A7
:10223000826080931403E02FE695F0E0E953FE4FAF
:10224000808180931203802F8E7F8230E9F4ED2FFE
:10225000D93708F0E8E7F0E0EC52FC4FC1112FC08D
:10226000F4918F2EEF2F00FF0FC080913C019091D1
:102270003D0123E0829FD0011124AB5EBC4F891742
:1022800008F48FC00E94710F1093B803C093B90374
:10229000D093BA03992071F02091B7036091BB03EA
:1022A0007091BC03312FAE018091BD039091BE03AC
:1022B0000E94D510CDB7DEB7ECE00C949D32EC2E29
:1022C000F12CE49126E0129F600111242FEF30E001
:1022D000C601B9010E946732812F90E0880F991FD3
:1022E000F5E5F69FA001F79F500D1124841B950B77
:1022F000B82EBB0CB80EA9014E195F09E49FC001AE
:10230000E59F900D1124F92FCB9DA0011124452F9D
:102310005527D901A41BB50BEA9FA001EB9F500DD7
:102320001124852ED901AB19B1095D01AE9CD001F4
:10233000AF9CB00DBE9CB00D1124AB2FBB272A1B48
:102340003B0BE29FD001E39FB00D11246330710578
:10235000D1F02CEFC21623E0D20670F46130710583
:10236000B1F062307105B9F02FEFC216D10408F058
:102370007ACF892EFB2F77CF6430710579F06630E4
:102380007105B9F370CFF52F8E2EE92F6CCFFE2F8C
:10239000E52F892E68CF8B2EFE2FF7CF8E2EEB2FB9
:1023A00062CF1196EC931197FC9312968C92129730
:1023B0008F5F139664CFE7EBF3E0438121E1421B8B
:1023C00008F440E021E0628181810E94FC100895C0
:1023D000E7EBF3E0438121E1420F08F44FEF21E006
:1023E000628181810E94FC100895E7EBF3E0628135
:1023F00021E1621B08F460E021E0438181810E94B9
:10240000FC100895E7EBF3E0628121E1620F08F42C
:102410006FEF21E0438181810E94FC100895E7EB7A
:10242000F3E0818121E04381628188500E94FC10A9
:102430000895E7EBF3E0818121E043816281885FC9
:102440000E94FC1008958091BB03882319F08150ED
:102450008093BB032091B7033091B8034091B90337
:102460005091BA036091BB037091BC038091BD038E
:102470009091BE030E94D51008958091BB038330D4
:1024800018F48F5F8093BB032091B7033091B8039A
:102490004091B9035091BA036091BB037091BC03A2
:1024A0008091BD039091BE030E94D51008952091A4
:1024B000B70320FF24C0217022602093B7038091CE
:1024C0001403816080931403662381F03091B80374
:1024D0004091B9035091BA036091BB037091BC0362
:1024E0008091BD039091BE030E94D51020E04091E1
:1024F000BA036091B9038091B8030E94FC1008955B
:102500009091B70396958FEF890F913009F481E090
:1025100061E00E945712089561E081E00E94571225
:102520000895E7EBF3E083E0808311828FEF8283ED
:1025300088E783831482A2E1B3E012968C9112970C
:10254000836012968C93758123E030E04FEF58E75B
:1025500060E0868197810E94D510089590914E0485
:1025600092FB222720F9281779F080FB92F99093AB
:102570004E0460914D0470914E0484E090E00E94FE
:10258000D23382E00E94F80C0895A6E0B0E0EBECB4
:10259000F2E10C9483328D837B01A42EB22E3E8314
:1025A0006801DB018D919D910D90BC91A02DBC0126
:1025B000CD010E942E0869837A838B839C836436C5
:1025C00071058105910510F4AA2061F1BD810B2FE1
:1025D0000B2E000C110B88E0B802F0011124E05022
:1025E000FF4F81819281855B9D4F408150E0C416F1
:1025F000D50608F4A6016B2D7E810E948733C801A1
:102600000E94F1318983882341F00E944E08D7014E
:102610006D937D938D939C93139789812696EAE021
:102620000C949F32B1E0B983F8CFA1E0B0E0EBE1C8
:10263000F3E10C9489328091D302898341E0909137
:102640005F02981301C040E001E010E09E012F5F9F
:102650003F4F68E672E084E00E94C5122196E4E0F4
:102660000C94A532ABE0B0E0E8E3F3E10C948932DE
:1026700088E0E7EBF3E0DE01119601900D928A9578
:10268000E1F78091120390911303A09114038987BD
:102690009A87AB8741E08B85811101C040E00BE058
:1026A00010E09E012F5F3F4F64E672E083E00E94DE
:1026B000C5128111109214032B96E4E00C94A532FC
:1026C000A8E0B0E0E6E6F3E10C948A328091600283
:1026D00090916102A0916202B0916302BC01CD01B0
:1026E0000E942E0811E0643671058105910578F18C
:1026F0000E942910DC01CB010296A11DB11D898326
:102700009A83AB83BC838091110190911201855B08
:102710009D4F20911001422F50E0253010F044E0F1
:1027200050E0BE016F5F7F4F0E94873382E090E0F0
:102730000E94F131182F882351F00E944E086093B7
:102740006002709361028093620290936302812F12
:102750002896E3E00C94A632EF92FF921F93CF935A
:10276000DF93CDB7DEB729970FB6F894DEBF0FBE63
:10277000CDBF7B0190E080E00E94F131182F8823CB
:1027800009F47DC080910301482F50E0882311F0A7
:1027900041E050E06091040170910501655B7D4F5F
:1027A000CE0105960E94873380914702909148029E
:1027B000A0914902B0914A02BC01CD010E942E08AD
:1027C000643671058105910540F48CE492E00E9425
:1027D000BE069D81891709F452C081E090E00E94F5
:1027E000F13181111BC010E08091430290914402AD
:1027F000A0914502B0914602F70180839183A283A4
:10280000B383812F29960FB6F894DEBF0FBECDBFDC
:10281000DF91CF911F91FF90EF90089580910B0170
:10282000482F50E0853010F044E050E060910C01FA
:1028300070910D01655B7D4FCE0101960E9487333B
:102840008CE492E00E94BE069D818913CCCF0E9449
:102850004E08609347027093480280934902909318
:102860004A0289819A81AB81BC8180934302909313
:102870004402A0934502B093460211E0B5CF809187
:102880004C0290914D02A0914E02B0914F0289836B
:102890009A83AB83BC831111E4CFA6CFA8E0B0E04C
:1028A000E4E5F4E10C948B3266EE7EEF90E080E09C
:1028B0000E94D23360E082E090E00E94B43360E096
:1028C00083E090E00E94B4331092350210923402FB
:1028D00060E074E184E090E00E94D23360E086E042
:1028E00090E00E94B4336FEF87E090E00E94B43331
:1028F00040E050E0BA0188E090E00E94C63360E01A
:1029000084E290E00E94B43360E087E190E00E94AE
:10291000B43360E08CE090E00E94B43360E08DE07E
:1029200090E00E94B43319821A821B821C821D829D
:102930001E821F82188648E050E068E170E0CE01F8
:1029400001960E94A43340E050E0BA0180E290E09A
:102950000E94C63340E050E0BA018FE090E00E9450
:10296000C63340E050E0BA0183E190E00E94C633F4
:102970002896E2E00C94A7321F920F920FB60F92A6
:1029800011242F933F934F935F936F937F938F9374
:102990009F93AF93BF93EF93FF938091E10082FFEA
:1029A00009C08091E20082FF05C08091E1008B7F29
:1029B0008093E1008091DA0080FF24C08091D800EC
:1029C00080FF20C08091DA008E7F8093DA008091B2
:1029D000D90080FF9BC080E189BD82E189BD09B437
:1029E00000FEFDCF81E08093740480914F0481113B
:1029F00009C00E94D5060E9476078091E20084609B
:102A00008093E2008091E10080FF17C08091E20096
:102A100080FF13C08091E2008E7F8093E20080915E
:102A2000E20080618093E2008091D8008062809310
:102A3000D80019BC85E0809374048091E10084FF84
:102A400029C08091E20084FF25C080E189BD82E138
:102A500089BD09B400FEFDCF8091D8008F7D8093A1
:102A6000D8008091E1008F7E8093E1008091E200A8
:102A70008F7E8093E2008091E20081608093E2008B
:102A800080917504882309F447C084E0809374041E
:102A9000809174048091E10083FF27C08091E2005F
:102AA00083FF23C08091E100877F8093E10082E073
:102AB00080937404109275048091E1008E7F80935E
:102AC000E1008091E2008E7F8093E2008091E2003D
:102AD00080618093E20042E060E080E00E94440771
:102AE0008091F00088608093F000FF91EF91BF919A
:102AF000AF919F918F917F916F915F914F913F9196
:102B00002F910F900FBE0F901F90189519BC109227
:102B1000740410924F0476CF8091E30087FD02C0C9
:102B200081E0B4CF83E0B2CF78941F921FB61F929A
:102B300011248F939F93AF93BF93809149049091F9
:102B40004A04A0914B04B0914C040196A11DB11D03
:102B50008093490490934A04A0934B04B0934C048F
:102B6000BF91AF919F918F911F901FBE1F9018959D
:102B70009C014FB7F8948091490490914A04A09128
:102B80004B04B0914C044FBF821B930B08952FB799
:102B9000F8948091490490914A04A0914B04B0911B
:102BA0004C042FBF08958091C80381110FC010926B
:102BB000C5030E941D0C0E94C71588579C4E909318
:102BC000C7038093C60381E08093C80308950E94E1
:102BD000C71520910E0330910F03232B21F0809312
:102BE0000A0390930B032091100330911103232BC0
:102BF00021F08093080390930903E0914404F0913D
:102C00004504309749F082E080930C030480F581FD
:102C1000E02D8CE093E0099508951092C503809112
:102C20007101EEECF1E0882329F180914D0487FFDA
:102C300021C08EE1DF011D928A95E9F790E080E0E6
:102C40000E94F30890E080E00E94CD081092CB0330
:102C50000E943F0E86E0ECE0F3E0DF011D928A95D2
:102C6000E9F71092050310920603109207030E94E1
:102C7000E715089586E0DECFAAE2B0E0E2E4F6E1EF
:102C80000C948A3286E794E0FC0101962091F100D1
:102C9000208324E08E379207B9F78091770489303A
:102CA00009F456C0C8F4823009F4B2C0833009F484
:102CB00081C0813071F18091E80083FF7CC28091F6
:102CC0007604909177049A3008F075C2E92FF0E00D
:102CD000E651FC4C0C9413338A3009F488C08B30D5
:102CE00051F780917604813231F780917A04909186
:102CF0007B04892B01F78091E800877F8093E800AF
:102D00000E94250780917804809371010E940D161E
:102D1000D2CF80917604813A71F68091E800877F66
:102D20008093E80080917A0490917B04892B61F470
:102D300060E282E594E070E00E94D1078091E800B3
:102D40008B778093E800B7CF60E090E080E0F3CF2E
:102D500080917604813209F0AECF80917A0490910F
:102D60007B04029708F0A7CF8091E800877F8093CB
:102D7000E8008091E80082FF18C09091F3008091F4
:102D8000F200029731F48091F100813011F0863029
:102D900021F48091F100809351048091E8008B77B9
:102DA0008093E8000E94250786CF809174048111EA
:102DB000E0CF81CF80917604813A09F07CCF809179
:102DC0007A0490917B04892B09F075CF8091E800FB
:102DD000877F8093E8008091E80080FFFCCF80919E
:102DE00071018093F1008091E8008E77D9CF8091B6
:102DF0007604813209F05FCF8091E800877F80936D
:102E0000E8000E942507809179048093500453CFF5
:102E100080917604813A09F04ECF8091E800877F57
:102E20008093E8008091E80080FFFCCF80915004FF
:102E3000D8CF803899F0823809F0BDC180917A04EA
:102E40008F70873008F0B7C18093E9008091EB0064
:102E500085FB882780F91092E90006C080917204F2
:102E600090917304911182609091E800977F909304
:102E7000E8008093F1001092F1008091E8008E77D5
:102E800096C1882309F484C1823009F094C18091ED
:102E90007804811187C180917A048F702FEF280FF9
:102EA000263008F088C18093E9002091EB0020FFD4
:102EB00079C1933031F48091EB0080628093EB0014
:102EC00071C19091EB0090619093EB0021E030E0B4
:102ED00001C0220F8A95EAF72093EA001092EA00D7
:102EE0008091EB008860EACF811165C11091780470
:102EF0001F778091E3008078812B8093E30080919D
:102F0000E800877F8093E8000E9425078091E80011
:102F100080FFFCCF8091E30080688093E30082E033
:102F2000111183E08093740446C18058823008F008
:102F300042C140917804509179044C3D83E0580798
:102F4000A1F583E08A838AE289834FB7F894DE0192
:102F5000139620E03EE051E2E32FF0E0509357005B
:102F6000E49120FF03C0E295EF703F5FEF708E2F7A
:102F700090E0EA30C0F0C7968D939D932F5F243187
:102F800059F74FBF8091E800877F8093E8006AE29D
:102F900070E0CE0101960E94D1078091E8008B7706
:102FA0008093E80008C1C096E7CF20917A04309161
:102FB0007B04852F99278330910509F160F48130D6
:102FC000910509F472C0029709F0F5C08BE390E017
:102FD000E4EEF5E029C08132910509F45AC08297E8
:102FE00009F0E9C02115310509F469C02130310526
:102FF00009F0E1C086EB90E0EAEEF4E015C0CA010A
:1030000099274130B1F18230910509F43AC0892BFA
:1030100009F0D1C0E1E5F6E0E4918E2F90E0E1E522
:10302000F6E0009709F4C7C02091E800277F2093BD
:10303000E80020917C0430917D048217930708F406
:103040009C0140E02115310509F03EC041113CC012
:103050008091E80082FDA1CF80917404882309F457
:103060009CCF853009F499CF8091E80083FFF0CFA1
:1030700094CFEFE3F6E0E4918E2F90E0EFE3F6E0FB
:10308000D0CFE1E3F6E0E4918E2F90E0E1E3F6E0CB
:10309000C8CF2115310571F02130310509F08BC001
:1030A00089E090E0EFE0F6E0BFCF82E190E0EFE171
:1030B000F6E0BACF89E090E0E6EFF5E0B5CF84E442
:1030C00090E0E0EAF5E0B0CF80917404882309F441
:1030D00064CF853009F461CF8091E80083FD5DCF36
:1030E0008091E80082FDB4CF8091E80080FFAACFF4
:1030F0009091F3008091F2002115310519F088308C
:10310000910550F041E0089709F040E08091E80017
:103110008E778093E80096CF44914093F1003196EA
:10312000215031090196E8CF803809F044C08091E0
:10313000E800877F8093E800809175048093F10018
:103140009CCE811138C0109178041230A0F5809186
:10315000E800877F8093E800109375040E9425079C
:10316000112311F084E005C08091E30087FDFACFC0
:1031700081E08093740442E061EC81E00E944407A6
:1031800042E261EC82E00E9444078091740413C023
:1031900080917804813079F481E0933009F080E007
:1031A000809373041092E9008091E800877F8093F8
:1031B000E8000E9425078091E80083FF0AC0809103
:1031C000E800877F8093E8008091EB008062809325
:1031D000EB00AA96E3E00C94A6321F920F920FB672
:1031E0000F9211242F933F934F935F936F937F938D
:1031F0008F939F93AF93BF93CF93DF93EF93FF93FF
:10320000D091E900DF708091EC00C82FC17080FD83
:10321000C0E81092E9008091F000877F8093F00071
:1032200078940E943C161092E9008091F00088602A
:103230008093F000CD2BCF70C093E900FF91EF9108
:10324000DF91CF91BF91AF919F918F917F916F91BE
:103250005F914F913F912F910F900FBE0F901F9054
:1032600018950E940D162FEF84E39CE021508040BA
:103270009040E1F700C0000088E19CE00FB6F894B0
:10328000A895809360000FBE90936000FFCF6623E7
:1032900009F45DC08D3C41F40E94AD098195809395
:1032A0000F030E94E71508958E3C19F40E94AD09A2
:1032B000F6CF8F3C31F40E94AD09819580930E03C7
:1032C000F0CF803D19F40E94AD09F8CF893D29F473
:1032D0000E948B0980931003E4CF8A3D21F40E9461
:1032E0008B098195F7CF8B3D31F40E948B09819535
:1032F00080931103D6CF8C3D19F40E948B09F8CF2F
:103300009FE2980F983070F4815D990B21E030E0D6
:1033100001C0220F8A95EAF780910D03822B8093DA
:103320000D03BFCF8D3D31F4809107038160809301
:103330000703B7CF8E3D21F4809107038260F7CF5A
:103340008F3D09F0AECF809107038460F0CF4091AC
:103350000E038D3C59F480910F0387FF0DC010922E
:103360000F0341110BC01092050308C08E3C81F47D
:1033700080910F0318169CF3442381F08091100371
:1033800090911103892B09F08CCF1092060389CFFD
:103390008F3C49F447FFF0CF10920E0380910F034A
:1033A0008111ECCFE0CF803D19F41416ACF3E4CFDB
:1033B00090911003893D29F41916F4F61092100328
:1033C000DBCF8A3D19F497FFD7CFF8CF9091110347
:1033D0008B3D29F497FFD0CF10921103CDCF8C3DB8
:1033E00019F41916CCF3C8CF9FE2980F983090F4D7
:1033F000815D990B21E030E0B90102C0660F771FB3
:103400008A95E2F7CB01809590910D0389238093F3
:103410000D03B2CF8D3D31F4809107038E7F8093F1
:103420000703AACF8E3D21F4809107038D7FF7CF4C
:103430008F3D09F0A1CF809107038B7FF0CF8823C8
:1034400099F19CEF980F913A40F4682F8CEC91E041
:103450000E946B080E943F0E089590E2980F9830EA
:1034600050F4877091E001C0990F8A95EAF7892F8F
:103470000E94230CEFCF9BE5980F933028F490E047
:1034800080E00E94F308089598E5980F9B3128F496
:1034900090E080E00E94CD08089593E3980F933167
:1034A00018F460E00E9447190895CF93C82F88232D
:1034B000D1F18CEF8C0F813AC0F580917101882396
:1034C00011F180914D0487FF1EC0EC2FE695E69523
:1034D000E695F0E0E453FE4F828190E04C2F477078
:1034E00021E030E002C0220F331F4A95E2F7822329
:1034F0009323892B89F06C2F8CEC91E00E946B0850
:103500000E943F0E09C0EEECF1E08191C81799F3DB
:1035100021E0E43DF207C9F76C2F8CEC91E00E94AA
:1035200097080E943F0ECF91089580E28C0F88305B
:1035300068F4C77021E030E001C0220FCA95EAF7B5
:103540008091C503822B8093C503EBCF8BE58C0F55
:10355000833038F42C2F2452330BC9010E94F30816
:10356000E2CFE8E5EC0FEB3150F4F0E0EE0FFF1F97
:10357000E358FE4F808191810E94CD08D4CF83E330
:103580008C0F833180F661E08C2F0E944719CBCFDE
:103590000F931F93CF93C82F10E000E0893311F4ED
:1035A00000E510E08C2F0E94551A0115110539F421
:1035B0008C2F0E941F1ACF911F910F9108958FE9B0
:1035C0009FE00197F1F700C0000001501109EDCF15
:1035D000B0E0A0E0EEEEFAE10C948332EC018AE078
:1035E000A82EFE012491222309F497C0213009F06E
:1035F0003EC031968491813031F42296FE0184914F
:103600000E94C81A07C0823039F42296FE018491C4
:103610000E94551A2196E5CF833031F42296FE019F
:1036200084910E941F1AF6CF843009F074C022964C
:10363000FE01249190E080E0FE0131962053330B8F
:103640002A30310548F0019728F3EFE9FFE0319780
:10365000F1F700C00000F7CFA89EA001A99E500D71
:103660001124C901840F951F2491EF01E5CFE22FAA
:10367000F0E0EB57F94FB490822F869586958695AA
:1036800090E0FC01EB58F94FE4902770F12C022EEA
:1036900002C0F594E7940A94E2F731E0E322FF24B4
:1036A000FC01EB59F94FC490D12C022E02C0D594E5
:1036B000C7940A94E2F7E1E0CE22DD24FC01EB5A44
:1036C000F94F049110E002C0159507952A95E2F78D
:1036D00001701127E114F10419F081EE0E94551ACE
:1036E000C114D10419F086EE0E94551A8B2D0E9448
:1036F000C81AC114D10419F086EE0E941F1AE114F1
:10370000F10419F081EE0E941F1A0115110509F448
:1037100081CF8CE275CFEF017DCFCDB7DEB7EAE088
:103720000C949F32FF920F931F93CF93DF93C62F7A
:10373000D42F122FFC0185818823A9F06093CA043D
:103740000E94C7159093C9048093C804C77081E094
:1037500001C0880FCA95EAF70E94BA0ECDB7DEB74E
:10376000E5E00C94A4328091CA04681330C08091C3
:10377000C8049091C9040E94B8158639910538F59E
:1037800000E20D0FCD17A9F0C770FF24F3948F2D21
:1037900001C0880FCA95EAF70E94B30E083048F4BA
:1037A0008D2F877001C0FF0C8A95EAF78F2D0E943C
:1037B000BA0E812F0E94C81A083080F6D77081E0B7
:1037C00001C0880FDA95EAF70E94B30EC7CFC77021
:1037D00081E001C0880FCA95EAF7F6CF0F931F93D7
:1037E000CF93DF93C82F8B010E94820DD82F0E94A8
:1037F000A90E8C2F0E94551A0115110559F48C2F12
:103800000E941F1A8D2F0E94940EDF91CF911F915D
:103810000F9108958FE99FE00197F1F700C0000034
:1038200001501109E9CFA7E1B0E0E9E1FCE10C9416
:1038300081321D861C86FE013E9686E0DF011D92C8
:103840008A95E9F785EBE82E81E0F82E10E000E09C
:10385000CC24C394D12C2FEBA22E21E0B22EF70161
:1038600081917F018F3F09F445C0F894E82FE295DC
:10387000EF70F0E021A18F70A60102C0440F551F28
:103880008A95E2F7CA01922F982B91A392A1809575
:10389000892382A3789400C0E9EBF1E031E0912C18
:1038A00021912F3F09F470C0A22FA295AF70B0E014
:1038B00090968C9190E02F7002C0959587952A95EF
:1038C000E2F780FD61C0832F982A330FAE16BF0642
:1038D00039F7F701319780818F3F11F00E94DD09A0
:1038E00050EA5A95F1F7ECE0F0E0EC0FFD1FE00F25
:1038F000F11F90820F5F1F4F0430110509F0AFCF09
:1039000048E050E0BE01645F7F4F81E792E00E9493
:103910007A339C01892B49F088E0FE013C96A1E7AF
:10392000B2E001900D928A95E1F700917A02232B83
:1039300069F181E080933A020E94C71590933902A1
:103940008093380280913802909139020E94B81514
:10395000059700F110E004581D4F44E050E061E786
:1039600072E0C8010E947A33E12C892B51F084E087
:10397000E1E7F2E0D80101900D928A95E1F7EE249B
:10398000E39410923A0207C080E09ECF80913A0201
:103990008111D8CFE12C0E94F50FF82EE0917A0228
:1039A000882309F489C01A8219821C821B820E2F77
:1039B00010E004581D4F80916C028A3008F046C018
:1039C0004CEA53E1BE016F5F7F4FC8010E94BC0FFC
:1039D000882309F460C040E653E1BE016F5F7F4F6A
:1039E000C8010E94BC0F882309F455C042E353E18B
:1039F000BE016F5F7F4FC8010E94BC0F882309F48E
:103A00004AC045E153E1BE016F5F7F4FC8010E948C
:103A1000BC0F882309F43FC010926C028091790298
:103A200090E044E050E0BE016F5F7F4F84589D4FAF
:103A30000E947A3321E020934102892BF1F4F12C8A
:103A40008F2D8E296796ECE00C949D3280913B027D
:103A500090913C020E94B815843F914008F0B0CF8D
:103A600080914102882359F384E0FE013196DF0101
:103A70001D928A95E9F710924102E0917902F0E0F7
:103A8000E458FD4F89819A81AB81BC818083918309
:103A9000A283B383D5CF80916C028F3F31F08F5FCB
:103AA00080936C028A3008F4B9CF0E94C7159093B6
:103AB0003C0280933B02D4CFF0E0E458FD4F80817C
:103AC0009181A281B38180934C0290934D02A09387
:103AD0004E02B0934F028CE492E00E94BE068093A7
:103AE0004B028090500290905102A0905202B090F0
:103AF000530280913D0290913E02A0913F02B0910D
:103B0000400288169906AA06BB06D1F080923D02B3
:103B100090923E02A0923F02B09240020E94F50FA6
:103B200081110EC00E944E08861A970AA80AB90A87
:103B300080926D0290926E02A0926F02B09270021B
:103B40008BE0E4E5F2E0DE01119601900D928A959A
:103B5000E1F780915402869500915502D09056026B
:103B6000C090570210915E0210925E021123D1F0B4
:103B700010FF10C029812170982F990F292B2983BC
:103B80009091B70320FF13C091609093B70360E05A
:103B90000E94571211FF06C020E04C2D6D2D802F82
:103BA0000E94FC1080915F028093D30249CF9E7FD8
:103BB0009093B703809114038160809314030E9453
:103BC000710FE8CFB0E0A0E0E8EEFDE10C948332A5
:103BD0008C01FC018481882309F47AC061E0C8016A
:103BE0000E94520DEC01F8014581442309F408C5F7
:103BF0009C013A9599272115FFE43F0738F090E0A2
:103C000080E0CF3FD10509F008F4CE01BC0164503B
:103C100071096432710518F08B970E9780F4E0916A
:103C20009302F0E0EE0FFF1FE856FD4F8081918177
:103C30008F3F5FE7950719F0019691838083F80124
:103C400081818093DB0280818093DA0280E280931D
:103C50003201D093D902C093D802CE01905281157F
:103C6000904268F0CE01905481159041B0F5F80172
:103C70008681807F49F421153F41B8F505C0F801E0
:103C80008681807F09F4C0C4FE01FF27ED33F10572
:103C900028F4EA52FF4FE491E0933201C337FCE786
:103CA000DF0709F0B1C48091C803882301F10E94A5
:103CB0009F0E80911202877059F0F8018581882348
:103CC00039F080914E0482FF03C082E00E94F80C1C
:103CD000CDB7DEB7EAE00C949F3221153F41A0F248
:103CE000CE01805A92458097C8F2FE01CFCF0E9444
:103CF000D315DFCF1092EE01B3C4E090C503F0906E
:103D000033020E94C71588579C4E9093C703809337
:103D1000C603F8018581882309F4A2C48F2D8E295A
:103D20008D7909F066C0C115F0E5DF0758F5C115BA
:103D300020E4D20708F060C0C63ED10509F48CC06B
:103D4000CE0190528115904260F5F8018681807F06
:103D500009F441C0CE0199271092CB038D32910511
:103D600069F008F054C08832910508F04BC08E31DC
:103D7000910508F049C004974A97D8F582E08093EE
:103D8000CB0342C0C43BF2E5DF0709F465C098F4F9
:103D9000C03452E5D50738F4C11582E5D80708F0DC
:103DA0005FC4CE01D9CFCE018056924580349105B3
:103DB00008F456C4F6CFC03E92E5D90728F4C03CBB
:103DC000E2E5DE0770F34CC4CE0187579C470297AB
:103DD00008F446C4E6CF8D2F8F718431E9F138F4B1
:103DE0008D2F8F70823029F41092CB0302C0863160
:103DF000D9F30E949F0E34C4F8018681807F09F0B8
:103E0000A9CF2EC48A97A9F70E943F0E29C48C34EB
:103E10009105D1F38D329240B9F3EBCF26E241EE1A
:103E200061EEC8010E94921B44CF27E245EE65EE89
:103E3000F8CF26E241EE60EEF4CF27E245EE64EEE5
:103E4000F0CF26E241EE62EEECCF27E245EE66EEE1
:103E5000E8CF28E241E0EBCFF8018581882309F41F
:103E600020C41092CA04CE019057839708F003C46F
:103E700084E090E00E949E3390934E0480934D0422
:103E8000FE01E150F047E232F10520F4EC50FC4C29
:103E90000C94133380914D04816080934D046091A4
:103EA0004D0470914E0484E090E00E94D2330E9451
:103EB0000D16FFCE80914E04886080934E04EFCFA4
:103EC00080914D048260E9CF80914D048460E5CFFC
:103ED00080914D048860E1CF80914E048160EDCFE8
:103EE00080914E048260E9CF80914D048061D5CFEE
:103EF00080914D048062D1CF80914D048064CDCFFC
:103F00000E940D1680914D048068C7CF80914D04AA
:103F10008C60C3CF80914E048360CFCF80914D04DD
:103F20008E7FBBCF80914E04877FC7CF80914D0499
:103F30008D7FB3CF80914D048B7FAFCF80914D04A7
:103F4000877FABCF80914E048E7FB7CF80914E0498
:103F50008D7FB3CF80914D048F7E9FCF80914D0494
:103F60008F7D9BCF80914D048F7B97CF0E940D1644
:103F700080914D048F7791CF80914D04837F8DCFB9
:103F800080914E048C7F99CF80914D0482FB9927BC
:103F900090F921E0922790FB82F990FB83F97DCF85
:103FA00080914E04982F909591708E7F892B90FB75
:103FB00081F983CF90914D04892F8F7B96FF806488
:103FC0006CCF0E940D1690914D04892F97FB87F9B5
:103FD000805863CF61E08EE090E00E94B4335FCF01
:103FE00060E0F9CF90914D04892F8F7E94FF80611E
:103FF00054CF90914D04892F8E7F90FF81604DCFDB
:1040000090914E04892F877F93FF886056CF8091CF
:10401000B70380FF1CC0282F2E7F2093B703309159
:10402000B8034091B9035091BA036091BB037091FA
:10403000BC038091BD039091BE030E94D510809176
:1040400014038160809314030E94710F32CE81604B
:104050008093B70361E086950E9457122ACE40E80C
:1040600052E16CE872E10E946E0923CE4CE852E105
:1040700060E872E1F8CF4FE052E169E172E1F3CF1D
:1040800049E152E16FE072E1EECF45EF51E162E0CC
:1040900072E1E9CF42E052E165EF71E1E4CF4BED2F
:1040A00051E168EE71E1DFCF48EE51E16BED71E176
:1040B000DACF43E252E16DE372E1D5CF4DE352E155
:1040C00063E272E1D0CF61E081E0C6CFCB35FCE79F
:1040D000DF0708F04EC0C1302CE7D20709F46EC0EC
:1040E000C3305CE7D50709F463C0C115DC4709F4A8
:1040F00052C0F80187819085009709F463C00E943F
:10410000050BD82FC92FF801A580E680E2942FE097
:10411000E222809112028770F1F0BA2CAA20E1F01D
:10412000892F807F803451F080E28D0F883098F0A5
:10413000E11004C0892F807E803269F080914E04A6
:1041400082FF09C082E00E94F80C80911202877001
:10415000BB24B3948111B12C8C2F82958F70C82E03
:10416000D12C8C3008F0A5C0F601EA5EFB4C0C9413
:104170001333CB359CE7D90719F1CC35DC4709F06F
:10418000B8CF80914E0482FB882780F991E089277F
:104190000E94AE12AECF0E940D16FFEF24E35CE04A
:1041A000F15020405040E1F700C000000E944D0F48
:1041B0006FEF7FEF90E080E00E94D2330E943119D0
:1041C00080E0E6CF8581E080F180882369F0C70137
:1041D0000E94350CC82F682FC7010E94AB0CB70195
:1041E0008C2F0E94E70A8BCFC7010E94780CC82F42
:1041F000F6CFFC2FFF70FF2EC07F19F0F29490EFE6
:10420000F922AA20B9F0FF2069F080E28D0F8830F2
:1042100010F0D11109C08091C503F82AF092C503AE
:104220000E943F0E8D2F43C08091CB03F82AF0925D
:10423000CB03F6CF8D2F0E941F1AFF20D1F180E211
:104240008D0F883010F0D11104C08F2D0E94230CE7
:1042500006C0F0948091CB03F822F092CB030E9429
:104260003F0E27C02C2F2F70F22EC07FC03219F0C6
:10427000F29480EFF822DD2351F0D13009F473C0BD
:10428000AA2009F47FC0EE2009F442C0CBCF809170
:104290004E0482FD39C0AA2089F1FF2039F08091B7
:1042A000C503F82AF092C5030E943F0E80E00E94E9
:1042B000551A98E0C91AD108E4E0CE16D10410F4DA
:1042C0000E941810BB20A9F08091120280FD11C03D
:1042D000F80115828695869586950E940F0DC80176
:1042E0000E94E21D809112028695869586950E9415
:1042F000E60C60E0C8010E94520DEACC80E00E940A
:104300001F1AFF20B1F2A1CFAA2099F0E11004C03A
:104310008F2D0E94BA0ECDCF51E0E512CACF809109
:1043200033029F2D9823F91621F2F82AF0923302D6
:10433000C0CFE110BECF8F2D0E94B30E90913302FB
:104340008F2D892329F08F2D809589238093330227
:104350008091F0019F2D982309F4ABCFF094F822BF
:10436000F092F001A6CFAA2029F085E08E1508F47E
:10437000A0CFCECF94E09E1508F49BCF8F2D0E9446
:10438000B30E97CFEE20D1F3D93349F4EFEFF7EE28
:1043900023E0E150F0402040E1F700C000008D2F05
:1043A0000E941F1A86CF8C2F86958695837069F0A0
:1043B000813009F07ECF8D2F9C2F9370A11002C009
:1043C00080E090E00E94CD0874CF8D2F9C2F9370D9
:1043D000A11002C080E090E00E94F3086ACF6A2D2D
:1043E0008D2F0E94471965CF8C2F837009F040C034
:1043F000A1105FCF4D2F429546954770440F440F53
:104400002D2F2F7030E0042E02C0220F331F0A948C
:10441000E2F790E080E0D4FF09C08FE090E002C0B6
:10442000880F991F4A95E2F780959095C695C69595
:10443000C370C230A1F0C33079F040913402509182
:104440003502C13039F0822B932B842395230E94AF
:104450001F0D2FCF242B352B822B932BF8CF822BA4
:10446000932B209134023091350282279327EFCF8E
:104470008695AA2011F08C2F8170882309F419CF1A
:104480004D2F429546954770440F440F2D2F2F70A6
:1044900030E0042E02C0220F331F0A94E2F790E0AE
:1044A00080E0D4FF09C08FE090E002C0880F991F20
:1044B0004A95E2F780959095C695C695C370C2302F
:1044C000A1F0C33079F04091D6025091D702C130AB
:1044D00039F0822B932B842395230E94E10CE9CEA3
:1044E000242B352B822B932BF8CF822B932B2091CF
:1044F000D6023091D70282279327EFCFCF70AA2020
:1045000029F08C2F0E940F0D8D2F03CF8D2F0E942D
:10451000B30E8C2F0E94E60CCCCED23F71F160F42A
:10452000D03FB9F0D13F81F0AA2009F459C0E11081
:1045300079CE8C2F8F7125C0D33F31F1D43FA1F7B5
:1045400080914E0482FD2EC08C2F8F71AA2011F312
:1045500018C0AA2069F054E05E1508F4AACECF7105
:1045600081E090E002C0880F991FCA95E2F7BFCFA3
:1045700085E08E1508F49DCEF2CF8C2F8F71A1109F
:10458000C9CF0E940F0D95CE90E080E0AA2009F4DB
:10459000A4CFCF7181E090E002C0880F991FCA9527
:1045A000E2F79BCFAA2089F0CF718C2F0E940F0DCC
:1045B00080914E0482FF07C0E8E0CE9FC001112425
:1045C0008360809312028C2FDCCF81E00E94F80C74
:1045D000F1E0FE1508F06DCE82E00E94F80C69CE85
:1045E000EE2059F0D93309F0DACE2FEF57EE83E001
:1045F000215050408040E1F7D0CE8C2F8F718ACF70
:1046000083379C4709F455CB8091C803811175CB42
:10461000442331F1C13ED10529F0C23A22E5D20747
:1046200009F068CB8091EE01882371F0F801828156
:1046300093812091EC013091ED01821B930B8F3F10
:104640009F4710F00E94D31581E08093EE01F8019E
:10465000828193818A569F4F9093ED018093EC0164
:10466000FE01E851FC47E730F10508F0F5CBEE5DBF
:10467000FB4C0C941333C6315CE7D50701F58091F0
:10468000C5038A7A91E009F490E09093EF0169E222
:10469000811165E38CEC91E00E9497080E943F0E27
:1046A00008CBC6318CE7D80789F48091EF0169E225
:1046B000811165E38CEC91E00E946B08EFCFCA3565
:1046C000ECE7DE0709F002CD81E062CD8091C50301
:1046D0008272FE01E052F847E531F10508F009CD9C
:1046E000E75DFB4C0C941333CF93DF9380910F0263
:1046F000807F09F04DC080910E02882309F448C0E4
:10470000E091C70450917E04C0910A02D091090241
:1047100060910B0270910C0249E05E17C9F18E2F77
:1047200090E0E49FF0011124E158FB4F2481222303
:1047300091F1489FF001499FF00D1124DF01A1582C
:10474000BB4F11962C9111972C1325C02C912D1332
:1047500022C015962C91159721111DC012962D91EE
:104760003C91261B370B26393105A8F480910F02A6
:104770008F70806180930F02EB57FB4F80818F70A9
:104780008061808389E092E00E94E21D0E942B0CF0
:10479000DF91CF910895FC013196E770BECFAFE075
:1047A000B0E0E5EDF3E20C9481328C0186E0F80193
:1047B000DE011A9601900D928A95E1F7F801848145
:1047C000E58099E0A92E92E0B92E90910D02911109
:1047D00028C0882319F1EE20F1F0C8010E94240DB1
:1047E000F82E8823C1F089E0F801D50101900D92DF
:1047F0008A95E1F780910D02813031F480910902B0
:1048000090910A020E94690C0E9474238F2D2F96AA
:10481000ECE00C949D32C8010E94E21DFF24F39449
:10482000F5CFD080C18082809380F0900E022091DD
:104830000B0230910C02A401421B530BFF2009F420
:10484000EAC04639510508F0B6C08823F9F29091C4
:104850000A0280910F02282F207F09F05FC0C91241
:104860001DC090910902D91219C0409110025091B7
:104870001102278130854217530781F4E11048C0A7
:104880008F70806180930F0289E092E00E94E21DA8
:1048900080910F02F8018683F12CB8CFE11038C067
:1048A0006C2D8D2D0E94A0066C2D8D2D0E94A006D2
:1048B000E82E8111F1CFDA86CB868A859B850E940E
:1048C000690C292F22952F70903458F49F70223054
:1048D00088F0992399F0F8019681907F79F4FE2C65
:1048E00095CF2A5F2F70223068F0C8010E94E21D28
:1048F000EF2CF5CF992311F0882389F3805E88305F
:1049000070F3F3CF803F58F3815F833040F3EDCFF6
:1049100080910F02816080930F02BECFC9121CC02C
:1049200090910902D91218C04091100250911102C1
:10493000278130854217530779F4E1100DC0868333
:10494000C8010E94E21D89E0F801A9E0B2E00190EF
:104950000D928A95E1F75ACFC8010E94240D882351
:1049600009F459CFEE2009F456CF80910F0280321E
:10497000B8F02091090230910A023A8329839C827F
:104980008B8290910D029D831E828F8380911002F5
:104990009091110299878887CE0101960E94E21DAD
:1049A00089E0F801A9E0B2E001900D928A95E1F763
:1049B0000E94742333CF90910F02292F207F51F44E
:1049C00089E092E00E94E21D89E0F50111928A954A
:1049D000E9F762CF882309F419CF80910A028C117C
:1049E000BBCF80910902D812B7CF409110025091ED
:1049F0001102278130854217530709F0ADCFE1102E
:104A0000ABCF9683C8010E94E21D89E0F5011192A7
:104A10008A95E9F7FBCE46395105B8F7882309F4A2
:104A2000FDCEFE2CEE2009F4F6CE80910A028C1108
:104A30001FC080910902D8121BC020911002309132
:104A40001102878190852817390791F480910F0210
:104A500080FD79CF982F907F09F475CF8683903FA2
:104A600009F46ECF982F907F905F8F70892B67CF5E
:104A7000C8010E94240D811193CF80910F028160A3
:104A800080930F02C8010E94E21DC0CEA2E1B0E0F7
:104A9000ECE4F5E20C9489320A871B872C873D876A
:104AA0004E875F87688B798B8A8BCE010A960E942E
:104AB000CF2381110CC089E0FE013A96DE011196E8
:104AC00001900D928A95E1F74E8541110BC019E0D6
:104AD0008091C70490917E04891332C06296E4E00D
:104AE0000C94A53220917E0430E0C90101968770B4
:104AF00099275091C70458171906A1F04D8399E0E2
:104B0000929FD001939FB00D1124A158BB4FFE017D
:104B1000319601900D929A95E1F780937E040E9460
:104B20002B0CD5CF0E940D1610927E041092C70454
:104B300089E0E9E0F2E0DF011D928A95E9F7C7CF4D
:104B4000819FC001112481589B4F0E94CF2388234D
:104B500029F28091C70490E001968770992780938D
:104B6000C704B6CFEF92FF920F931F93CF93DF93BB
:104B70008091CD03882361F0A091CC038DE0F82EC5
:104B80008091CD03A81748F01092CD031092CC036A
:104B9000CDB7DEB7E6E00C94A332EE24E394EA0E40
:104BA000E092CC03CA2FD0E0AF9DD0011124A253D4
:104BB000BC4F14968C911497882311F1FD018781C5
:104BC0009085892B09F04CC00184F285E02DEF3FE0
:104BD000FE0709F445C0E730F10540F4E25CFB4C08
:104BE0000C94133387EE94E00E94E81AFC9EF001C7
:104BF000FD9EF00D1124E253FC4F14821092CB0362
:104C0000AE2DBECF84EE94E0EFCF81EE94E0ECCFFA
:104C10008EED94E00E94E81A70E060E080E590E09C
:104C20000E94EE1BE3CF8BED94E0F4CF88ED94E08F
:104C3000F1CF70E060E089E290E00E94EE1B70E04E
:104C400060E083E392E00E94EE1B70E060E08AE1A6
:104C500090E00E94EE1B70E060E084E190E0E0CF25
:104C60000C9111961C91119712962C9112971396F4
:104C70003C91139714964C91149715965C91159747
:104C800016966C91169717967C91179718968C919B
:104C90000E944625ABCF109241041092400410921E
:104CA000700180913F0480933E040E9445090E9458
:104CB000B2250895B0E0A0E0E0E6F6E20C947B3285
:104CC000C0913E04E7E0FE2E01E010E0FDE02F2E53
:104CD000EE24E39480913F048C1309C00E94B22516
:104CE0000E944509CDB7DEB7E2E10C949732D0E0DF
:104CF000FE01EE0FFF1FEA5CFB4F80819181F89E61
:104D0000F001F99EF00D1124E15CFE4F2481211188
:104D10005AC03090CD03AEECB3E030E020E0412C3F
:104D20005F01231508F04DC01B966D907C901C9779
:104D3000F501808091804FEF5FEF512CC52CD12C75
:104D4000F601EE0FFF1FE80DF91D659174916616CF
:104D5000770609F4A601672B11F05394EFCF4F3F6C
:104D60005407B9F1B80102C0660F771F4A95E2F700
:104D7000462AA801052C02C0440F551F0A94E2F7E9
:104D8000415051094416150609F5229EF001239E53
:104D9000F00D1124E253FC4FF89ED001F99EB00DA6
:104DA0001124A15CBE4F12962D913C911397308730
:104DB000278374E07483108211829287818715960D
:104DC000EC920E9419092196C37084CF14961C920C
:104DD00014972F5F3F4F1D96A4CFAEE1B0E0E3EFF5
:104DE000F6E20C947B324B8B5C8B6D8B7E8B8F8BC6
:104DF000988F91111092CB03188A198A1A8A86E02B
:104E0000FE017396DE011A9601900D928A95E1F7E4
:104E10008E85882389F061E0CE010A960E94520DAA
:104E20006C018F8520E5C2162CE7D20689F4882311
:104E300029F181E0809370010A851B852C853D85D1
:104E40004E855F85688979898A890E944625C8C010
:104E500031E5C3163CE7D30629F4882379F00E9494
:104E60004B26EACF42E5C4164CE7D40639F4882332
:104E700029F0809170018111F2CFDBCFFFE3EF2E9B
:104E8000F1E0FF2E512CB12CA12C88248394912C7D
:104E9000B7E04B2ECE0101969A8F898F332433943D
:104EA000F7014081518166246A94762C60E0262FB8
:104EB00030E0F901EE0FFF1FE40FF51F859194918B
:104EC000C816D90609F43901892B11F06F5FEFCFAD
:104ED00010E0FFEF6F167F0609F443C0F70144812D
:104EE00010917001812F411180E0182F1170F7018E
:104EF000258086819F85992309F4F2C0112309F446
:104F0000EFC0211014C09401062C01C0220F0A9496
:104F1000EAF7822B86838091C9039091CA03C297D6
:104F200030F422E330E03093CA032093C903C40174
:104F300002C0880F991F6A95E2F70197F701268151
:104F40002817190671F4809140049091410400974C
:104F500009F44AC00E94B815C39708F445C0F70188
:104F60003482512AFFEFAF1ABF0A27E0E20EF11C8C
:104F700037E0A316B10409F093CF8F85882309F495
:104F80000BC1552009F408C10E94C7159093410434
:104F9000809340048091CD03883010F591E0980F04
:104FA0009093CD0399E0FE013A96DE0111960190AF
:104FB0000D929A95E1F74DE0849FC0011124825330
:104FC0009C4F29E0FE013196DC0101900D922A955B
:104FD000E1F72FEF3FEFFC0132872187D486C386AC
:104FE0006E96E2E10C94973280913E0460913F040A
:104FF000982FF0E0E0E0861314C090933E04EE1585
:10500000FF0509F4AECF90E0FC01EE0FFF1FEA5C54
:10501000FB4FB182A08201968370992780933F0451
:10502000A0CF682E712CF301EE0FFF1FEA5CFB4F3F
:1050300020813181429ED001439EB00D1124A15C9C
:10504000BE4F2D913C9111973E8F2D8F00E070E067
:10505000212CE22DF0E0EE0FFF1F2D8D3E8DE20F93
:10506000F31F2591349121153105E1F0F7010190ED
:10507000F081E02DFC8FEB8F70E005C02417350721
:1050800009F4012F7F5FE72FF0E0EE0FFF1F4B8D3C
:105090005C8DE40FF51F459154914115510571F751
:1050A0002394D7CF0023C9F0F701721508F0FD0152
:1050B0003482EE16FF0621F490933E04102F51CF58
:1050C000891305C0AE17BF0711F49F5F937093015A
:1050D0002F5F3F4F822F83708ECFF0E0E0E0F7CF5D
:1050E00090E021101FC0940102C0220F331F6A9567
:1050F000E2F7215031098217930731F4442309F470
:1051000049C0C5010E941909C401062C01C0880FBD
:105110000A94EAF7982F9095F70186818923868370
:10512000122D1FCFAC01062C02C0559547950A944D
:10513000E2F79C012150310982239323892B31F519
:1051400040FF24C0F70182819381892BE1F0E98D32
:10515000FA8D242D11922A95E9F70E94C715282F60
:105160008B839C8334E03D83F70182819381782F88
:105170008887998709811A813C8144E05E816F812B
:10518000892F0E944625F7011582BECFF42FF170BA
:105190002F2EBACF212EB8CF90913E0480913F049C
:1051A000981729F00E945A2651101ACF45CE0E9416
:1051B000B22510924104109240040E944509F4CF98
:1051C000A6E0B0E0E6EEF8E20C9489320E94C71542
:1051D0008C0180913602909137028017910781F0FF
:1051E00019821A820E94C715682F49815A81792F26
:1051F00080E090E00E94ED26109337020093360283
:105200002696E4E00C94A5321F921FB61F9211243B
:105210008F939F93AF93BF9380914804811113C0E4
:105220008091490490914A04A0914B04B0914C04A0
:105230004196A11DB11D8093490490934A04A09307
:105240004B04B0934C04BF91AF919F918F911F90ED
:105250001FBE1F901895CDB7DEB762970FB6F894B2
:10526000DEBF0FBECDBF85B7806885BF85B78068BC
:1052700085BF84B7877F84BF0FB6F894A8958091C7
:105280006000886180936000109260000FBE80E82B
:1052900090E00FB6F89480936100909361000FBE88
:1052A0008BED99E09093CB018093CA010E94D506C3
:1052B0000E9476078091E20084608093E2007894F7
:1052C000809174048823A1F01091E9001F709091DF
:1052D000EC00892F817090FD80E8182B1092E90076
:1052E0008091E80083FD0E943C161F701093E90036
:1052F00082E084BD93E095BD9AEF97BD80936E00E8
:1053000010926D0210926E0210926F021092700253
:105310000E94F50F8093280180912801882309F4C9
:1053200075C010923A018BE180933B010E94F50F0A
:1053300081110E940431809128018091280194E01C
:10534000811190E090937A0284E0891B8093790226
:1053500084E90E94DD0986E60E94DD0987E90E9452
:10536000DD0986EC0E94DD0909EB11E0D8018D9181
:105370008D018F3F11F00E94DD09B1E00F3B1B074B
:10538000A9F788E0ECE7F2E0DF01282F1D922A95CB
:10539000E9F7E1E7F2E0DF011D928A95E9F790E095
:1053A00080E00E949E33863E9E4F11F00E944E1474
:1053B00082E090E00E9490338093840284E090E049
:1053C0000E949E3390934E0480934D040E94131CC0
:1053D000EFEFF6E721E0E150F0402040E1F700C0B8
:1053E00000000E94131C0E94F50FE4E08111E0E030
:1053F000F0E0E458FD4F808181FF0CC06FEF7FEF3C
:1054000090E080E00E94D2330E944D0F8BE18093A8
:105410003A018ACF83E090E00E94903390E00E94AE
:105420001F0D0E94F50F83E08093FC0280E28093C1
:10543000CB040E94AE2F6BE070E089E492E00E9402
:105440005C10882309F443C08091FC0265E070E0A1
:1054500081FD27C184E492E00E945C108823B9F1A9
:105460006DE070E082E392E00E945C10882379F1A5
:105470000E944E086B877C878D879E87DC01CB015D
:1054800080549B42AE4FBF4F8093BF039093C003A5
:10549000A093C103B093C203EEECF4E080E092E08D
:1054A000DF019C011D9221503040E1F7F093D506B9
:1054B000E093D4068FEF9FEF9093CD048093CC04BC
:1054C00081E08093C4038093C3031092FD02809116
:1054D0007B02811176C090E080E00E949E33863E80
:1054E0009E4F21F00E944E140E94911288E090E09D
:1054F0000E9498336B017C0184E290E00E9490331B
:10550000282F30E040E050E060E070E080E090E084
:1055100000E20E942C33260137012C2935294E291F
:1055200057292093B7033093B8034093B90350939E
:10553000BA036093BB037093BC038093BD03909345
:10554000BE03809114038360809314032E7F61F562
:105550000E94911288E090E00E9498336B017C01D8
:1055600084E290E00E949033282F30E040E050E049
:1055700060E070E080E090E00E942C33260137016B
:10558000C22A35294E295729C092B7033093B80350
:105590004093B9035093BA036093BB037093BC0369
:1055A0008093BD039093BE030E9475098091B70359
:1055B00080FF04C060E086950E94571281E08093CE
:1055C0007B020E94F50F811102C00E94073189E21F
:1055D00091E09093450480934404E4E68E2E912C50
:1055E000A12CB12C8091740400E112E1853009F402
:1055F00094C00E94131C05E812E07CE7E72E72E0DD
:10560000F72ED701F80191918D912DE832E02E17F8
:105610003F0709F48CC09817B1F30E94F50F482E8C
:10562000D12C33243394D701CD907D01F8015190D2
:105630008F015C1429F15C24712C66246394852D00
:105640008621B1F04420A1F07982DA820E94C71548
:105650009C838B833D8291E08C2D862109F490E020
:105660009E8349815A816B817C818D810E94ED26C8
:105670007394660CF6E07F12E2CFF8013197C08296
:10568000D39428E0D212CFCF0E9429106093CB028E
:105690007093CC028093CD029093CE0231E03B8791
:1056A0004BC08FE392E0D8CE80917404843031F106
:1056B0000E9486101092480448E150E080E40FB642
:1056C000F894A895409360000FBE8093600083B764
:1056D000817F846083BF83B7816083BF789488951E
:1056E00083B78E7F83BF0FB6F894A8958091600032
:1056F000886180936000109260000FBE80917304F7
:10570000882359F00E94131CECE7F2E0819181118B
:1057100005C492E0E438F907C9F780917404853034
:1057200009F4C2CF0E940D160E94181062CF981380
:1057300074CF0E94E0281B860E94F50F882309F48D
:10574000F5C080917001882301F18091400490910F
:1057500041040097D1F00E94B8152091C9033091FF
:10576000CA032817390788F490913E0480913F04BA
:10577000981709F459C20E945A261092CA0310922F
:10578000C9031092410410924004C0909802D09036
:1057900099020D2C000CEE08FF0810913101212F09
:1057A00030E0E8E9F2E081E090E03296281739072E
:1057B0000CF043C28091940290919502A0919602C0
:1057C000B0919702BC01CD010E942E082B013C0133
:1057D00099EC491651046104710414F1809193020B
:1057E00090E0019669E170E00E94BE3280939302DE
:1057F000880F991FFC01E856FD4F11821082812FFE
:10580000183108F087E18F5F809331010E944E08C4
:1058100060939402709395028093960290939702FE
:10582000A2E0CA16D104E104F1040CF412C2A0E60D
:10583000BAEEA70196010E9419336F837887898792
:105840009A87B8EC1B9F90011124032E000C440B87
:10585000550B240D351D461D571DA5E0B0E00E94D7
:1058600019336F87788B898B9A8B6F8178858985BF
:105870009A852F85388949895A890E94D2326901CF
:105880007A01E1EFCE16D104E104F1042CF050EFDF
:10589000C52ED12CE12CF12C20918F023091900259
:1058A0004091910250919202CA01B9010E942E08C2
:1058B0002B013C0135E6431651046104710484F068
:1058C0000E944E0860938F02709390028093910221
:1058D000909392028091D30280938E02C0928D02A7
:1058E00010918E02A0918D02A11BBB0BA30192010E
:1058F0000E9424336F83788789879A87A501940152
:105900000E94F432120F1093D3028091C8038823AF
:1059100069F00E94C7152091C6033091C703821B0E
:10592000930B8F3F9F4710F40E949F0E8091C403FA
:10593000882309F487C08091FE029091FF020E94A3
:10594000B815C29708F454C00E94C7159093FF027F
:105950008093FE0260E080E00E9457098091D302AC
:1059600090E09093D5028093D4020E9418100E9478
:10597000F50F882309F4CEC165E080E00E94570945
:105980008091CB029091CC02A091CD02B091CE0239
:105990008F839887A987BA870E94F50F882309F417
:1059A0005CC16F81788589859A850E942E08462F73
:1059B000572FBC01413C544D6140710508F45EC154
:1059C00020910003309101034091020350910303A1
:1059D000CA01B9010E942E086F83788789879A8748
:1059E000613C744D8140910508F448C10E948610C5
:1059F0008091CC049091CD04892B09F0ACC18091A9
:105A0000C3038823F9F00E944E086F837887898743
:105A10009A878091BF039091C003A091C103B09178
:105A2000C2032F81388549855A85281B390B4A0BBB
:105A30005B0BDA01C9018F3F9F4FAF4FBF4710F497
:105A40000E9486104B8541110E94A11086E0ECE077
:105A5000F3E0DE01119601900D928A95E1F7D09066
:105A60000D03F0900E0310910F03E09010030091CE
:105A7000110310920E0310920F0310921003109254
:105A80001103812F8F2909F445C080910A03909159
:105A90000B030E94B8159C0180910503882309F42B
:105AA00058C225313105B0F18F3F19F08F5F8093D7
:105AB0000503FF2059F00E94AD099FEF1F140CF45D
:105AC00091E0899F802D112480930E03112359F0BA
:105AD0000E94AD0991E011160CF09FEF899F802D77
